:020000040800F2
:1000000000000220213F0008673F0008693F000808
:100010006B3F00086D3F00086F3F000800000000C4
:10002000000000000000000000000000713F000818
:10003000733F000800000000753F0008773F00088C
:100040007B3F00087D3F00087F3F0008351A00080D
:10005000833F0008853F0008873F0008893F00086C
:100060008B3F00088D3F00088F3F00083D260008A9
:100070004926000855260008612600086D2600085C
:1000800079260008852600089F3F0008A13F000848
:10009000A33F0008A53F0008A73F0008A93F0008AC
:1000A000AB3F0008AD3F0008AF3F0008B13F00087C
:1000B0009D1A0008B53F0008B73F0008B93F000887
:1000C000BB3F0008BD3F0008BF3F0008C13F00081C
:1000D000C33F0008C53F0008C73F000831120008B1
:1000E000513900085D1A0008CF3F0008D13F0008D1
:1000F000D33F0008D53F0008D73F000891260008ED
:10010000DB3F0008DD3F0008ED380008E13F000854
:10011000E33F0008E53F0008E73F0008E93F00082B
:100120009D260008A9260008B5260008C12600085B
:10013000CD260008F53F0008F73F0008F93F00080A
:10014000FB3F0008FD3F0008FF3F0008014000089A
:10015000D9260008E5260008F12600080940000815
:100160000B4000080D4000080F4000081140000837
:100170001340000815400008174000081940000807
:100180001B4000081D40000810B5054C237833B90A
:10019000044B13B10448AFF300800123237010BD5A
:1001A000600A0020000000002CAA000808B5064BD9
:1001B0001BB106480649AFF300800648036813B137
:1001C000054B03B1984708BD000000002CAA0008A9
:1001D000640A0020500A00200000000016202EA112
:1001E000ABBE2D480168002901D132490160816808
:1001F000C268002900D08D46002A01D002F5807A1D
:1002000000218B460F462548254A121A05F098FA18
:1002100003F0C2FF152025A1ABBE2449002001B484
:100220000B780131002B15D0202BF9D0222B01D0D7
:10023000272B01D11A0001E02022013902B401303C
:100240000B780131002B05D09A42F9D100224B1EC8
:100250001A70E5E76946020092006A446B469A42CA
:1002600006D9043A14681D6815601C600433F6E76B
:100270006C460725AC43A54604000D00094800283C
:1002800002D0094806F090FF04F0D6FE20002900B5
:1002900002F0D8FC04F016FE00000020600A0020E6
:1002A000E45E0020A97100082183000810000020EE
:1002B000FF000000E85E0020F0B4C37863B9037863
:1002C000194A5909203103F01F03012000FA03F3F2
:1002D00042F82130F0BC7047144B4778DA688578D3
:1002E00003781149D243C2F30222C2F104040F265B
:1002F000E4B207FA04F446FA02F2E4B22A402243D6
:1003000003F1604303F561431201D2B283F8002385
:100310000378012003F01F025B0900FA02F241F8A2
:100320002320F0BC704700BF00E100E000ED00E0DA
:10033000CA680B68D0F800C02DE9F0014F698E69DA
:10034000CD690C6A42EA030848EA07073E434B6A54
:1003500035432C4344EA03028C6A0E4E42EA0403FE
:100360004A6B8C6B134323430CEA06061E4306605C
:1003700044690A6BCB6A24F00704134323434361A7
:100380000B6943604B6883608B68C360BDE8F00114
:10039000704700BF3F801CF0837910B4002B2BD036
:1003A000214B0268196821EA02021A605968026842
:1003B00021EA02025A600279016802F1804202F5E4
:1003C0009E321468214311609968026821EA020292
:1003D0009A60D968026821EA0202DA604279102A3A
:1003E00017D002F1804303F59E33026819680A436F
:1003F0001A605DF8044B70470379016803F180438C
:1004000003F59E331A6822EA01021A605DF8044B74
:100410007047996802680A439A600268D9680A437B
:10042000DA605DF8044B7047003C0140054B1A68E8
:100430005B69034004D010420CBF002001207047CC
:1004400018467047003C0140014B5861704700BF9F
:10045000003C014000222DE9F0011346012603274C
:1004600004E00133102B02F102022CD00D6806FAD1
:1004700003F42540A542F4D1D0F800C007FA02F4F5
:10048000E44304EA0C0CC0F800C091F804C0D0F8B2
:1004900000800CFA02FC4CEA080CC0F800C091F88D
:1004A00004C00CF1FF3CBCF1010F0FD9C5682C4012
:1004B000C460CC79C568944001332C43102BC460D0
:1004C00002F10202D2D1BDE8F0017047D0F808C0B5
:1004D00004EA0C0CC0F808C091F805C0D0F80880F8
:1004E0000CFA02FC4CEA080CC0F808C0D0F804C0B2
:1004F0002CEA0505456091F806C045680CFA03FC36
:100500001FFA8CFC4CEA05054560CFE70183704774
:1005100041837047014B1860704700BF20000E42B6
:10052000064B002201281A701A7005D0042802D147
:1005300005221A7070477047187070477038024073
:10054000014B1860704700BF800E474210B41F4A2D
:10055000936803F00C03042B1BD0082B1CD01C4BFE
:1005600003601A491B4A8C68C4F30314145DE3400A
:1005700043608C68C4F38224145D23FA04F484601D
:1005800089685DF8044BC1F34231525CD340C360CB
:100590007047114B0360E4E7546851685268630286
:1005A0004CBF0D4B0A4B01F03F01C2F38812B3FB65
:1005B000F1F303FB02F3054A5268C2F30142013230
:1005C0005200B3FBF2F30360CBE700BF00380240F8
:1005D0000024F4001001002000127A0000F440739F
:1005E000B3F5407F09D1084A916820F0704321F4A7
:1005F000F81123F440730B439360034B1A6FC0F35D
:100600000B0010431867704700380240014B186018
:10061000704700BF3C0E4742044B1A6B19B922EADF
:100620000000186370471043186370470038024099
:10063000044B1A6C19B922EA000018647047104381
:100640001864704700380240044B5A6C19B922EA0A
:1006500000005864704710435864704700380240E7
:10066000044B1A6A19B922EA000018627047104355
:100670001862704700380240044B5A6A19B922EADE
:1006800000005862704710435862704700380240BB
:100690004309012B0BD0022B094B0CBF1B6F5B6F67
:1006A00000F01F0023FA00F000F001007047044B37
:1006B0001B6800F01F0023FA00F000F001007047F3
:1006C00000380240044B20B9CA21532259625A62B1
:1006D0007047FF225A6270470028004082B0002312
:1006E0000E490193CB685B0614D44FF0FF33CB6007
:1006F00000E04AB9CA68019B01330193019BB3F53D
:10070000803F02F04002F4D1044BD868C0F380105F
:1007100002B07047012002B0704700BF00280040BF
:1007200038B5104CCA225323626263620546FFF754
:10073000D5FF98B1A36823F04003A360A2682B689B
:100740001343A360AB68236123696A6843EA0243E9
:100750002361E36823F08003E3600120014BFF2263
:100760005A6238BD002800400F4982B05323002050
:10077000CA2201904A624B62CB6823F0A003CB608F
:1007800000E04AB9CA68019B01330193019BB3F5AC
:10079000003F02F02002F4D1034BD868FF22C0F3DF
:1007A00040105A6202B070470028004038B5344B00
:1007B000002836D19C6814F040045CD1CC700B78D2
:1007C000092B4FF0000207D90A3BDBB20132092B9B
:1007D000D2B2F9D81201D2B24878134309284FEAAD
:1007E00003434BD900220A38C0B201320928D2B2E1
:1007F000F9D81201D5B28A782843092A4FEA002095
:100800004FF0000107D90A3AD2B20131092AC9B220
:10081000F9D80901C9B21C4344EA00050A4315434B
:100820000CE09B6813F0400322D1CB704D78087820
:100830008A782D0245EA004515431D43104CCA2114
:10084000532361626362FFF749FF68B105F07F32AD
:1008500022F0FE422260E36823F08003E360FFF7AA
:1008600083FF003018BF0120054BFF225A6238BDBC
:10087000CB781B04DAE7CC782404A0E70025BAE79C
:100880000028004070B4154B1B6803F4800603F089
:100890007F04C3F30542360CC3F30623CE708C707D
:1008A0000A704B70B8B925091609180905EB8505BA
:1008B00004F00F0406EB860602F00F0200EB800046
:1008C00003F00F0304EB450502EB460603EB400380
:1008D0008D700E704B7070BC704700BF00280040D8
:1008E00038B5002839D14A78D30604D522F0100251
:1008F0000A32D2B24A70CB78092B4FF0000007D9E8
:100900000A3BDBB20130092BC0B2F9D80001C0B2FA
:100910000343092A4FEA034343D900200A3AD2B2DB
:100920000130092AC0B2F9D80001C5B288782A433B
:1009300009284FEA02224FF0000407D90A38C0B252
:1009400001340928E4B2F9D82401E4B20D7843EA6D
:10095000453515432043054309E04D78CA788B7827
:1009600008782D0245EA02451D4345EA40350E4C04
:10097000CA22532362626362FFF7B0FE68B125F0BA
:100980007F4020F0C0006060E36823F08003E360F4
:10099000FFF7EAFE003018BF0120034BFF225A6226
:1009A00038BD0025C2E700BF00280040F0B4144B5A
:1009B0005B6803F03F04C3F34236C3F30742C3F35B
:1009C00004230E708C70CA704B70B8B91E092509CB
:1009D0001009B70005EB850504F00F0403F00F03C1
:1009E0003E4400EB800002F00F0204EB450503EBF0
:1009F000460302EB40008D704B70C870F0BC70472E
:100A000000280040074BCA21532259625A629A6853
:100A100022F007029A609968FF22084398605A62A0
:100A2000704700BF00280040054B10B45321CA2472
:100A3000FF225C62596258615A625DF8044B70474C
:100A40000028004010B4144983B053230024CA2264
:100A500001944A624B628B68C8B923F480638B604F
:100A600000E04AB9CA68019B01330193019BB3F5C9
:100A7000803F02F00402F4D1074BD868C0F3800035
:100A8000054BFF225A6203B05DF8044B704743F4F4
:100A900080638B600120F3E70028004082B00022D1
:100AA000054B01920193019B03EB80000190019B98
:100AB000196002B0704700BF5028004082B0002289
:100AC000054B01920193019B03EB80000190019B78
:100AD000186802B0704700BF5028004010B4114B96
:100AE0005322CA245C625A629A6881B920F00401D8
:100AF00022EA01029A601A6C00F0040022EA000067
:100B00001864084BFF225A625DF8044B704720F0CE
:100B100004010A439A601A6C00F004001043186440
:100B2000EFE700BF0028004010B40C4B1A6C996826
:100B3000DC6802F0040202EAD03200EA0103134347
:100B400008D0A4B214EA10140CBF002001205DF8F4
:100B5000044B704718465DF8044B7047002800406E
:100B6000054BDA68C0F30F1040F0800002F08002FD
:100B700062EA0002DA607047002800402DE9F003C5
:100B80000A88B1F80290B1F80480B1F806C00F8964
:100B90004E898D89CC89038849EA020242EA08021B
:100BA00042EA0C023A4332432A43224303F44153BC
:100BB00013439BB20380838B23F400631B041B0C41
:100BC00083830B8A0382BDE8F0037047002307226A
:100BD0000282038043808380C380038143818381B9
:100BE000C381704710B401F0FC0303F1804303F5A7
:100BF0009C3301F003019C6889000F228A4024EA9B
:100C000002029A609A68884002439A605DF8044B39
:100C1000704700BF254A0388904210B49BB212D09F
:100C200002F5806290420ED0B0F1804F0BD0A2F559
:100C30008032904207D002F58062904203D002F5E4
:100C40008062904203D14A8823F070031343184A0C
:100C5000904220D002F5806290421CD00C8923F48F
:100C600040739BB2234303804B68C36202F56C421E
:100C70000B880385904207D00E4B984204D0012385
:100C800083825DF8044B70478B7A0386012383824D
:100C90005DF8044B704703804B68C3620B88038583
:100CA000012383825DF8044B704700BF00000140C0
:100CB000001000400004014041627047038823F4A3
:100CC00040731B041B0C038003889BB219430180F3
:100CD000704700BF038829B923F001031B041B0CD4
:100CE000038070479BB243F001030380704700BF4D
:100CF00083899BB21AB923EA0101818170471943A4
:100D000081817047038A828911EA030092B203D07D
:100D100011420CBF00200120704700BFC94389B2B7
:100D20000182704708B52B4B984219D02A4B984244
:100D300020D02A4B984229D0294B984232D0294BB7
:100D400098423BD0284B984200D008BD202001217A
:100D5000FFF792FC20200021BDE80840FFF78CBC83
:100D600010200121FFF788FC10200021BDE8084079
:100D7000FFF782BC4FF400300121FFF771FC4FF404
:100D800000300021BDE80840FFF76ABC4FF4802026
:100D90000121FFF765FC4FF480200021BDE80840E9
:100DA000FFF75EBC4FF400200121FFF759FC4FF420
:100DB00000200021BDE80840FFF752BC4FF480102E
:100DC0000121FFF74DFC4FF480100021BDE80840E1
:100DD000FFF746BC001001400044004000480040BE
:100DE000004C0040005000400014014030B5038A20
:100DF000CA889BB223F440531343038282890B8930
:100E0000044688880D464989034392B20B4322F475
:100E1000B05222F00C029BB21343A381A38AAA8989
:100E20009BB223F44073134385B0A3826846FFF757
:100E30008DFB1D4B9C4229D003F580639C4225D03D
:100E4000029BA2892968A08912B2002A03EB8303BE
:100E5000B4BF4900890003EB8303B3FBF1F21349EC
:100E600000B2A1FB02535B096425002803FB152295
:100E70004FEA03130CDB12013232A1FB0251C1F322
:100E800043110B439BB2238105B030BD039BD8E7D0
:100E9000D2003232A1FB0201C1F342110B439BB2DB
:100EA000238105B030BD00BF001001401F85EB510C
:100EB00080B483B000AF7860002318460C37BD467D
:100EC0005DF8047B704700BF80B584B000AF7860E8
:100ED00000F0A2F8F860F86800F0BEF80346184683
:100EE0007968202204F092FBFB681B685A1CFB689F
:100EF0001A601037BD4680BD80B584B000AF034690
:100F0000FB71244B1B78022B25D1234B1A68234BF2
:100F10001B781344FA791A70204B1B780133DAB22C
:100F20001E4B1A701D4B1B781F2B94BF00230123EF
:100F3000DBB2002B0FD01A48FFF7C6FF154B00227B
:100F40001A70154B1B6818460021202204F0F8FB8C
:100F5000124B00221A700023FB6015E00D4B1B782A
:100F60001A46FB689A420CD1FA790A4B1B78C3F1F6
:100F7000FF039A4205D1074B1B780133DAB2054BC8
:100F80001A70FB680133FB60FB68012BE6DD10374C
:100F9000BD4680BDA50A0020A00A0020A40A0020AA
:100FA000800A002080B582B000AF7860054B064A09
:100FB0001A60064801214FF4E13200F02DF908379C
:100FC000BD4680BDA00A0020800A002000480040E5
:100FD00080B582B000AF7860044B00221A70786848
:100FE00000F046F80837BD4680BD00BFA50A0020C6
:100FF00080B582B000AF7860396006483968202239
:1010000000F05AF87B685B685A1C7B685A600837A6
:10101000BD4680BD0048004080B500AF0C4B1B684A
:1010200003F00103002B10D1094801F0EBFD03464A
:10103000002B0CBF00230123DBB2002B05D0054899
:1010400000F028F8024801F0EFFD024B184680BD81
:10105000C00A0020E00A002080B483B000AF7860AE
:101060007B68203318460C37BD465DF8047B70471B
:1010700080B582B000AF78607B68203318460021CD
:10108000202204F05DFB7B6800221A600837BD4611
:1010900080BD00BF80B483B000AF78607B68002261
:1010A0001A607B6800225A607B6818460C37BD4680
:1010B0005DF8047B704700BF10B40C4B0C4CA04291
:1010C00018BF00231B7B6BB162B1002403881B0691
:1010D000FCD50B5D838003881B06FCD50134E3B28D
:1010E0009A42F3D85DF8044B704700BF20010020FE
:1010F00000480040704700BF00B583B060B10128D0
:1011000029D0022819D0032803D11A480721FFF754
:10111000F1FF03B05DF804FB02460321072300F151
:1011200080408DE80A0000F501304FF44061012352
:1011300000F07AFD03B05DF804FB032207238DE87D
:101140000C000D484FF440710022012300F06CFDAB
:1011500003B05DF804FB032107228DE80600034677
:101160004FF440610548002200F05EFD03B05DF8D9
:1011700004FB00BF00480040000C02400008024091
:1011800030B587B0214B0291196C214D41F480217B
:1011900019641446FFF7B0FF27231E488DF800306E
:1011A000FFF7C0FD01210622022368468DF80310D7
:1011B0008DF801208DF80230FFF77EF800230C2116
:1011C00040F6FF72ADF814402B73ADF81030ADF857
:1011D0000E30ADF80C30ADF812100192019B5A1E82
:1011E0000192002BFAD10B4C02A92046FFF7FEFD1D
:1011F000A3899BB243F02003A381A28992B242F457
:1012000000520123A2812B7307B030BD0038024089
:101210002001002000480040044B984200D0704755
:10122000084611460022FFF7ABBF00BF0048004050
:1012300008B5044B1A88920603D59888C0B2FFF708
:101240005BFE08BD004800402DE9F04F89B0037AED
:1012500005910129C17904930391467A4279037972
:1012600079D084790778DDF8109006948A46B046E4
:1012700094469B46B8F1630F69D809F1FF310B29F9
:1012800065D8BAF1000F62D018F0030F00F0B780F4
:1012900008F5FA684FEAE8750295664D85FB081572
:1012A0000299C1EBE515079507994FF4C87505FB41
:1012B0001188D8F1010838BF4FF000085E494FEAA5
:1012C0004805A84401EB8808C14419F8011C5145A0
:1012D0003DD3BCF1170F3AD8BBF13B0F37D83B2FAA
:1012E00035D8069D05F1FF3BBBF1060F2FD8DFF87F
:1012F0005881524988F8002088F801300378504D11
:1013000088F802301F2240F2FF3300278B60084626
:10131000049B4A600F600399A9706B70EE702C708B
:10132000FFF7FEF9059B012B41467BD03846FFF7BE
:101330003DFA38462946FFF7D3FA424B186838B1D0
:10134000132044F22131FFF7A9FB002000E0012027
:1013500009B0BDE8F08F8479DDF810A005784FEA78
:10136000111B0BEB8B0B2109CDF808B001EB8101B0
:10137000DDF80CB0019102990BF00F0B0BEB410162
:10138000069104994FEA1A1901F00F0B4FEA16184B
:1013900009EB89094FEA151A0BEB49094FEA121CB0
:1013A00006F00F0B08EB88080AEB8A0A0BEB4808DB
:1013B0001F0902F00F0B0CEB8C0C05F00F050BEB6B
:1013C0004C0C05EB4A0503F00F0BDDF804A007EB0E
:1013D00087070BEB470704F00F0B0BEB4A01DDF817
:1013E00018B0C9B25FFA8BFA5FFA89F95FFA87FB26
:1013F0005FFA88F85FFA8CFCEFB206913AE70D4D80
:1014000008F5FA6885FB08154FEAE871C1EB651528
:101410000291642101FB1585002D3FF43EAF4FF092
:1014200001084BE71846FFF7C1F905982946FFF771
:1014300057FA82E71F85EB5130010020C45E00207F
:10144000D05E0020200B0020C05E00202DE9F04F70
:10145000037887B0A3F13001002209298DF80F200D
:1014600000F20B8111460131C9B202EB820203EB9B
:101470004202435CA3F13004303A092CD2B2F2D9D3
:101480008B1CDBB201F1010A01F1030901F1040E29
:101490004D1D019306315FFA8AFA5FFA89F95FFA06
:1014A0008EFEEDB2C9B2DDF804808DF80F205346F0
:1014B000CC4677462E460C4610F80A20A2F1300B97
:1014C0004FF0000ABBF1090F8DF810A000F2E68082
:1014D0000133DBB20AEB8A0A02EB4A0AC25CA2F1D0
:1014E0003001AAF1300A09295FFA8AFAF0D903F12A
:1014F000010803F1020903F1030E1D1D0533D9B2E2
:101500005FFA88F85FFA89F95FFA8EFEEDB28DF81E
:1015100010A04346CC4677462E460C4610F80820CD
:10152000A2F1300A4FF00008BAF1090F8DF81180CE
:101530001FD844460133DBB204EB840402EB4404BD
:10154000C25CA2F13001303C0929E4B2F2D903F1C6
:10155000010C03F1020EDD1C04335FFA8CFC5FFA10
:101560008EFEEDB2D9B28DF81140E14677462E4697
:101570000C4610F80C30A3F1300C0022BCF1090F1E
:101580008DF80E201ED809F101095FFA89F902EBE6
:10159000820203EB420210F80930A3F13001303A25
:1015A0000929D2B2EFD909F1010709F1020509F1C0
:1015B0000309FFB2EDB25FFA89F18DF80E20BE4645
:1015C0002E460C46C35DA3F130070022092F8DF88B
:1015D0000D201AD80EF1010E5FFA8EFE02EB820288
:1015E00003EB420210F80E30A3F13001303A092922
:1015F000D2B2EFD90EF101060EF1020EF6B25FFA89
:101600008EF18DF80D200C463546835DA3F1300632
:101610000022092E8DF80C2011D80135EDB202EB15
:10162000820203EB4202435DA3F13001303A092903
:10163000D2B2F2D90135ECB28DF80C202146025D10
:10164000A2F130030024092B8DF808400ED8013197
:10165000C9B204EB840402EB4404425CA2F13003FF
:10166000303C092BE4B2F2D98DF8084002A80021E1
:10167000FFF7EAFD07B0BDE8F08F06240526042732
:101680004FF0030C4FF002084FF0010A2146354697
:10169000BE46E146CDF8048053460DE7019B3DE789
:1016A00008B598B101281ED00120FEF7AFFF002039
:1016B000FFF708F8FFF758F80120FFF703F81320A9
:1016C00041F23421BDE80840FFF7E8B90120FEF7F8
:1016D00037FF6120FEF7DCFF0028FAD04FF40070DE
:1016E000FEF77CFFE0E7FEF71BFF4120FEF7D0FF8F
:1016F0000028FAD04FF48070FEF770FFD4E700BFE7
:101700003B4B2DE9F0414FF480083A4DC3F814806B
:1017100007460020384CFFF795F94FF48040002130
:10172000FFF7DCF900260423032228466B702A7099
:10173000AE70EE70FEF7C0FD08232046C4F80080AE
:101740002671A6716371FEF727FE0FB9BDE8F0811F
:101750004FF00108284685F80380FEF7ADFD2046CE
:1017600084F80680FEF718FE3046FFF76BF9474510
:1017700028D0022F28D0032F12D0042F29D0052FD4
:101780002AD0062F2BD0072F20D0082F2AD0092FA0
:101790002BD040F2FF130A2F0CBF1F46374601E043
:1017A0004EF6FF770120FFF72DF93846FFF73CF999
:1017B0004FF480400121FFF791F90120BDE8F0418D
:1017C000FFF740B90D4FEDE70D4FEBE740F6FF7720
:1017D000E8E749F6FF77E5E744F6FF77E2E741F609
:1017E000FF77DFE740F2FF77DCE740F2FF37D9E72A
:1017F000003C0140D45E0020D85E0020FFBF030003
:10180000FFDF01002DE9F003467A3B4940F2B27355
:1018100006F5FA6600224FF4C87740F26D1C4FF0CF
:1018200064080AE008FB1434A4B294B101339BB2FB
:101830004FF4B7749E42224416D9A1FB0345ED092B
:10184000A1FB039413F0030F07FB15354FEA541463
:10185000E8D0ADB20133002D9BB214BF64464FF403
:10186000B7749E422244E8D8077A012F2DD9224B23
:10187000DFF88CC0A3FB06184FEAD8134FF4C875E5
:1018800005FB1365023F64234FEA5818ADB203FB12
:101890001868BFB2D5F1010507F1010738BF00256F
:1018A0001FFA88F806F00306002316BBB8F1000FF4
:1018B0000CBF294601214C00214403EB8101013377
:1018C0001CF80110BB420A44EFD103794679C17973
:1018D00004780A48C3EB03139D004FF4616303FBD4
:1018E0000653013923440A4400FB0230BDE8F003EB
:1018F00070472946DFE700BF1F85EB51805101008B
:101900003001002070B50D460446F9B9194E08465D
:101910003146FEF7B7FF30787178B278164B6071B8
:10192000217122709B6A638028461449FFF73EF8B4
:10193000124BD87859789A781B7860722172E271CC
:10194000A3712046FFF75EFFE06070BD094D0120E6
:101950002946FEF797FF28786978AA78064B6071C8
:10196000217122709B6A638001200449FFF71EF8F1
:10197000DEE700BFC05E002000280040D05E0020EF
:1019800070B5012184B004464FF08050FEF750FE40
:101990000120FEF7BFFD1320FFF790F844F221323B
:1019A000904221D041F23425A8421DD01D4E204640
:1019B00000243460FFF774FE04A8012300F8104DE2
:1019C000214668468DF809408DF805408DF80440A1
:1019D0008DF807308DF806308DF80830FFF734FCAD
:1019E0002046356004B070BD0E4D2860B4B10020B3
:1019F000FEF768FEFEF7B8FE0120FEF763FE4FF427
:101A00008040FFF7ADF8084B4FF4800268465A61FA
:101A10000021FFF777FF286804B070BD2046FFF76C
:101A20003FFEE4E7200B0020003C0140704700BF70
:101A3000704700BF08B54FF48040FFF775F828B134
:101A40004FF48040FFF78CF801F032FE024B4FF468
:101A500080025A6108BD00BF003C014008B54FF448
:101A60008050FFF761F878B94FF40050FFF75CF849
:101A700028B14FF40050FFF773F8FFF7D9FF064B7A
:101A80004FF400325A6108BD4FF48050FFF768F8F8
:101A9000FFF7CCFFE8E700BF003C014070B54FF016
:101AA0008043174A4FF6FE7119821168154B0131B8
:101AB00011601A6812B11A68013A1A60124DAFF338
:101AC00000802B7883B1002405EB8406736833B162
:101AD0001A7B22B19A68511E0AB1996029B101346A
:101AE0002B78E4B2A342EFD870BD1A6958699047C9
:101AF000736893E806009960002AF0D11A73EEE744
:101B00003C0B0020400B0020240B00202DE9F00F9F
:101B100000F13F4488B004F57E04551E9DF84460F2
:101B20000693C4F38724EDB29DF840800796049491
:101B3000059500234FF00109029202E00133102BBA
:101B400049D0DDF808A05C00032707FA04F50AFA7B
:101B500004F741FA03FA1AF0010F6FEA050508FAD3
:101B600004FC09FA03F6E9D0C268DFF874B0DDF8C6
:101B700010A03BF81AA0ADF800A005EA020B4BEA52
:101B80000C0CC0F80CC0D0F800C0049A05EA0C0C8C
:101B90004CEA070707601FFA8AFC114F46EA0C0A55
:101BA00027F812A0059A012AC8D8DDF818A0D0F8A5
:101BB00004C0DDF81CB00AFA03F72CEA0606BFB22F
:101BC0003E43466086680BFA04F4354001332C43EB
:101BD000102B8460B5D108B0BDE8F00F704700BF8E
:101BE000440B00202DE9F0019DF814609DF8185079
:101BF00011B9BDE8F00170470A4F00F13F4404F508
:101C00007E04C4F38F2C4FF001083C6B08FA0CFCE7
:101C10004CEA04043C6305960695BDE8F001FFF725
:101C200075BF00BF003802402DE9F0079DF81C8009
:101C30009DF820C089B31A4D00F13F4404F57E049D
:101C400001272E6BC4F38F2407FA04F434432C636A
:101C50000F270024E50841FA04F600EB850904F09B
:101C60000705AD0016F0010F04F1010407FA05F6AF
:101C700008D0D9F820A00CFA05F52AEA06062E436A
:101C8000C9F82060102CE5D10793CDF820801346C9
:101C9000BDE8F0070222FFF739BFBDE8F007704743
:101CA0000038024080B483B000AF7860002318464B
:101CB0000C37BD465DF8047B704700BF80B582B02D
:101CC00000AF78607B6800221A607B680433184696
:101CD00000F0E2F97B6800221A657B681846083735
:101CE000BD4680BD90B583B000AF78607B68DA6C8C
:101CF0007B681B6D1046194600F0BEF90346184676
:101D000000F088F904467B68DA6C7B681B6D10462E
:101D1000194600F0B1F900F075F903469BB20F487F
:101D20002146002200F070FE0346002B14BF002362
:101D30000123DBB2002B02D0094803F065FD00BF90
:101D4000064800F0F5FE0346002B0CBF00230123DC
:101D5000DBB2002BF4D10C37BD4690BD0030014002
:101D600060A3000890B583B000AF786019481021D7
:101D7000FEF7CCFB17480821FEF7C8FB7B6804334D
:101D8000184600F0BFF904467B680433184600F09B
:101D9000ABF903469BB210482146002200F034FE06
:101DA0000346002B14BF00230123DBB2002B02D01B
:101DB0000A4803F029FD00BF074800F0B9FE0346BA
:101DC000002B0CBF00230123DBB2002BF4D10C3716
:101DD000BD4690BD000002400030014088A30008CD
:101DE00080B584B002AF7860114B0022DA614FF405
:101DF00082730093802301930E4800210022002368
:101E000000F0A4FD0B4800F0C1FD00230093022365
:101E100001930748582101220023FFF7E3FE0548FC
:101E200000F0C4FE7868FFF79DFF0837BD4680BD0F
:101E3000000002400030014080B483B000AF786001
:101E40000C37BD465DF8047B704700BF80B582B09B
:101E500000AF7860084800F08FFE02467B689A4227
:101E600014BF00230123DBB2002B02D0034803F090
:101E7000CBFC0837BD4680BD00300140B8A3000848
:101E800080B582B000AF7860084800F075FE024669
:101E90007B689A4214BF00230123DBB2002B02D0DF
:101EA000034803F0B1FC0837BD4680BD0030014057
:101EB000DCA3000880B584B000AF7860244800F04F
:101EC0005BFE02467B689A4214BF00230123DBB20B
:101ED000002B39D000F07AF90346184600F096F945
:101EE000F860F86800F01CF90346002B14BF0023CB
:101EF0000123DBB2002B0CD016484021142200F045
:101F000091F914481821FEF703FB134803F07CFCF9
:101F10001AE0F86800F004F90346012B14BF00230F
:101F20000123DBB2002B0FD00A484021142200F01D
:101F300079F908480821142200F074F9074803F0E1
:101F400063FCF86800F0F8F81037BD4680BD00BFAC
:101F50000030014000000240F8A3000818A4000867
:101F600080B483B000AF78607B6818460C37BD46FC
:101F70005DF8047B704700BF80B582B000AF786029
:101F80007B6801221A707B6800225A707B680833D4
:101F90001846FFF7E5FF7B6810331846FFF7E0FFB0
:101FA0007B6818331846FFF7DBFF7B682033184641
:101FB000FFF7D6FF7B68283318460021102203F074
:101FC000BFFB7B6818460837BD4680BD90B585B01D
:101FD00000AF78607B68184600F038F904467B68EB
:101FE000184600F03FF902460023FB6007F10C039E
:101FF000204611461A4600F043F97B68184614370C
:10200000BD4690BD80B400AF90231846BD465DF834
:10201000047B704780B582B000AF78607B6818465B
:1020200000F052F9034618460837BD4680BD00BF90
:10203000B0B582B000AF78607B6847241D4604E0ED
:102040002846FFF7C3FF9035013CB4F1FF3FF7D1BD
:102050007B6818460837BD46B0BD00BF80B582B06A
:1020600000AF78607B681846FFF7E2FF7B68184690
:102070000837BD4680BD00BF80B582B000AF786034
:1020800039607A683B681046194600F041F903460A
:1020900018460837BD4680BD90B585B000AF786062
:1020A0007B68184600F044F904467B68184600F047
:1020B0004BF902463F23FB6007F10C032046114613
:1020C0001A4600F0DDF87B6818461437BD4690BD0F
:1020D00080B483B000AF7860482318460C37BD4603
:1020E0005DF8047B704700BF80B582B000AF7860B8
:1020F0007B681846FFF7ECFF034618460837BD46D5
:1021000080BD00BF80B582B000AF78607B681846A4
:1021100000F036F9034618460837BD4680BD00BFBB
:1021200080B483B000AF78607B681B6818460C37BA
:10213000BD465DF8047B704780B483B000AF786023
:102140007B681B6D5A1C7B681A650C37BD465DF8B1
:10215000047B704780B582B000AF78607B6818461A
:10216000FFF7FEFE7B6808331846FFF7F9FE7B6831
:1021700018460837BD4680BD80B582B000AF786094
:102180007B6804331846FFF799FD7B68583318467F
:10219000FFF7F2FE7B6898331846FFF7DBFF7B689A
:1021A000C8331846FFF778FF7B6803F58873184635
:1021B000FFF754FF7B6803F5265310331846FFF7EB
:1021C0004DFF7B6818460837BD4680BD80B500AF1F
:1021D0000C4B1B6803F00103002B10D1094800F0E1
:1021E00011FD0346002B0CBF00230123DBB2002BA3
:1021F00005D00548FFF7C0FF024800F015FD024B6F
:10220000184680BD5C0B0020600B002080B483B0BA
:1022100000AF78607B68043318460C37BD465DF824
:10222000047B704780B584B000AFF8600B467A60DD
:102230007B817B89F8681946FEF768F97B89F86825
:102240001946FEF765F91037BD4680BD80B582B0EE
:1022500000AF7860786800F037F803461846083712
:10226000BD4680BD80B582B000AF7860786800F070
:102270002BF80346903318460837BD4680BD00BF93
:1022800090B585B000AFF860B9607A60F86800F08A
:1022900089F80446B86800F085F8034620461946D8
:1022A0007A6800F08BF81437BD4690BD80B483B0D7
:1022B00000AF786039607A683B68134418460C3781
:1022C000BD465DF8047B704780B582B000AF786092
:1022D0007B6818460021FFF7E9FF0346184600F027
:1022E00087F8034618460837BD4680BD80B483B0E2
:1022F00000AF786039603A681346DB0013441B0175
:102300007A68134418460C37BD465DF8047B704765
:1023100080B582B000AF786039607B681846396854
:10232000FFF7E4FF034618460837BD4680BD00BFEF
:1023300080B582B000AF7860786800F021F803467D
:1023400018460837BD4680BD80B582B000AF7860C2
:10235000786800F015F80346483318460837BD463C
:1023600080BD00BF80B483B000AF786039607A6808
:102370003B68134418460C37BD465DF8047B704734
:1023800080B582B000AF78607B6818460021FFF707
:10239000E9FF0346184600F02BF8034618460837B5
:1023A000BD4680BD80B582B000AF7860786800F02F
:1023B0002BF8034618460837BD4680BD80B487B069
:1023C00000AFF860B9607A607B681B687B6106E0EB
:1023D0007B69DAB2FB681A70FB680133FB60FA684C
:1023E000BB689A42F4D11C37BD465DF8047B704748
:1023F00080B483B000AF78607B6818460C37BD4668
:102400005DF8047B704700BF80B483B000AF786094
:102410007B6818460C37BD465DF8047B704700BFEB
:10242000104B984210B414D80F4B104C104A034470
:10243000A4FB03031B09032B88BF043B0D48C35CAB
:1024400088BF043201F03D01994011605DF8044BF2
:102450007047094B054C094A0344A4FB03031B09BD
:10246000E9E700BF0F640240F09FFDBFABAAAAAA34
:102470000860024038A40008F09BFDBF08640240D9
:1024800010B5284B984282B0044634D8264B2749D1
:10249000274A0344A1FB03031B09032B88BF043B0A
:1024A00024482049C35C88BF04323D2000FA03F36E
:1024B0008C42136027D9204B1C4A20492344A2FB9D
:1024C00003031B0919440122097A8DF804108DF8C1
:1024D0000520012201A88DF806308DF80720FDF7B0
:1024E000EBFE236843F01E032360636943F080031F
:1024F000636102B010BD104B0C49114A0344A1FBAB
:1025000003031B09C9E7084B084A0C492344A2FBF3
:1025100003031B090122C95C8DF804108DF8052006
:10252000D7E700BF0F640240F09FFDBFABAAAAAA85
:102530000860024038A40008F09BFDBF3CA40008DE
:1025400008640240704700BF704700BF324B98429A
:1025500070B5044644D8314B3149324A0344A1FB9B
:1025600003031B09032B84BF0432043B2E49156867
:10257000CA5C294B9C4225FA02F529D8274B2848EA
:102580002A4A2344A0FB03631B09032B84BF043B9B
:102590000432CB5C3D2101FA03F3AE06136002D591
:1025A0002368D8062CD4E90602D523681A072BD451
:1025B0002B0702D523685E072AD4680702D5236853
:1025C000990719D4EA0702D563691B0610D470BDB8
:1025D000174B1348174A2344A0FB03631B09D4E796
:1025E000134B0F49144A0344A1FB03631B09B9E7CA
:1025F0002046FFF7A9FF70BD2046FFF7A3FFE1E7E4
:102600002046FFF757FCCEE72046FFF71FFCCFE739
:102610002046FFF735FCD0E70F640240F09FFDBF76
:10262000ABAAAAAA0060024038A4000808600240D1
:10263000F09BFDBF08640240006402400148FFF7C0
:1026400085BF00BF106002400148FFF77FBF00BF99
:10265000286002400148FFF779BF00BF4060024098
:102660000148FFF773BF00BF586002400148FFF701
:102670006DBF00BF706002400148FFF767BF00BF39
:10268000886002400148FFF761BF00BFA0600240C0
:102690000148FFF75BBF00BFB86002400148FFF789
:1026A00055BF00BF106402400148FFF74FBF00BF95
:1026B000286402400148FFF749BF00BF4064024060
:1026C0000148FFF743BF00BF586402400148FFF7CD
:1026D0003DBF00BF706402400148FFF737BF00BF35
:1026E000886402400148FFF731BF00BFA064024088
:1026F0000148FFF72BBF00BFB864024000B583B0AC
:1027000030B1012817D003280FD003B05DF804FBC7
:102710000246052103208DE8030013460C48E02102
:10272000FFF782FA03B05DF804FB0A48AFF30080BC
:1027300003B05DF804FB0022032105238DE80A00A5
:10274000054813463821FFF76FFA03B05DF804FB24
:1027500000000240003001400004024070B5044611
:1027600082B050B1012829D002281BD0032802D101
:102770001948AFF3008002B070BD0326052522463C
:1027800023460096019515484FF48061FFF74CFAF7
:10279000224600960195234611480C21FFF744FA82
:1027A00002B070BD0022032105238DE80A000D4808
:1027B00013460D21FFF738FA02B070BD0022032145
:1027C00005238DE80A00054813464FF46041FFF7E2
:1027D0002BFA02B070BD00BF003800400004024078
:1027E000000802400020024000B583B030B101284B
:1027F00017D003280FD003B05DF804FB0246062172
:1028000003208DE8030013460D483821FFF70CFA2A
:1028100003B05DF804FB0B48AFF3008003B05DF834
:1028200004FB0022032106238DE80A000648134614
:102830004FF4E051FFF7F8F903B05DF804FB00BF77
:1028400000040240003C0040000802402DE9F04333
:1028500087B0044601A8984689461546BDF83860F9
:10286000BDF83C70FEF7B2F9354B9C4240D0354B79
:102870009C424AD0344B9C4254D000224FF4007307
:10288000ADF81080ADF81270ADF80660ADF8042018
:10289000ADF80E30EDB1012D20D0022D23D0032D47
:1028A00005D102220123ADF80A20ADF80C302388AF
:1028B00023F040031B041B0C238001A92046FEF7D4
:1028C0005DF923889BB243F04003238007B0BDE845
:1028D000F083ADF80A50ADF80C50E8E7ADF80A20E7
:1028E000ADF80C50E3E7ADF80A50ADF80C20DEE788
:1028F00003F5843348465A6C42F480525A64FFF719
:10290000FDFE0023ADF80830B7E703F50033484675
:102910001A6C42F480421A64FFF720FF0023ADF8DE
:102920000830AAE703F5FE3348461A6C42F4004229
:102930001A64FFF759FF0023ADF808309DE700BF88
:102940000030014000380040003C0040F0B40C4D25
:10295000BDF810C0BDF81470A842164607D0094D46
:10296000A84204D0084DA84201D0F0BC7047CDF871
:1029700010C005971A463346F0BCFFF767BF00BF8B
:102980000030014000380040003C0040164B9842A7
:1029900028D01649164A174B88420CBF10461846D5
:1029A0004368154A9342154B1A6B8CBF42F4800260
:1029B00042F400121A63C2680F4B9A420F4B1A6B13
:1029C0008CBF42F4800242F400121A630C4B0022C6
:1029D0005A61DA611A625A629A62DA621A635A6357
:1029E0009A6370470748DBE700380040003C00402E
:1029F00048010020600100200F64024000380240BE
:102A0000705D0020780100202DE9F843434CA0427E
:102A100006468846914655D04149424A04F58064AD
:102A2000A0420CBF0C461446E5686D68002D46D1E7
:102A300060684768002F42D1B8F1000F44D03A4D8A
:102A4000A78206F10C0C4FF0400E4FF480623D213E
:102A50002B6123682B60C5F804C0C5F80CE0AA619F
:102A60002F62EF61C5F80880FFF7DAFC294660683D
:102A7000FDF75EFCA368EF602B60B9F1000F47D053
:102A80004FF48063C5F80890AB61E0683D21FFF723
:102A9000C7FCE0682449FDF74BFCE3681A6842F084
:102AA00001021A6063681A6842F001021A60B38872
:102AB0009BB243F00303B3800120BDE8F8830020FC
:102AC000BDE8F883194CAFE7B9F1000FF7D02746FE
:102AD000154DA4F8148057F8102B2A6006F10C0E3F
:102AE00040223D212B61C5F804E0EA60AF60C5F8E3
:102AF0002080C5F81C80C5F81880FFF791FC294696
:102B00006068FDF715FCA368C5F80C802B60B7E77B
:102B100004F11003C5F81890AB60B6E70038004028
:102B20004801002060010020705D00207801002035
:102B30000C4B984214D00C490C4B0D4A884218BFDC
:102B40001346DA6852684AB95B685B6833B903892F
:102B50009B0703D00089C0F3C01070470120704765
:102B6000044BEEE700380040003C004048010020E4
:102B70006001002078010020074B984208D00749E7
:102B8000074A084B88420CBF1046184640687047F9
:102B900005484068704700BF00380040003C0040D6
:102BA0004801002060010020780100200A4B984273
:102BB00010B50ED0094C0A4A0A4BA0420CBF14466D
:102BC0001C466068FFF75CFCE068BDE81040FFF75A
:102BD00057BC054CF5E700BF00380040003C004002
:102BE00048010020600100207801002080B483B0FB
:102BF00000AF7860002318460C37BD465DF8047BB3
:102C0000704700BF80B483B000AFC7E900013B68E4
:102C10001B78002B14BF00230123DBB218460C37AE
:102C2000BD465DF8047B704780B483B000AFC7E950
:102C300000013B6801221A700C37BD465DF8047B29
:102C4000704700BF90B5ADF5235D89B000AF01F0CE
:102C5000EBF901F069FA07F12003203B1846FFF772
:102C60001BFA07F16003183B1846FFF7F7F900233A
:102C700007F5235202F11C02136055E0002307F50B
:102C8000235C0CF1180CCCF8003032E007F1600343
:102C9000183B184607F5235202F11C02116800F098
:102CA000C1F9044607F5235303F10803184640F61B
:102CB000FF7140F6FF7240F6FF7300F077F8204690
:102CC00007F5235303F11803196807F5235C0CF18A
:102CD000080CDCE9002300F067F907F5235202F144
:102CE00018021368013307F5235C0CF1180CCCF8BB
:102CF000003007F5235202F11802146800F08AF937
:102D000003469C420CBF00230123DBB2002BBDD144
:102D100007F5235C0CF11C0CDCF80030013307F5DF
:102D2000235202F11C02136007F5235303F11C0325
:102D30001C6800F087F903469C420CBF0023012366
:102D4000DBB2002B9AD1FFF741FA07F5235C0CF1B7
:102D5000140CCCF8000007F5235202F1140210689D
:102D6000002100F0E5F907F16003183B07F5235C4B
:102D70000CF1140CDCF80000194600F08BF907F593
:102D8000235202F114021068FFF740FA024607F1DD
:102D90002003203B1046194600F05CF907F5235349
:102DA00003F11403186801F001F8F7E72DE9B00307
:102DB00085B000AFF86079813A81FB8038894FF0A7
:102DC0000001FA884FF000034FEA033949EA12592B
:102DD0004FEA023840EA080041EA09017A894FF0D7
:102DE00000031D0645EA1225140640EA040241EAE2
:102DF0000503F968C1E90023FB6818461437BD468E
:102E0000BDE8B003704700BF80B483B000AF786006
:102E10007B68D3E900231346C3F30B0318460C3732
:102E2000BD465DF8047B7047B0B483B000AF7860F6
:102E30007968D1E9004508484FF0000100EA040034
:102E400001EA0501020B42EA01520B0B1346184638
:102E50000C37BD46B0BC704700F0FF00B0B483B083
:102E600000AF78607968D1E900454FF07F404FF0BE
:102E70000F0100EA040001EA0501020E42EA012204
:102E80000B0E134618460C37BD46B0BC704700BF4A
:102E900090B585B000AFF860B9607A60BB6803F0A8
:102EA0000103002B3ED1F968BA6813465B00134456
:102EB0009B00002B00DA0733DB100846194600F0B0
:102EC0005BF903467A68D2B21A70F968BA68134699
:102ED0005B0013449B00002B00DA0733DB10013347
:102EE0000846194600F048F90446F968BA681346DE
:102EF0005B0013449B00002B00DA0733DB10013327
:102F00000846194600F038F903461B7823F00F03F2
:102F1000DAB27B6803F470631B0ADBB21343DBB2E3
:102F200023703EE0F968BA6813465B0013449B00C7
:102F3000002B00DA0733DB100846194600F01CF9B5
:102F40000446F968BA6813465B0013449B00002BE3
:102F500000DA0733DB100846194600F00DF9034686
:102F60001B7803F00F03DAB27B68DBB21B01DBB224
:102F70001343DBB22370F968BA6813465B0013444D
:102F80009B00002B00DA0733DB100133084619469B
:102F900000F0F2F803467A6802F47F621209D2B2B6
:102FA0001A701437BD4690BD90B585B000AFF8607B
:102FB000B960C7E90023BA6813465B009C183B461A
:102FC0001846FFF721FF0346F86821461A46FFF727
:102FD0005FFFBA6813465B0013445C1C3B4618460F
:102FE000FFF722FF0346F86821461A46FFF750FF15
:102FF000BA6813465B0013449C1C3B461846FFF717
:103000002DFF0346F86821461A46FFF741FF1437A3
:10301000BD4690BD80B400AF20231846BD465DF884
:10302000047B704780B582B000AF786039607A6801
:103030003B6810461946FFF76BF9034618460837F8
:10304000BD4680BD80B400AF48231846BD465DF83C
:10305000047B704780B582B000AF786039607A68D1
:103060003B68111D1A464823084611461A4602F0CD
:10307000CDFA0837BD4680BD80B483B000AF78601C
:1030800039607B683A68DA640C37BD465DF8047BCA
:10309000704700BF80B582B000AF78603960786853
:1030A00000F05EF80346002B14BF00230123DBB2BF
:1030B000002B22D07A683B6802F588711A464FF4DB
:1030C0002253084611461A4602F0A0FA7B6803F51F
:1030D000265310333A6819464FF4225308461146D6
:1030E0001A4602F093FA7B681A1D7B6803F5887311
:1030F00010461946FFF7C0FF16E0786800F030F878
:103100000346012B14BF00230123DBB2002B0BD09D
:103110007A683B6802F588711A464FF422530846D4
:1031200011461A4602F072FA0837BD4680BD00BF4C
:1031300080B582B000AF78603960786800F010F830
:1031400002463B689A4214BF00230123DBB2002BE6
:1031500000D002E07B683A681A600837BD4680BD3F
:1031600080B483B000AF78607B681B6818460C376A
:10317000BD465DF8047B704780B582B000AF7860D3
:1031800039607B6818463968FFF790F8034618469F
:103190000837BD4680BD00BF80B483B000AF786003
:1031A000002318460C37BD465DF8047B704700BF0E
:1031B00090B58BB000AF78607B6800225A7007F141
:1031C00008031846002100224FF47D63FFF7EEFD4F
:1031D0007968D7E90223C1E9022307F110031846F1
:1031E000002140F6FF720023FFF7E0FD7968D7E980
:1031F0000423C1E9042307F11803184640F6FF71C0
:1032000000220023FFF7D2FD7968D7E90623C1E940
:10321000062307F120031846002100220023FFF7B0
:10322000C5FD7968D7E90823C1E908230020FEF726
:10323000A7FB0346002B14BF00230123DBB2002BA6
:103240000DD00A48FEF702F909480021FEF75AFBA3
:103250007A68074B02F128040FCB84E80F0007209F
:10326000FEF74EFA2C37BD4690BD00BF58A40008AB
:10327000AC5D002090B583B000AF78607B681B78B0
:1032800083F00103DBB2002B32D01B4B1A787B6832
:1032900093F828309A4209D0786800F0A9F97A6842
:1032A000154B02F128040FCB84E80F00124B1A795A
:1032B0007B6893F82C309A4209D0786800F036F990
:1032C0007A680D4B02F128040FCB84E80F000A4BFB
:1032D0005A797B6893F82D309A4209D0786800F0CB
:1032E000ADF87A68044B02F128040FCB84E80F0094
:1032F0000C37BD4690BD00BFAC5D002090B58BB0D3
:1033000000AFF860C7E9002300237B621EE00023C2
:103310003B620DE0F868796AFFF784FE03461846C1
:10332000396AD7E90023FFF73FFE3B6A01333B626E
:103330003C6AFFF76FFE03469C420CBF002301234B
:10334000DBB2002BE6D17B6A01337B627C6AFFF73C
:1033500079FE03469C420CBF00230123DBB2002B05
:10336000D5D107F110031846002100220023FFF7F2
:103370001DFD0023FB6122E00023BB6119E0FA6917
:103380001346DB001344DB00104A82FB03121A448D
:103390005211DB17D31AF8681946FFF743FE0346AC
:1033A0001846B969D7E90423FFF7FEFDBB6901336D
:1033B000BB61BB69042BE2D1FB690133FB61FB6993
:1033C0000C2BD9D12C37BD4690BD00BF8988888889
:1033D00080B582B000AF7860FEF7F8FE034618466D
:1033E00000F0BEF902467B681046D3E90223FFF7DE
:1033F00085FFFEF7EBFE0346184600F085F9FEF761
:10340000E5FE0346184600F0ABF902467B6810461D
:10341000D3E90223FFF772FF7B6800221A70083796
:10342000BD4680BD80B483B000AF78607B68012268
:103430001A700C37BD465DF8047B704790B587B0B5
:1034400000AF7860FEF7C2FE0346184600F088F928
:1034500038617B6893F82D20314BA3FB0213D90808
:103460000B465B000B449B00D31ADBB21A46134693
:10347000DB001344DB002B4A82FB03125210DB17E4
:10348000D31AFB60284B5A79254BA3FB0213D908AA
:103490000B465B000B449B00D31ADBB21A46134663
:1034A000DB001344DB001F4A82FB03125210DB17C0
:1034B000D31ABB60FFF7AEFD024613465B00134410
:1034C0009B087B611AE03869F968FEF7D5FD024672
:1034D0007B6810467969D3E90223FFF765FD3869F7
:1034E000B968FEF7C9FD02467B6810467969D3E9E1
:1034F0000423FFF759FD7B6901337B617C69FFF78A
:1035000089FD03469C420CBF00230123DBB2002B44
:10351000D9D17B6801225A701C37BD4690BD00BFCF
:10352000ABAAAAAAABAAAA2AAC5D002090B587B024
:1035300000AF7860FEF74AFE0346184600F010F927
:1035400038617B6893F82C301A461346DB0013442D
:10355000DB00254A82FB03121A445211DB17D31AEF
:10356000FB60224B1B791A461346DB001344DB0039
:103570001D4A82FB03121A445211DB17D31ABB6097
:10358000FFF748FD03465B009B087B611AE0386942
:10359000F968FEF771FD02467B6810467969D3E948
:1035A0000223FFF701FD3869B968FEF765FD0246A1
:1035B0007B6810467969D3E90623FFF7F5FC7B6940
:1035C00001337B617C69FFF725FD03469C420CBFFC
:1035D00000230123DBB2002BD9D17B6801225A7072
:1035E0001C37BD4690BD00BF89888888AC5D00202F
:1035F00090B587B000AF7860FEF7E8FD0346184647
:1036000000F0AEF838617B6893F828301A4613460C
:10361000DB001344DB00244A82FB03121A445211DC
:10362000DB17D31AFB60214B1B781A461346DB00CD
:103630001344DB001C4A82FB03121A445211DB17AD
:10364000D31ABB60FFF7E6FC03469B087B611AE0D8
:103650003869F968FEF710FD02467B681046796903
:10366000D3E90223FFF7A0FC3869B968FEF704FD2F
:1036700002467B6810467969D3E90823FFF794FC7A
:103680007B6901337B617C69FFF7C4FC03469C4284
:103690000CBF00230123DBB2002BD9D17B680122B0
:1036A0005A701C37BD4690BD89888888AC5D002063
:1036B00080B582B000AFFDF7AFFC78607868FDF7A9
:1036C00087FC09480021FEF71DF9074B5B79194675
:1036D000054B1B791A46044B1B78044802F080F80E
:1036E0000837BD4680BD00BFAC5D00206CA400085B
:1036F00080B483B000AF78607B68DB6C18460C3711
:10370000BD465DF8047B704780B582B000AF78603D
:103710007B6804331846FFF7EBFF02467B6803F52E
:1037200088739A4214BF00230123DBB2002B0AD016
:103730007B681A1D7B6803F5265310331046194623
:10374000FFF79AFC08E07B681A1D7B6803F5887315
:1037500010461946FFF790FC0837BD4680BD00BFF4
:1037600080B582B000AF78607B6804331846FFF7FD
:10377000BFFF02467B6803F588739A4204D17B68D9
:1037800003F52653103302E07B6803F5887318466F
:103790000837BD4680BD00BF80B483B000AF7860FD
:1037A000002318460C37BD465DF8047B704700BF08
:1037B00080B586B000AF04200121FCF72DFF4FF447
:1037C00080400121FCF740FF00233B750023BB75BF
:1037D0004FF480533B610023FB7503237B7507F196
:1037E000100312481946FCF735FE02200C21FDF7A4
:1037F000F9F94FF48053BB600123BB7300233B7383
:1038000010237B7307F108031846FCF7C5FD282336
:103810003B7100237B710123BB710123FB713B1DB5
:103820001846FCF749FD1837BD4680BD0008024028
:1038300080B584B000AF08200121FCF7F9FE3C23DD
:10384000BB604FF4DC73BB800023BB810023FB8093
:103850000023BB730C4801210122FDF749FA3B1DEF
:1038600009481946FDF7D6F932233B700123FB7056
:1038700000237B700023BB703B461846FCF71CFD01
:103880001037BD4680BD00BF000C004080B582B03F
:1038900000AF78607B684FF4DC721A60FFF788FF36
:1038A000FFF7C6FF0837BD4680BD00BF80B582B0B8
:1038B00000AF786003480121FDF70CFA0837BD46D8
:1038C00080BD00BF000C004080B582B000AF7860C2
:1038D00005480021FDF7FEF903480021FDF7ECF94A
:1038E0000837BD4680BD00BF000C004090B583B0D6
:1038F00000AF16480121FDF705FA0346002B0CBF67
:1039000000230123DBB2002B1CD0FEF75FFC034633
:103910001846FEF77BFC78600C480121FDF7FEF9A4
:10392000786800F0E5F803461C46FFF78BFB03467A
:103930009C422CBF00230123DBB2002B02D078680D
:10394000FEF7D0F90C37BD4690BD00BF000C00401B
:1039500090B585B000AF4FF48050FCF767FD03468B
:10396000002B0CBF00230123DBB2002B4ED0FEF74F
:103970002DFC0346184600F0C7F8F860FEF726FC59
:1039800003461846FEF742FCB860FEF71FFC0346EC
:10399000184600F0C5F878604FF48050FCF754FDED
:1039A000B86800F0A5F803461C46FFF74BFB03463A
:1039B000E31A3B603B680F2B10DC3B6813F10F0FE1
:1039C0000CDB3B68002B03DDF86800F023F805E012
:1039D0003B68002B02DAF86800F032F8786800F0F3
:1039E00053F80346002B08D0FEF7F0FB03461846B9
:1039F000FFF78AFE786800F05FF8F86800F036F8A4
:103A0000B86800F065F8B868FEF76CF91437BD4681
:103A100090BD00BF80B582B000AF78607B681B6846
:103A20009A1F7B681A607B681B689BB20348194623
:103A3000FDF744F90837BD4680BD00BF000C0040CB
:103A400080B582B000AF78607B681B689A1D7B6888
:103A50001A607B681B689BB203481946FDF72EF974
:103A60000837BD4680BD00BF000C004080B582B065
:103A700000AF786003480021FDF71EF90837BD4606
:103A800080BD00BF000C004080B483B000AF786000
:103A90007B685B78002B08D07B681B7883F0010380
:103AA000DBB2002B01D0012300E0002318460C37C5
:103AB000BD465DF8047B704780B483B000AF78608A
:103AC0007B6800225A700C37BD465DF8047B704756
:103AD00080B582B000AF7860044801F095FE7B6845
:103AE00000221A650837BD4680BD00BF98A40008B3
:103AF00080B483B000AF78607B681B6D18460C37CC
:103B0000BD465DF8047B704780B483B000AF786039
:103B10007B68903318460C37BD465DF8047B7047D0
:103B200080B483B000AF78607B68583318460C3798
:103B3000BD465DF8047B704780B483B000AF786009
:103B4000002318460C37BD465DF8047B704700BF64
:103B500080B586B000AF78607B6800221A6107F1FB
:103B600008031846002100220023FFF71FF9796897
:103B7000D7E90223C1E9002307F110031846FF210A
:103B800000220023FFF712F97968D7E90423C1E97D
:103B900002231837BD4680BD80B58CB000AFF860F9
:103BA0007A603B600B46FB72FB7A303B7B62224AB9
:103BB0007B6ADB0013445A68204B13443B620023AA
:103BC000FB617B68BB6100237B610023FB622CE00F
:103BD0000023BB6223E03A68FB6A9A4219D1FB6A70
:103BE0003A6A13441B781A46BB6A42FA03F303F09D
:103BF0000103002B0DD07A68BB691344F86819469D
:103C0000FEF73AFA03461846F96AD7E90E23FFF79A
:103C1000CBF9BB6A0133BB627B6801337B60BB6A53
:103C2000082BD8D1FB6A0133FB62FB6A092BCFD189
:103C30003037BD4680BD00BF0CA60008C8A40008F0
:103C400090B58BB002AFF860B9607A600023FB6179
:103C50001DE00023BB610DE0F868F969FEF70CFA7E
:103C600003461846B969D7E90C23FFF79DF9BB69EC
:103C70000133BB61FFF7CEF90346002B0CBF0023D5
:103C80000123DBB2002BE7D1FB690133FB61FC6947
:103C9000FFF7D8F903469C420CBF00230123DBB297
:103CA000002BD6D100233B6100237B6112E03B69EE
:103CB000B868194600F05EF803461978D7E90E2374
:103CC000CDE90023F8687A690023FFF765FF7B6977
:103CD00009337B613A697B689A4207D07C69FFF7B8
:103CE000B1F903469C4201D0012300E00023002BE0
:103CF000DDD12437BD4690BDB0B588B004AFF860C3
:103D0000B9607A60FA68BB6802F114041D4628683D
:103D10006968AA68EB680FC428692060AA8AAB7D2D
:103D2000A280A371FEF752FA03461846FFF718FD6A
:103D3000FB6803F11401FB68D3E90023CDE90023FC
:103D4000FB68D3E90223CDE902237A68FFF778FF05
:103D50001037BD46B0BD00BF80B483B000AF7860FF
:103D600039607A683B68134418460C37BD465DF8E5
:103D7000047B704780B582B000AF786039607B68A3
:103D800018463968FFF7E8FF034618460837BD466E
:103D900080BD00BF80B483B000AF786000231846B8
:103DA0000C37BD465DF8047B704700BF90B585B009
:103DB00000AF786090B06B461F335B095C017B6895
:103DC00058331846FFF7F4F9FDF726F9F860F8685C
:103DD000FDF7E8F87B6804331846002100F076F818
:103DE0007B6804331846FDF7FBFF7B6804331846F5
:103DF000012100F06BF87B6890331846FFF746FD11
:103E00007B6890331846FFF751FDF868214600F0B3
:103E100043F80346002B31D0F8682146FDF7E8F857
:103E20002378002B14D17868FFF79AF90346002B0A
:103E30000CBF00230123DBB2002B1FD078680021C8
:103E4000FFF776F97B6858331846FFF7C1FA15E09B
:103E50002378012B12D178680121FFF769F97B687B
:103E600058331846FFF7DEFA7B6803F19801637850
:103E7000A21C084611461A46FFF73EFF7868FFF776
:103E80006FF90346002B00D0BFE77B685833184614
:103E9000FFF7F0F900BFB8E780B582B000AF7860F7
:103EA00039607B681B68002B0BDD7B68203338682A
:103EB0001946202201F0AAFB7868FDF7D9F8012302
:103EC00000E0002318460837BD4680BD80B582B0AB
:103ED00000AF786039607B681A683B689A4200D10D
:103EE00014E07B681B68002B01D10A4A00E00A4AF3
:103EF0003B68002B01D1074B00E0074B07481146F8
:103F00001A4601F06DFC7B683A681A600837BD46B6
:103F100080BD00BF68A8000870A8000878A8000845
:103F20000649074A074B9A42BEBF51F8040B42F8B4
:103F3000040BF8E7044880470448004738AA000803
:103F400000000020500A002029400008DD01000880
:103F50003349344A002301E041F8043B9142FBD34A
:103F6000FEF770FEFEE7FEE7FEE7FEE7FEE7FEE790
:103F7000FEE7FEE7FEE7FEE7FEE7FEE7FEE7FEE719
:103F8000FEE7FEE7FEE7FEE7FEE7FEE7FEE7FEE709
:103F9000FEE7FEE7FEE7FEE7FEE7FEE7FEE7FEE7F9
:103FA000FEE7FEE7FEE7FEE7FEE7FEE7FEE7FEE7E9
:103FB000FEE7FEE7FEE7FEE7FEE7FEE7FEE7FEE7D9
:103FC000FEE7FEE7FEE7FEE7FEE7FEE7FEE7FEE7C9
:103FD000FEE7FEE7FEE7FEE7FEE7FEE7FEE7FEE7B9
:103FE000FEE7FEE7FEE7FEE7FEE7FEE7FEE7FEE7A9
:103FF000FEE7FEE7FEE7FEE7FEE7FEE7FEE7FEE799
:10400000FEE7FEE7FEE7FEE7FEE7FEE7FEE7FEE788
:10401000FEE7FEE7FEE7FEE7FEE7FEE7FEE700005D
:10402000600A0020E45E0020394A3A4BD2F888103A
:10403000394841F47001C2F888101968002241F033
:10404000010119609A60196821F0847121F48031AE
:1040500019605860196882B021F480211960DA6013
:10406000009201921A6842F480321A601A4603E004
:10407000009BB3F5C06F09D0136803F400330193BC
:10408000009B01330093019B002BF1D0214B1B6857
:1040900013F4003318BF01230193019B012B05D0BA
:1040A0001B4B4FF000629A6002B07047194B1B4ADD
:1040B000186C1B4940F080501864106840F4804030
:1040C00010609A689A609A6842F400429A609A680E
:1040D00042F4A0529A6059601A6842F080721A60E5
:1040E00019460B680B4A9B01FBD50E4B40F205713C
:1040F0001960936823F003039360936843F002030D
:104100009360936803F00C03082BFAD1C8E700BF53
:1041100000ED00E000380240103000240070004044
:1041200008544007003C0240164B9A6802F00C020B
:10413000042A24D0082A0AD0134A124B134899683B
:10414000134BC1F30311415CCA401A6070475868B1
:1041500059685B6842024CBF0E4A0B4A01F03F01AE
:10416000C3F38813B2FBF1F202FB03F2054B5B6869
:10417000C3F3014301335B00B2FBF3F2DDE7054A11
:10418000DBE700BF003802400024F400900100206B
:10419000A001002000127A002DE9F04784B0DFF87A
:1041A0009480CDF804800326002303960124029313
:1041B00001AD20462946ABBE81461B4FCDF8048099
:1041C00004230396C7F80090029320462946ABBE0D
:1041D0008246DFF86490CDF8048008230396C9F87E
:1041E00000A0029320462946ABBE04460F4B104860
:1041F0001C60621C09BFD9F80040D9F800501C604F
:10420000254600234FF0FF31C1500833A02B084A48
:10421000FAD13B6813600023956014615360D3604A
:10422000536104B0BDE8F087C05D0020C85D002088
:10423000CC5D0020A0A80008BC5D0020F0B51E4B9E
:104240001B6885B004460F4616460BB19A6BCAB17F
:10425000132C1CD8194D55F834305A1C17D005EBC7
:10426000C404029701930396062501AF28463946F8
:10427000ABBE05466B1C12D06368701B03446360C1
:1042800005B0F0BD184600F033FE132CE2D900F063
:1042900013FE092303604FF0FF3005B0F0BD00F0BE
:1042A0000BFE13260446002730463946ABBE0646B1
:1042B0002846266005B0F0BDD0050020CC5D00206A
:1042C0002DE9F043364B1B6883B005460C46174674
:1042D00013B19A6B002A3BD0132D3ED8314E56F8BD
:1042E00035305A1C39D0022F06EBC50829D8012FCA
:1042F00023D0022F13D06F4656F835300A258DE8AB
:10430000180028463946ABBE05466B1C2ED0002D42
:1043100027DBC8F80440204603B0BDE8F08302AFB5
:104320004FF00C0947F8083D48463946ABBE814678
:10433000B9F1FF3F28D04C44DEE7D8F80430E41848
:10434000D9D500F0B9FD162303604FF0FF30E3E745
:10435000184600F0CDFD132DC0D900F0ADFD0923A6
:1043600003604FF0FF3003B0BDE8F08300F0A4FD20
:1043700013260446002730463946ABBE064628467B
:10438000266003B0BDE8F08300F096FD13250446D7
:10439000002628463146ABBE054625604846BBE7A9
:1043A000D0050020CC5D0020F0B5274B1B6885B000
:1043B00004460F4615460BB19A6BEAB1132C20D870
:1043C000224E56F834305A1C1BD006EBC406029716
:1043D00001930395052401AF20463946ABBE044640
:1043E000631C16D0002C10DB7368281B0344A54205
:1043F00073601BD005B0F0BD184600F079FD132C9A
:10440000DED900F059FD092303604FF0FF3005B0FD
:10441000F0BD00F051FD1326054600273046394611
:10442000ABBE064620462E6005B0F0BD00F044FD50
:1044300013260546002430462146ABBE06462046DC
:104440002E6005B0F0BD00BFD0050020CC5D00207F
:10445000F0B5264B1B6883B004460BB19A6B52B380
:10446000132C2DD8224D55F83430013328D0631E3B
:10447000012B16D902AE55F8343046F8043D022718
:1044800038463146ABBE0646731C21D036B94FF0D4
:10449000FF3345F83430304603B0F0BD304603B04A
:1044A000F0BDAA682B699A42E4D14FF0FF3345F87A
:1044B00034300020F0E7184600F01AFD132CD1D953
:1044C00000F0FAFC092303604FF0FF3003B0F0BDA9
:1044D00000F0F2FC13250446002728463946ABBEFF
:1044E00005463046256003B0F0BD00BFD005002072
:1044F000CC5D002008B50A4B1A6801466AB1104627
:10450000421869468A4201D81A6008BD00F0D4FCFE
:104510000C2303604FF0FF3008BD02481860EFE73E
:10452000C45D0020E85E0020F8B50C460546002179
:1045300020463C2201F004F91A4B186808B1836B3D
:10454000CBB1132D1BD8184850F83530013316D095
:1045500063684FF4806243F4005300EBC505636069
:10456000E2620C2630462946ABBE05466B1C0DD0D8
:1045700025610020F8BD00F0BBFC132DE3D900F04D
:104580009BFC092303604FF0FF30F8BD00F094FC62
:1045900013260446002730463946ABBE0646266041
:1045A0002846F8BDD0050020CC5D0020174B1B68C5
:1045B00070B504460BB19A6BEAB1132C20D814489D
:1045C00050F8343001331BD000EBC40409252846D1
:1045D0002146ABBE0446012C0BD000F06DFC132627
:1045E0000546002430462146ABBE06462E602046D6
:1045F00070BD204670BD184600F07AFC132CDED941
:1046000000F05AFC09230360002070BDD005002093
:10461000CC5D002081F0004102E000BF83F0004348
:1046200030B54FEA41044FEA430594EA050F08BF4D
:1046300090EA020F1FBF54EA000C55EA020C7FEA11
:10464000645C7FEA655C00F0E2804FEA5454D4EB8E
:104650005555B8BF6D420CDD2C4480EA020281EA58
:10466000030382EA000083EA010180EA020281EA90
:104670000303362D88BF30BD11F0004F4FEA0131E2
:104680004FF4801C4CEA113102D0404261EB4101F1
:1046900013F0004F4FEA03334CEA133302D0524277
:1046A00063EB430394EA050F00F0A780A4F1010433
:1046B000D5F1200E0DDB02FA0EFC22FA05F280186D
:1046C00041F1000103FA0EF2801843FA05F3594153
:1046D0000EE0A5F120050EF1200E012A03FA0EFCD2
:1046E00028BF4CF0020C43FA05F3C01851EBE371FC
:1046F00001F0004507D54FF0000EDCF1000C7EEB19
:1047000000006EEB0101B1F5801F1BD3B1F5001F56
:104710000CD349085FEA30004FEA3C0C04F1010475
:104720004FEA445212F5800F80F09A80BCF1004F9E
:1047300008BF5FEA500C50F1000041EB045141EA20
:10474000050130BD5FEA4C0C404141EB010111F421
:10475000801FA4F10104E9D191F0000F04BF0146CC
:104760000020B1FA81F308BF2033A3F10B03B3F1AA
:1047700020020CDA0C3208DD02F1140CC2F10C023A
:1047800001FA0CF021FA02F10CE002F11402D8BF98
:10479000C2F1200C01FA02F120FA0CFCDCBF41EA64
:1047A0000C019040E41AA2BF01EB0451294330BD33
:1047B0006FEA04041F3C1CDA0C340EDC04F1140410
:1047C000C4F1200220FA04F001FA02F340EA0300E7
:1047D00021FA04F345EA030130BDC4F10C04C4F12D
:1047E000200220FA02F001FA04F340EA030029460D
:1047F00030BD21FA04F0294630BD94F0000F83F457
:10480000801306BF81F480110134013D4EE77FEA39
:10481000645C18BF7FEA655C29D094EA050F08BF85
:1048200090EA020F05D054EA000C04BF1946104666
:1048300030BD91EA030F1EBF0021002030BD5FEAAA
:10484000545C05D14000494128BF41F0004130BDD2
:1048500014F580043CBF01F5801130BD01F0004526
:1048600045F0FE4141F470014FF0000030BD7FEA99
:10487000645C1ABF194610467FEA655C1CBF0B4694
:10488000024650EA013406BF52EA033591EA030FAB
:1048900041F4002130BD00BF90F0000F04BF0021A3
:1048A000704730B54FF4806404F132044FF00005D6
:1048B0004FF0000150E700BF90F0000F04BF00214F
:1048C000704730B54FF4806404F1320410F00045B5
:1048D00048BF40424FF000013EE700BF42004FEAB0
:1048E000E2014FEA31014FEA02701FBF12F07F432D
:1048F00093F07F4F81F06051704792F0000F14BF2A
:1049000093F07F4F704730B54FF4607401F000456D
:1049100021F0004120E700BF50EA010208BF7047C4
:1049200030B54FF000050AE050EA010208BF7047B9
:1049300030B511F0004502D5404261EB41014FF422
:10494000806404F132045FEA915C3FF4DCAE4FF026
:1049500003025FEADC0C18BF03325FEADC0C18BF0D
:10496000033202EBDC02C2F1200300FA03FC20FA5E
:1049700002F001FA03FE40EA0E0021FA02F11444AB
:10498000C1E600BF70B54FF0FF0C4CF4E06C1CEAC0
:1049900011541DBF1CEA135594EA0C0F95EA0C0F35
:1049A00000F0DEF82C4481EA030621EA4C5123EAA8
:1049B0004C5350EA013518BF52EA033541F48011D7
:1049C00043F4801338D0A0FB02CE4FF00005E1FB8A
:1049D00002E506F00042E0FB03E54FF00006E1FBD4
:1049E00003569CF0000F18BF4EF0010EA4F1FF0417
:1049F000B6F5007F64F5407404D25FEA4E0E6D4157
:104A000046EB060642EAC62141EA55514FEAC52067
:104A100040EA5E504FEACE2EB4F1FD0C88BFBCF5E3
:104A2000E06F1ED8BEF1004F08BF5FEA500E50F194
:104A3000000041EB045170BD06F0004646EA01015A
:104A400040EA020081EA0301B4EB5C04C2BFD4EB8C
:104A50000C0541EA045170BD41F480114FF0000E85
:104A6000013C00F3AB8014F1360FDEBF002001F0F3
:104A7000004170BDC4F10004203C35DA0C341BDC6D
:104A800004F11404C4F1200500FA05F320FA04F03F
:104A900001FA05F240EA020001F0004221F0004173
:104AA00010EBD37021FA04F642EB06015EEA430EE6
:104AB00008BF20EAD37070BDC4F10C04C4F1200516
:104AC00000FA04F320FA05F001FA04F240EA0200C9
:104AD00001F0004110EBD37041F100015EEA430E9A
:104AE00008BF20EAD37070BDC4F1200500FA05F2BA
:104AF0004EEA020E20FA04F301FA05F243EA020339
:104B000021FA04F001F0004121FA04F220EA020047
:104B100000EBD3705EEA430E08BF20EAD37070BD8D
:104B200094F0000F0FD101F00046400041EB01016D
:104B300011F4801F08BF013CF7D041EA060195F04F
:104B4000000F18BF704703F00046520043EB030309
:104B500013F4801F08BF013DF7D043EA06037047F6
:104B600094EA0C0F0CEA135518BF95EA0C0F0CD001
:104B700050EA410618BF52EA4306D1D181EA030147
:104B800001F000414FF0000070BD50EA410606BF41
:104B90001046194652EA430619D094EA0C0F02D186
:104BA00050EA013613D195EA0C0F05D152EA0336CB
:104BB0001CBF104619460AD181EA030101F00041E9
:104BC00041F0FE4141F470014FF0000070BD41F032
:104BD000FE4141F4780170BD70B54FF0FF0C4CF40C
:104BE000E06C1CEA11541DBF1CEA135594EA0C0F2B
:104BF00095EA0C0F00F0A7F8A4EB050481EA030E78
:104C000052EA03354FEA013100F088804FEA03335E
:104C10004FF0805545EA131343EA12634FEA02222C
:104C200045EA111545EA10654FEA00260EF00041ED
:104C30009D4208BF964244F1FD0404F5407402D23F
:104C40005B084FEA3202B61A65EB03055B084FEAD0
:104C500032024FF480104FF4002CB6EB020E75EBCD
:104C6000030E22BFB61A754640EA0C005B084FEAF5
:104C70003202B6EB020E75EB030E22BFB61A754672
:104C800040EA5C005B084FEA3202B6EB020E75EBBD
:104C9000030E22BFB61A754640EA9C005B084FEA35
:104CA0003202B6EB020E75EB030E22BFB61A754642
:104CB00040EADC0055EA060E18D04FEA051545EA31
:104CC00016754FEA06164FEAC30343EA52734FEADA
:104CD000C2025FEA1C1CC0D111F4801F0BD141EA53
:104CE00000014FF000004FF0004CB6E711F4801FB8
:104CF00004BF01430020B4F1FD0C88BFBCF5E06F98
:104D00003FF6AFAEB5EB030C04BFB6EB020C5FEAA7
:104D1000500C50F1000041EB045170BD0EF0004EFC
:104D20004EEA113114EB5C04C2BFD4EB0C0541EA2E
:104D3000045170BD41F480114FF0000E013C90E62B
:104D400045EA060E8DE60CEA135594EA0C0F08BFEF
:104D500095EA0C0F3FF43BAF94EA0C0F0AD150EAEE
:104D600001347FF434AF95EA0C0F7FF425AF104681
:104D700019462CE795EA0C0F06D152EA03353FF4A9
:104D8000FDAE1046194622E750EA410618BF52EA26
:104D900043067FF4C5AE50EA41047FF40DAF52EAFA
:104DA00043057FF4EBAE12E74FF0FF3C06E000BF97
:104DB0004FF0010C02E000BF4FF0010C4DF804CDA4
:104DC0004FEA410C7FEA6C5C4FEA430C18BF7FEA64
:104DD0006C5C1BD001B050EA410C0CBF52EA430C92
:104DE00091EA030F02BF90EA020F0020704710F112
:104DF000000F91EA030F58BF994208BF90422CBFA1
:104E0000D8176FEAE37040F0010070474FEA410C99
:104E10007FEA6C5C02D150EA013C07D14FEA430CB7
:104E20007FEA6C5CD6D152EA033CD3D05DF8040B28
:104E3000704700BF8446104662468C46194663465A
:104E400000E000BF01B5FFF7B7FF002848BF10F131
:104E5000000F01BD4DF808EDFFF7F4FF0CBF012076
:104E600000205DF808FB00BF4DF808EDFFF7EAFFF2
:104E700034BF012000205DF808FB00BF4DF808EDAD
:104E8000FFF7E0FF94BF012000205DF808FB00BFA2
:104E90004DF808EDFFF7CEFF94BF012000205DF82C
:104EA00008FB00BF4DF808EDFFF7C4FF34BF012039
:104EB00000205DF808FB00BF014B1868704700BF79
:104EC000D005002008B50021044602F0B1F8044BDB
:104ED0001868C36B03B19847204605F01BFA00BF62
:104EE000A8A80008014900F081B800BF318100087E
:104EF0002DE9F04F846B83B00746002C65D14568DF
:104F00003348F8630423032107F53B72C7F8E41222
:104F1000C7F8E822C7F8E04205F15C00AB812C60DD
:104F20006C60AC606C66EC812C616C61AC6121469C
:104F3000082200F005FCBE68DFF898B0DFF898A002
:104F4000DFF89890DFF89880ED6101230922C5F819
:104F500020B0C5F824A0C5F82890C5F82C802146BB
:104F6000F381B28134607460B460746634617461DA
:104F7000B461082206F15C00019300F0E1FBFD68DA
:104F8000F66112200222C6F820B0C6F824A0C6F8A6
:104F90002890C6F82C802146A881EA812C606C609C
:104FA000AC606C662C616C61AC6105F15C00082240
:104FB00000F0C6FB019BED61C5F820B0C5F824A048
:104FC000C5F82890C5F82C80BB6303B0BDE8F08F0E
:104FD000E54E00088D580008B1580008E95800084F
:104FE0000D590008704700BF704700BF2DE9F04120
:104FF00010F5387788461AD000267D68BC68013DD8
:105000000FD4A389012B05F1FF3506D9B4F90E3071
:105010000133204601D0C04706436B1C04F16804ED
:10502000EFD13F68002FE8D13046BDE8F0813E4621
:105030003046BDE8F08100BF70B50F4E0F4D761BB6
:10504000B61007D0043D0024013455F8043F9847BA
:10505000A642F9D10A4E0B4D761B05F06FF9B6103A
:1050600008D0043D0024013455F8043F9847A64277
:10507000F9D170BD70BD00BF440A0020440A002071
:105080004C0A0020440A0020024B0146186800F038
:105090000BB800BFD0050020024B0146186803F092
:1050A000A5B900BFD00500202DE9F04F01F10B0597
:1050B000162D83B0064628D935F0070528D4A94215
:1050C00026D8304600F088FBB5F5FC7F28D2BD4FCE
:1050D0004FEAD50E07EBCE03DC689C4200F0DF817F
:1050E0006368E268A16823F00303234430465D68E7
:1050F000CA6045F0010591605D6000F06FFB04F14E
:105100000808404603B0BDE8F08F1025A942D8D961
:105110004FF000080C234046336003B0BDE8F08F29
:105120005FEA552E00F08D80BEF1040F00F267811A
:105130004FEA951E0EF1380E4FEA4E01A14F07EBD4
:105140008101CC68A14205D10CE0002B7DDAE46836
:10515000A14207D0626822F00302531B0F2BF4DD3B
:105160000EF1FF3E0EF1010E964B3A6903F1080471
:10517000A24200F08881506820F00300411B0F29F3
:1051800000F36E8100295C611C6170DAB0F5007F6C
:1051900080F04381C10803EBC1004FEAA10C4FF03E
:1051A00001095968D0F80880C2F8088009FA0CFC97
:1051B0004CEA0101D060596082608C46C8F80C202E
:1051C0004FEAAE030121994061455ED81CEA010F08
:1051D00007D12EF0030E49001CEA010F0EF1040E58
:1051E000F9D007EBCE084046F146C368984207D194
:1051F0004CE1002A80F25D81DB68984200F0468134
:105200005A6822F0030AC5EB0A020F2AF1DD98461C
:10521000D3F80CE058F808CF591945F0010942F0CD
:105220000105C3F804903046CCF80CE0CEF808C075
:1052300079613961CC608C604D608A5000F0CEFAA3
:105240005FE77E214FF03F0E78E72244E368506825
:10525000A16840F00105CB6030469960556000F0D0
:10526000BDFA04F10808404603B0BDE8F08F1318FA
:105270003046596841F00101596002F1080800F018
:10528000ADFA404603B0BDE8F08FBC68636823F018
:105290000309A94504D3C5EB09030F2B00F39E8036
:1052A000494B4A4A19681368013305EB010A04EBBC
:1052B000090B00F06E810AF5805A0AF10F0A2AF4F0
:1052C0007F6A2AF00F0A30465146019200F0CCFA6C
:1052D000B0F1FF3F8046019A00F00981834500F25A
:1052E0000381DFF8F4C0DCF80030C3455344CCF848
:1052F000003000F058811268344901321BBFCBEBFB
:10530000080B5B44C1F80080CCF8003018F00703AC
:1053100000F01E81C3F10802C3F5805390440833A6
:10532000C244CAF30B0ACAEB030A51463046CDF811
:1053300004C000F099FA431CDDF804C000F043817A
:10534000C8EB0002524442F00102DCF80030C7F81A
:1053500008805344BC42C8F80420CCF80030DFF881
:1053600078A015D0B9F10F0F40F2F5806168A9F16E
:105370000C0222F0070201F0010EA118052042EAFA
:105380000E0E0F2AC4F804E04860886000F21F8106
:105390000F4ABC6811688B4288BF13600D4A1168C0
:1053A0008B4288BF1360626822F003029542C5EB0E
:1053B000020301D80F2B11DC304600F00FFA4FF03A
:1053C00000089EE6D4050020745E0020E00900205D
:1053D000705E00206C5E0020785E0020621943F051
:1053E000010345F0010565603046BA60536000F086
:1053F000F5F904F10808404603B0BDE8F08FBEF1AE
:10540000140F67D9BEF1540F00F298804FEA153E91
:105410000EF16E0E4FEA4E0190E6430A042B5ED960
:10542000142B00F2B98003F15B014FEA410C07EB4A
:105430008C0CDFF8D481DCF80830634500F09180F3
:10544000596821F00301884202D29B689C45F7D13C
:10545000D968D7F804C0D16093608A60DA60AFE69B
:10546000571945F0010E41F00105C2F804E030463D
:105470005F611F61FC60BC607D60795002F10808CB
:1054800000F0ACF93DE6D3F804C099E609F1010952
:1054900019F0030F00F108007FF4A7AE30E004F12B
:1054A00008036469A34208BF0EF1020E3FF45CAE2C
:1054B00016E69A449846DAF80410DB6858F8082F84
:1054C00041F00101CAF804103046D3609A6000F040
:1054D00085F916E60EF15B0E4FEA4E012EE68109C4
:1054E00038314FEA410CA2E7BC423FF4FAAEBC6847
:1054F000626822F0030259E7D8F8008098450AD183
:105500001EF0030FA8F108030EF1FF3EF4D12CEAC0
:1055100001037B609C46490061453FF6B6AE002919
:105520003FF4B3AE1CEA010FCE467FF45AAE4900F9
:105530001CEA010F0EF1040EF9D052E6BEF5AA7F67
:105540001CD84FEAD53E0EF1770E4FEA4E01F5E535
:105550004FF48053E4E60123C8F8043044460022A7
:1055600024E788104FF0010CD8F804100CFA00F072
:105570000143C8F804108C4619466CE740F25453B6
:105580009E451CD84FEA954E0EF17C0E4FEA4E0117
:10559000D4E50AF1100A96E6542B20D8010B6E319F
:1055A0004FEA410C43E7CBF30B0100297FF4A3AE94
:1055B0000AEB0901BA6841F001015160E8E6FC21FB
:1055C0004FF07E0EBAE501224FF0000ABDE604F16D
:1055D0000801304602F00AFFDAF80030D8E6B3F5E9
:1055E000AA7F04D8C10B77314FEA410C1FE740F284
:1055F00054518B4204D8810C7C314FEA410C16E7A0
:105600004FF0FC0C7E2112E7D4050020844641EACD
:10561000000313F003036DD1403A41D351F8043B2A
:1056200040F8043B51F8043B40F8043B51F8043B7C
:1056300040F8043B51F8043B40F8043B51F8043B6C
:1056400040F8043B51F8043B40F8043B51F8043B5C
:1056500040F8043B51F8043B40F8043B51F8043B4C
:1056600040F8043B51F8043B40F8043B51F8043B3C
:1056700040F8043B51F8043B40F8043B51F8043B2C
:1056800040F8043B51F8043B40F8043B51F8043B1C
:1056900040F8043B51F8043B40F8043B403ABDD28B
:1056A000303211D351F8043B40F8043B51F8043B2D
:1056B00040F8043B51F8043B40F8043B51F8043BEC
:1056C00040F8043B103AEDD20C3205D351F8043BBC
:1056D00040F8043B043AF9D2043208D0D2071CBF88
:1056E00011F8013B00F8013B01D30B8803806046B1
:1056F000704700BF082A13D38B078DD010F0030327
:105700008AD0C3F10403D21ADB071CBF11F8013B96
:1057100000F8013B80D331F8023B20F8023B7BE7E5
:10572000043AD9D3013A11F8013B00F8013BF9D210
:105730000B7803704B7843708B78837060467047AA
:10574000F0B4840745D0541E002A40D0CDB20346A1
:1057500003E0621E002C3AD0144603F8015B9A075E
:10576000F7D1032C2AD9CDB245EA05250F2C45EAFD
:10577000054515D9A4F110073F0903F1100606EB02
:1057800007161A46156055609560D5601032B24212
:10579000F8D104F00F040137032C03EB07130DD9E4
:1057A0001E462246043A032A46F8045BFAD8221F12
:1057B00022F003020432134404F003043CB1C9B2E2
:1057C000012C197003D9022C597088BF9970F0BC54
:1057D000704714460346C4E7704700BF704700BFD8
:1057E0000FB400B5074A83B004AB106853F8042B1C
:1057F0008168019300F0C0F803B05DF804EB04B0D9
:10580000704700BFD0050020F0B5154B154F1C6840
:1058100089B0054600F07EF8A16804958B89059053
:10582000022200F1010E012604AD02929A04CDF885
:105830000CE006970796019506D44A6E43F4005390
:1058400022F400528B814A66204601AA02F09CFE97
:1058500000280CBF0A204FF0FF3009B0F0BD00BF98
:10586000D0050020ACA8000838B5074C0023054639
:1058700008462360FEF73EFE431C00D038BD236877
:10588000002BFBD02B6038BDE05E002010B50C462D
:10589000B1F90E1003F048FE002803DB236D03442A
:1058A000236510BDA38923F48053A38110BD00BFDD
:1058B0002DE9F0410C4689891D46CB051646074661
:1058C00006D5B4F90E100022022302F0F7FFA189D9
:1058D00021F48051A1813846B4F90E1032462B468E
:1058E000BDE8F04101F024BB10B50C46B1F90E1033
:1058F00002F0E4FFA389421C0CBF23F4805343F45D
:1059000080539BB218BF2065A38110BDB1F90E1062
:1059100001F050BC20F0030110F00300C0F10000C2
:1059200051F8043B00F1040C4FEACC0C6FF000027C
:105930001CBF22FA0CF213434FF0010C4CEA0C2C62
:105940004CEA0C4CA3EB0C0222EA030212EACC1242
:1059500004BF51F8043B0430F4D013F0FF0F1FBF15
:10596000013013F47F4F013013F47F0F18BF013063
:10597000704700BF000000002DE9F04FC7B01C4683
:1059800089460692099002F095FF00681190FFF792
:10599000C1FF099D14900B941DB1AB6B002B00F05F
:1059A0000A81B9F80C2093B298040AD4D9F864108B
:1059B00042F4005321F40051A9F80C30C9F86410E6
:1059C0009BB2190740F1C180D9F81020002A00F0DD
:1059D000BC8003F01A030A2B00F0C3809FED7A7B92
:1059E0008DED127B002336AC0D9304942A932993FA
:1059F000169315930C9328942646DDF818C09CF84E
:105A00000030002B00F0DB80252B00F0D8800CF15B
:105A1000010202E0252B00F08B801446013223782E
:105A2000002BF7D10698251A85B1299B2A9A06984A
:105A3000306001332A44072B75602A92299300F3C2
:105A4000A38008360C99237829440C91002B00F090
:105A5000A3800023651C94F801808DF878304FF006
:105A6000FF341A460A930593069507942B46013393
:105A7000A8F12001582900F2F783DFE811F03C0279
:105A8000F503F5030803F503F503F503F503F50343
:105A9000F50343023802F5035F003A03F503770389
:105AA0007E037E037E037E037E037E037E037E03EE
:105AB0007E03F503F503F503F503F503F503F5039D
:105AC000F503F503F50358039F03F5039F03F5035F
:105AD000F503F503F5038F03F503F503D803F50389
