:020000040800F2
:1000000000000220F54D00083B4E00083D4E000860
:100010003F4E0008414E0008434E0008000000001B
:10002000000000000000000000000000454E000835
:10003000474E000800000000494E00084B4E0008E3
:100040004F4E0008514E0008534E00087D26000810
:10005000574E0008594E00085B4E00085D4E0008E0
:100060005F4E0008614E0008634E00082D34000802
:100070003D3400084D3400085D3400086D3400083C
:100080007D3400088D340008734E0008754E00085A
:10009000774E0008794E00087B4E00087D4E000820
:1000A0007F4E0008814E0008834E0008854E0008F0
:1000B000F1260008894E00088B4E00088D4E00087E
:1000C0008F4E0008914E0008934E0008954E000890
:1000D000974E0008994E00089B4E0008ED1B000843
:1000E00025480008A9260008A34E0008A54E0008D0
:1000F000A74E0008A94E0008AB4E00089D3400082A
:10010000AF4E0008B14E0008C1470008B54E0008C8
:10011000B74E0008B94E0008BB4E0008BD4E00089F
:10012000AD340008BD340008CD340008DD340008CB
:10013000ED340008C94E0008CB4E0008CD4E000833
:10014000CF4E0008D14E0008D34E0008D54E00080F
:10015000FD3400080D3500081D350008DD4E00088F
:10016000DF4E0008E14E0008E34E0008E54E0008AF
:10017000E74E0008E94E0008EB4E0008ED4E00087F
:10018000EF4E0008F14E000810B5054C237833B946
:10019000044B13B10448AFF300800123237010BD5A
:1001A0002002002000000000B469000808B5064BDA
:1001B0001BB106480649AFF300800648036813B137
:1001C000054B03B1984708BD00000000B469000862
:1001D00024020020100200200000000016202EA1A2
:1001E000ABBE2D480168002901D132490160816808
:1001F000C268002900D08D46002A01D002F5807A1D
:1002000000218B460F462548254A121A05F057FA59
:1002100004F0CCFF152025A1ABBE2449002001B479
:100220000B780131002B15D0202BF9D0222B01D0D7
:10023000272B01D11A0001E02022013902B401303C
:100240000B780131002B05D09A42F9D100224B1EC8
:100250001A70E5E76946020092006A446B469A42CA
:1002600006D9043A14681D6815601C600433F6E76B
:100270006C460725AC43A54604000D00094800283C
:1002800002D00948AFF3008005F0EAF92000290008
:1002900003F042FC05F012F90000002020020020CB
:1002A0007856002000000000000000001000002030
:1002B000FF0000007856002080B485B000AF786061
:1002C0000023FB730023BB730F237B737B68DB78F6
:1002D000002B37D0254BDB68DB4303F4E0631B0ABC
:1002E000FB73FB7BC3F10403BB737A7BFB7B42FA9A
:1002F00003F37B737B685B781A46BB7B02FA03F3DC
:10030000FB737B689A787B7B1340DAB2FB7B1343E9
:10031000FB73FB7B1B01FB73154A7B681B78134443
:10032000FA7B83F80023124B7A6812785209D2B212
:100330007968097801F01F01012000FA01F143F802
:1003400022100EE00A4B7A6812785209D2B279680C
:10035000097801F01F01012000FA01F1203243F871
:1003600022101437BD465DF8047B704700ED00E0B5
:1003700000E100E080B485B000AF78603960002310
:10038000FB607B681B68FB60FA68244B1340FB60D2
:100390003B681A683B68DB681A433B685B691A4331
:1003A0003B689B691A433B68DB691A433B681B6ADD
:1003B0001A433B685B6A1A433B689B6A1A433B6873
:1003C0005B6B1A433B689B6B1343FA681343FB60F8
:1003D0007B68FA681A607B685B69FB60FB6823F0E6
:1003E0000703FB603B68DA6A3B681B6B1343FA68E0
:1003F0001343FB607B68FA685A613B681A697B6843
:100400005A603B685A687B689A603B689A687B6868
:10041000DA601437BD465DF8047B70473F801CF0FE
:1004200080B485B000AF78600023FB60324BFB6086
:100430007B689B79002B4DD02F4B2F4A11687A682F
:100440001268D2430A401A602B4B2B4A51687A68D3
:100450001268D2430A405A607B681B79FA681344D9
:10046000FB60FB68FA6811687A6812680A431A60D0
:10047000214B214A91687A681268D2430A409A60F7
:100480001D4B1D4AD1687A681268D2430A40DA606F
:100490007B685B79102B0ED1174B174A91687A68ED
:1004A00012680A439A60144B134AD1687A6812683A
:1004B0000A43DA601BE0104BFB607B685B79FA68EB
:1004C0001344FB60FB68FA6811687A6812680A4393
:1004D0001A600CE07B681B79FA681344FB60FB68C8
:1004E000FA6811687A681268D2430A401A601437B1
:1004F000BD465DF8047B7047003C014080B485B088
:1005000000AF78600023FB730023BB600C4B1A68BC
:100510007B681340BB600A4B5A697B681340002B11
:1005200005D0BB68002B02D00123FB7301E0002340
:10053000FB73FB7B18461437BD465DF8047B7047A0
:10054000003C014080B483B000AF7860034B7A6810
:100550005A610C37BD465DF8047B7047003C014092
:1005600080B487B000AF7860396000237B610023DE
:100570003B610023FB6000237B6176E07B69012205
:1005800002FA03F33B613B681A683B691340FB6066
:10059000FA683B699A4265D17B681A687B695B009F
:1005A000032101FA03F3DB431A407B681A607B687E
:1005B0001A683B681B7919467B695B0001FA03F3F3
:1005C0001A437B681A603B681B79012B03D03B6898
:1005D0001B79022B2ED17B689A687B695B00032113
:1005E00001FA03F3DB431A407B689A607B689A68E0
:1005F0003B685B7919467B695B0001FA03F31A4398
:100600007B689A607B685A687B699BB2012101FA1A
:1006100003F3DB431A407B685A607B685A683B6887
:100620009B7919467B699BB201FA03F39BB21A438B
:100630007B685A607B68DA687B699BB25B00032148
:1006400001FA03F3DB431A407B68DA607B68DA68FF
:100650003B68DB7919467B695B0001FA03F31A43B7
:100660007B68DA607B6901337B617B690F2B85D9FD
:100670001C37BD465DF8047B704700BF80B483B073
:1006800000AF78600B467B807B687A881A830C37D2
:10069000BD465DF8047B704780B483B000AF7860DE
:1006A0000B467B807B687A885A830C37BD465DF8A1
:1006B000047B704780B483B000AF0346FB71044BEA
:1006C000FA791A600C37BD465DF8047B704700BFAD
:1006D00020000E4280B483B000AF0346FB710C4B88
:1006E00000221A700A4B00221A70FB79012B02D0EB
:1006F000042B04D007E0064B01221A7003E0044BE0
:1007000005221A7000BF0C37BD465DF8047B7047A8
:100710007038024080B483B000AF0346FB71044BD5
:10072000FA791A600C37BD465DF8047B704700BF4C
:10073000800E474280B489B000AF78600023BB616F
:1007400000237B610023FB6102233B610023FB60EC
:100750000223BB60484B9B6803F00C03BB61BB6981
:10076000042B07D0082B09D0002B3FD17B68434ACC
:100770001A603FE07B68424A1A603BE03E4B5B6890
:1007800003F480039B0DFB603B4B5B6803F03F036E
:10079000BB60FB68002B0DD0394ABB68B2FBF3F29B
:1007A000354B596847F6C0730B409B0903FB02F3B6
:1007B000FB610CE0314ABB68B2FBF3F22E4B596887
:1007C00047F6C0730B409B0903FB02F3FB612A4B06
:1007D0005B6803F440331B0C01335B003B61FA6937
:1007E0003B69B2FBF3F27B681A6003E07B68234A43
:1007F0001A6000BF204B9B6803F0F003BB61BB692C
:100800001B09BB611F4ABB6913441B78DBB27B61C8
:100810007B681A687B69DA407B685A60164B9B6874
:1008200003F4E053BB61BB699B0ABB61154ABB691A
:1008300013441B78DBB27B617B685A687B69DA40C2
:100840007B689A600C4B9B6803F46043BB61BB6997
:100850005B0BBB610B4ABB6913441B78DBB27B614A
:100860007B685A687B69DA407B68DA602437BD466A
:100870005DF8047B704700BF003802400024F4009C
:1008800000127A001001002080B485B000AF7860BB
:100890000023FB607B6803F44073B3F5407F11D104
:1008A0000F4B9B68FB60FB6823F4F813FB607B68CD
:1008B00023F0704323F44073FA681343FB60084B42
:1008C000FA689A60064B064A116F7A68C2F30B0207
:1008D0000A431A671437BD465DF8047B704700BFB2
:1008E0000038024080B483B000AF0346FB71044B74
:1008F000FA791A600C37BD465DF8047B704700BF7B
:100900003C0E474280B483B000AF78600B46FB706A
:10091000FB78002B06D0094B084A116B7A680A4312
:100920001A6306E0054B054A116B7A68D2430A4008
:100930001A630C37BD465DF8047B704700380240EF
:1009400080B483B000AF78600B46FB70FB78002B5F
:1009500006D0094B084A116C7A680A431A6406E00B
:10096000054B054A116C7A68D2430A401A640C3769
:10097000BD465DF8047B70470038024080B483B008
:1009800000AF78600B46FB70FB78002B06D0094B5C
:10099000084A516C7A680A435A6406E0054B054AD6
:1009A000516C7A68D2430A405A640C37BD465DF8F0
:1009B000047B70470038024080B483B000AF786099
:1009C0000B46FB70FB78002B06D0094B084A116AD6
:1009D0007A680A431A6206E0054B054A116A7A688A
:1009E000D2430A401A620C37BD465DF8047B70475B
:1009F0000038024080B483B000AF78600B46FB70D3
:100A0000FB78002B06D0094B084A516A7A680A43E2
:100A10005A6206E0054B054A516A7A68D2430A4099
:100A20005A620C37BD465DF8047B704700380240BF
:100A300080B487B000AF0346FB710023FB60002346
:100A40007B610023FB74FB795B09DBB2FB60FB6815
:100A5000012B03D1124B1B687B6109E0FB68022B61
:100A600003D10F4B1B6F7B6102E00D4B5B6F7B6112
:100A7000FB7903F01F03FB60FB687A6922FA03F33A
:100A800003F00103002B02D00123FB7401E00023DB
:100A9000FB74FB7C18461C37BD465DF8047B704731
:100AA0000038024080B584B000AF78600023FB734B
:100AB000194BCA225A62184B53225A6200F048F866
:100AC0000346002B02D10023FB731CE0124B124A99
:100AD000926822F040029A600F4B0F4A91687A6840
:100AE00012680A439A600C4B7A6892681A610A4B42
:100AF000094A11697A68526812040A431A6100F0BF
:100B000061F80123FB73044BFF225A62FB7B1846FA
:100B10001037BD4680BD00BF0028004080B483B0C0
:100B200000AF0346FB71FB79002B03D0074BFF227C
:100B30005A6205E0054BCA225A62044B53225A629C
:100B40000C37BD465DF8047B704700BF00280040AD
:100B500080B485B000AF00237B600023FB730023CB
:100B6000BB60174BDB6803F04003002B1ED1144B16
:100B70004FF0FF32DA60124BDB6803F04003BB60DA
:100B80007B6801337B607B68B3F5803F02D0BB6834
:100B9000002BF0D00A4BDB6803F04003002B02D09F
:100BA0000123FB7304E00023FB7301E00123FB73CB
:100BB000FB7B18461437BD465DF8047B704700BFC9
:100BC0000028004080B400AF044B044AD26822F0F1
:100BD0008002DA60BD465DF8047B70470028004063
:100BE00080B485B000AF00237B600023FB7300233B
:100BF000BB60184BCA225A62164B53225A62154BDD
:100C0000144AD26822F0A002DA60124BDB6803F0CB
:100C10002003BB607B6801337B607B68B3F5003FDA
:100C200002D0BB68002BF0D00A4BDB6803F0200336
:100C3000002B02D00123FB7301E00023FB73054B63
:100C4000FF225A62FB7B18461437BD465DF8047BD1
:100C5000704700BF0028004090B585B000AF7860B5
:100C600039600023FB600023FB727B68002B09D1F5
:100C7000394B9B6803F04003002B14D13B680022E2
:100C8000DA7010E0344B9B6803F04003002B07D070
:100C90003B681B78184600F0DFFA0346FB6002E071
:100CA0003B680022DA707B68002B0FD03B681B7812
:100CB0001A043B685B781B021A433B689B781A4313
:100CC0003B68DB781B041343FB601BE03B681B782D
:100CD000184600F0A3FA03461C043B685B781846EC
:100CE00000F09CFA03461B021C433B689B781846A5
:100CF00000F094FA034644EA03023B68DB781B04E5
:100D00001343FB60144BCA225A62134B53225A629C
:100D1000FFF71EFF0346002B02D10023FB7212E0F7
:100D20000D4AFB6803F07F3323F0FE431360FFF7A7
:100D300049FFFFF755FF0346002B02D10023FB724A
:100D400001E00123FB72044BFF225A62FB7A184632
:100D50001437BD4690BD00BF0028004080B584B068
:100D600000AF786039600023FB60224B1B6803F002
:100D70007F3323F0FE43FB60FB6803F47C131B0C02
:100D8000DAB23B681A70FB6803F4FE431B0ADAB25E
:100D90003B685A70FB68DBB203F07F03DAB23B6852
:100DA0009A70FB6803F480031B0CDAB23B68DA70BC
:100DB0007B68002B1AD13B681B78184600F04CFA70
:100DC00003461A463B681A703B685B78184600F089
:100DD00043FA03461A463B685A703B689B781846AC
:100DE00000F03AFA03461A463B689A701037BD463F
:100DF00080BD00BF0028004090B585B000AF78608E
:100E000039600023FB600023FB727B68002B0ED14E
:100E10003B685B7803F01003002B08D03B685B78DD
:100E200023F01003DBB20A33DAB23B685A707B68F6
:100E3000002B0DD03B685B78184600F00DFA034696
:100E4000FB603B689B78184600F006FA0346FB609F
:100E50007B68002B0FD03B68DB781A043B685B781B
:100E60001B021A433B689B781A433B681B785B0361
:100E70001343FB601BE03B68DB78184600F0CEF9BB
:100E800003461C043B685B78184600F0C7F903462C
:100E90001B021C433B689B78184600F0BFF90346D1
:100EA00044EA03023B681B785B031343FB60144B6B
:100EB000CA225A62124B53225A62FFF749FE034676
:100EC000002B02D10023FB7212E00D4AFB6823F0D5
:100ED0007F4323F0C0035360FFF774FEFFF780FEEB
:100EE0000346002B02D10023FB7201E00123FB72B9
:100EF000034BFF225A62FB7A18461437BD4690BD59
:100F00000028004080B584B000AF786039600023CD
:100F1000FB60224B5B6823F07F4323F0C003FB6040
:100F2000FB6803F47F031B0CDAB23B68DA70FB68E2
:100F300003F4F8531B0ADAB23B685A70FB68DBB261
:100F400003F03F03DAB23B689A70FB6803F4604336
:100F50005B0BDAB23B681A707B68002B1AD13B68D6
:100F6000DB78184600F078F903461A463B68DA70D9
:100F70003B685B78184600F06FF903461A463B68F9
:100F80005A703B689B78184600F066F903461A468B
:100F90003B689A701037BD4680BD00BF00280040F6
:100FA00080B483B000AF78600C4BCA225A620B4BFE
:100FB00053225A62094B094A926822F007029A604A
:100FC000064B064A91687A680A439A60034BFF22EF
:100FD0005A620C37BD465DF8047B7047002800401C
:100FE00080B483B000AF7860084BCA225A62074BC6
:100FF00053225A62054B7A685A61044BFF225A62A7
:101000000C37BD465DF8047B704700BF00280040E8
:1010100080B487B000AF0346FB710023FB60002360
:101020003B610023FB751E4BCA225A621C4B5322A4
:101030005A62FB79002B08D0194B194A926842F486
:1010400080629A600123FB751FE0154B144A926879
:1010500022F480629A60124BDB6803F004033B6168
:10106000FB680133FB60FB68B3F5803F02D03B694E
:10107000002BF0D00A4BDB6803F00403002B02D1F5
:101080000023FB7501E00123FB75054BFF225A622B
:10109000FB7D18461C37BD465DF8047B704700BFDA
:1010A0000028004080B485B000AF7860396000232C
:1010B000FB60074BFB607B689A00FB681344FB6096
:1010C000FB683A681A601437BD465DF8047B7047C8
:1010D0005028004080B485B000AF78600023FB60EA
:1010E000074BFB607B689A00FB681344FB60FB685E
:1010F0001B6818461437BD465DF8047B704700BF77
:101100005028004080B483B000AF78600B46FB707D
:10111000194BCA225A62184B53225A62FB78002B91
:1011200010D0154B144A91687A6822F004020A43E1
:101130009A60114B104A116C7A6802F004020A435B
:101140001A6411E00C4B0C4A91687A6822F0040290
:10115000D2430A409A60084B074A116C7A6802F041
:101160000402D2430A401A64034BFF225A620C372E
:10117000BD465DF8047B70470028004080B487B00E
:1011800000AF78600023FB7500233B610023FB6008
:10119000134B1B6C03F004033B61114B9A687B6893
:1011A0001A407B68D90B3B690B401343FB600C4B27
:1011B000DA687B681B0913403B61FB68002B06D093
:1011C0003B699BB2002B02D00123FB7501E0002399
:1011D000FB75FB7D18461C37BD465DF8047B7047E8
:1011E0000028004080B485B000AF78600023FB6029
:1011F0007B681B09FB60084BFA6892B242F08002E0
:10120000D143054AD26802F080020A43DA601437FB
:10121000BD465DF8047B70470028004080B485B06F
:1012200000AF0346FB710023FB7305E0FB7B01333A
:10123000FB73FB790A3BFB71FB79092BF6D8FB7B2F
:101240001B01DAB2FB791343DBB218461437BD46F3
:101250005DF8047B704700BF80B485B000AF0346E3
:10126000FB710023FB73FB791B09DBB21A4692006A
:1012700013445B00FB73FB7903F00F03DAB2FB7BD3
:101280001344DBB218461437BD465DF8047B704743
:1012900080B485B000AF786039600023FB817B6843
:1012A0001B88FB81FB8903F44153FB813B681A884F
:1012B0003B685B8813439AB23B689B8813439AB29E
:1012C0003B68DB8813439AB23B681B8913439AB28D
:1012D0003B685B8913439AB23B689B8913439AB27C
:1012E0003B68DB8913439AB2FB891343FB817B681C
:1012F000FA891A807B689B8B9BB223F400639AB2B5
:101300007B689A833B681A8A7B681A821437BD46C9
:101310005DF8047B704700BF80B483B000AF786095
:101320007B6800221A807B6800225A807B6800223A
:101330009A807B680022DA807B6800221A817B68B1
:1013400000225A817B6800229A817B680022DA8120
:101350007B6807221A820C37BD465DF8047B704714
:1013600090B484B000AF02460B46FA71BB71002303
:10137000FB60BB7903F003039B000F2202FA03F327
:10138000FB60154BBA799208D2B21349B87980083C
:10139000C0B2023051F82000F968C943014002325E
:1013A00043F822100C4BBA799208D2B20A49B879A4
:1013B0008008C0B2023051F82000FC79B97901F000
:1013C0000301890004FA01F10143023243F82210BB
:1013D0001037BD4690BC70470038014080B485B0DE
:1013E00000AF786039600023FB817B681B88FB813C
:1013F0007A68284B9A4213D07A68274B9A420FD0CA
:101400007B68B3F1804F0BD07A68244B9A4207D0A7
:101410007A68234B9A4203D07A68224B9A4208D1C9
:10142000FB8923F07003FB813B685A88FB891343D7
:10143000FB817A681C4B9A420CD07A681B4B9A420B
:1014400008D0FB8923F44073FB813B681A89FB8930
:101450001343FB817B68FA891A803B685A687B6872
:10146000DA623B681A887B681A857A68094B9A4267
:1014700003D07A68084B9A4204D13B689B7A1A469B
:101480007B681A867B6801229A821437BD465DF814
:10149000047B70470000014000040140000400404C
:1014A00000080040000C0040001000400014004004
:1014B00080B483B000AF786039607B683A685A6264
:1014C0000C37BD465DF8047B704700BF80B483B025
:1014D00000AF78600B467B807B681B889BB223F44F
:1014E00040739AB27B681A807B681B889AB27B88AB
:1014F00013439AB27B681A800C37BD465DF8047BB3
:10150000704700BF80B483B000AF78600B46FB70BB
:10151000FB78002B08D07B681B889BB243F001034B
:101520009AB27B681A8007E07B681B889BB223F025
:1015300001039AB27B681A800C37BD465DF8047BC4
:10154000704700BF80B483B000AF786013460A468E
:101550007A807B707B78002B08D07B689B899AB25D
:101560007B8813439AB27B689A8109E07B689B89E8
:101570009AB27B88DB439BB213409AB27B689A8114
:101580000C37BD465DF8047B704700BF80B485B062
:1015900000AF78600B467B800023FB730023BB8188
:1015A00000237B817B681B8A9AB27B881340BB81B6
:1015B0007B689B899AB27B8813407B81BB89002B17
:1015C00005D07B89002B02D00123FB7301E00023AF
:1015D000FB73FB7B18461437BD465DF8047B7047F0
:1015E00080B483B000AF78600B467B807B88DB43A0
:1015F0009AB27B681A820C37BD465DF8047B70474F
:1016000080B582B000AF78607A682B4B9A4208D1DF
:1016100010200121FFF7EEF910200021FFF7EAF971
:1016200047E07A68254B9A420AD14FF400300121F5
:10163000FFF7C2F94FF400300021FFF7BDF938E0A1
:101640007A681F4B9A420AD14FF480200121FFF79C
:10165000B3F94FF480200021FFF7AEF929E07A6852
:10166000184B9A420AD14FF400200121FFF7A4F948
:101670004FF400200021FFF79FF91AE07A68124B1F
:101680009A420AD14FF480100121FFF795F94FF4E7
:1016900080100021FFF790F90BE07A680B4B9A421B
:1016A00007D120200121FFF7A5F920200021FFF715
:1016B000A1F90837BD4680BD00100140004400403C
:1016C00000480040004C0040005000400014014021
:1016D00080B58AB000AF7860396000237B62002358
:1016E0003B620023FB610023BB617B681B8A9BB2CA
:1016F0007B627B6A23F440537B623B68DB887A6AB7
:1017000013437B627B6A9AB27B681A827B689B89EF
:101710009BB27B627B6A23F4B05323F00C037B62A1
:101720003B689A883B681B8913439AB23B685B8984
:1017300013439BB27A6A13437B627B6A9AB27B68DB
:101740009A817B689B8A9BB27B627B6A23F440739D
:101750007B623B689B897A6A13437B627B6A9AB29D
:101760007B689A8207F108031846FEF7E3FF7A6860
:10177000314B9A4203D07A68304B9A4202D17B694E
:101780003B6201E03B693B627B689B899BB29BB2F9
:101790001BB2002B0CDA3A6A13469B0013449A00E2
:1017A0001A443B681B685B00B2FBF3F3FB610BE080
:1017B0003A6A13469B0013449A001A443B681B681C
:1017C0009B00B2FBF3F3FB61FA691D4BA3FB021311
:1017D0005B091B017B627B6A1B09642202FB03F32A
:1017E000FA69D31ABB617B689B899BB29BB21BB21F
:1017F000002B0DDABB69DB0003F13202104BA3FBB7
:1018000002135B0903F007037A6A13437B620CE05F
:10181000BB691B0103F13202094BA3FB02135B09F5
:1018200003F00F037A6A13437B627B6A9AB27B6888
:101830001A812837BD4680BD0010014000140140C8
:101840001F85EB5180B483B000AF78600023184649
:101850000C37BD465DF8047B704700BF80B584B08F
:1018600000AF786000F0A2F8F860F86800F0BEF809
:10187000034618467968202203F018FFFB681B68AE
:101880005A1CFB681A601037BD4680BD80B584B015
:1018900000AF0346FB71244B1B78022B25D1234B51
:1018A0001A68234B1B781344FA791A70204B1B7863
:1018B0000133DAB21E4B1A701D4B1B781F2B94BFDD
:1018C00000230123DBB2002B0FD01A48FFF7C6FF1D
:1018D000154B00221A70154B1B6818460021202258
:1018E00003F0EDFE124B00221A700023FB6015E09E
:1018F0000D4B1B781A46FB689A420CD1FA790A4BB9
:101900001B78C3F1FF039A4205D1074B1B780133C3
:10191000DAB2054B1A70FB680133FB60FB68012BE0
:10192000E6DD1037BD4680BD650200206002002064
:10193000640200204002002080B582B000AF7860D1
:10194000054B064A1A60064801214FF4E13200F0C7
:101950007DF80837BD4680BD6002002040020020AF
:101960000048004080B582B000AF7860044B002290
:101970001A70786800F046F80837BD4680BD00BF91
:101980006502002080B582B000AF786039600648FB
:101990003968202200F07AF87B685B685A1C7B6803
:1019A0005A600837BD4680BD0048004080B500AF92
:1019B0000C4B1B6803F00103002B10D1094802F007
:1019C0008BF80346002B0CBF00230123DBB2002B56
:1019D00005D0054800F028F8024802F08FF8024BC5
:1019E000184680BD80020020A002002080B483B091
:1019F00000AF78607B68203318460C37BD465DF831
:101A0000047B704780B582B000AF78607B6820337C
:101A100018460021202203F052FE7B6800221A6043
:101A20000837BD4680BD00BF80B483B000AF78608A
:101A30007B6800221A607B6800225A607B68184627
:101A40000C37BD465DF8047B704700BF80B588B099
:101A500004AFF8600B467A60FB72FA680A4B9A4250
:101A60000ED1FB7A0C2200920022019200220292F7
:101A700000220392044819467A68002300F0CAF84D
:101A80001037BD4680BD00BF0048004080B586B01D
:101A900000AFF860B9601346FB71F86800F036F8E3
:101AA00038613B691B7B002B00D120E00023FB75D4
:101AB00019E000BFFB681B889BB203F08003002B7A
:101AC000F8D0FB7DBA6813441B781A46FB689A80ED
:101AD00000BFFB681B889BB203F08003002BF8D08B
:101AE000FB7D0133FB75FA7DFB799A42E1D3183710
:101AF000BD4680BD80B483B000AF78600B467B806C
:101B00000C37BD465DF8047B704700BF80B485B0DC
:101B100000AF78600023FB607A68064B9A4201D1DF
:101B2000054BFB60FB6818461437BD465DF8047B27
:101B3000704700BF004800402001002080B485B0FD
:101B400000AF78600023FB737A68064B9A4201D19C
:101B50000223FB73FB7B18461437BD465DF8047BFC
:101B6000704700BF0048004080B584B002AF034614
:101B7000FB71FB79002B0AD1032300930723019308
:101B800016484FF440610022012300F049FEFB7922
:101B9000012B0AD1032300930723019310484FF42C
:101BA00040610022012300F03BFEFB79022B0AD1A9
:101BB00003230093072301930A484FF44071002246
:101BC000012300F02DFEFB79032B03D106480721EA
:101BD000FFF790FF0837BD4680BD00BF00040240FC
:101BE00000080240000C02400048004080B500AFF1
:101BF000074B1B889BB203F02003002B06D0044B3D
:101C00009B889BB2DBB21846FFF740FE80BD00BF49
:101C10000048004080B58CB000AFF8607A600A469A
:101C2000FA723B81F868FFF771FFF8627B68FB612D
:101C3000FA682B4B9A420BD12A4B2A4A126C42F477
:101C400080221A64FB7A1846FFF78EFF27233B7623
:101C5000F868FFF7D5FC0123FB7606237B76F8684E
:101C6000FFF76CFF0346BB7607F118031846FEF733
:101C700023FB3B893B85BB6B9BB2FB84FB6B9BB21D
:101C8000BB843B6C9BB27B847B6C9BB23B84FB6ACA
:101C900000221A7340F6FF737B6100BF7B695A1EF6
:101CA0007A61002BFAD107F11C03F8681946FFF797
:101CB0000FFDFB689B899BB243F020039AB2FB683F
:101CC0009A81FB6A01221A73FB689B899BB243F4D9
:101CD00000539AB2FB689A813037BD4680BD00BF81
:101CE000004800400038024080B588B000AF03468D
:101CF000FB710123FB774FF080500121FEF720FE9E
:101D00000120FEF7D7FC1320FFF7E4F9B861BA69A8
:101D100044F221339A4220D1394B44F221321A60E5
:101D2000FB79002B02D1002000F00EFB0020FEF713
:101D3000F5FEFEF755FF0120FEF7F0FE4FF4804060
:101D4000FFF750FA2F4B4FF480025A6107F1080356
:101D50001846002100F0A8FA46E0BA6941F234239F
:101D60009A4220D1264B41F234221A60FB79002B93
:101D700002D1002000F0E8FA0020FEF7CFFEFEF7C7
:101D80002FFF0120FEF7CAFE4FF48040FFF72AFA2A
:101D90001C4B4FF480025A6107F1080318460021DA
:101DA00000F082FA20E0164B00221A600023FB7735
:101DB000FB79184600F0C8FA0123FB730123BB73BB
:101DC00001233B7400237B7400237B7300233B734C
:101DD00000233B7207F108031846002100F014F8B5
:101DE000074B41F234221A60FB7F002B01D1002304
:101DF00001E0034B1B6818462037BD4680BD00BF7D
:101E0000E0020020003C014090B587B000AF786050
:101E10000B46FB70FB78012B77D17B68DB791B09C4
:101E2000DBB21A46920013445B00DAB27B68DB79BE
:101E300003F00F03DBB21344DBB2FB737B681B7A46
:101E40001B09DBB21A46920013445B00DAB27B68CE
:101E50001B7A03F00F03DBB21344DBB23B747B68E5
:101E60005B7A1B09DBB21A46920013445B00DAB2BC
:101E70007B685B7A03F00F03DBB21344DBB27B7445
:101E80007B685B791B09DBB21A46920013445B0046
:101E9000DAB27B685B7903F00F03DBB21344DBB289
:101EA0007B737B681B791B09DBB21A4692001344D3
:101EB0005B00DAB27B681B7903F00F03DBB21344DB
:101EC000DBB23B737B681B781B09DBB21A469200BE
:101ED00013445B00DAB27B681B7803F00F03DBB2BC
:101EE0001344DBB23B727B689B791B09DBB21A4659
:101EF000920013445B00DAB27B689B7903F00F0316
:101F0000DBB21344DBB2BB7314E07B68DB79FB7399
:101F10007B681B7A3B747B685B7A7B747B685B793C
:101F20007B737B681B793B737B681B783B727B6898
:101F30009B79BB737B7C632B4BD83B7C002B48D0BD
:101F40003B7C0C2B45D8FB7B002B42D0F97B7B7C68
:101F500003F00303002B0ED17B7C03F5FA62454BA3
:101F600083FB02035811D317C31A642000FB03F349
:101F7000D31A002B0FD17B7C03F5FA623D4B83FB18
:101F80000203D811D317C31A4FF4C87000FB03F330
:101F9000D31A002B01D1012200E000223B7C5C1E01
:101FA000354813465B0013449B00234403441B78CD
:101FB00099420ED87B7B172B0BD83B7B3B2B08D849
:101FC0003B7A3B2B05D8BB7B002B02D0BB7B072B7E
:101FD00001D901234AE07B685A79284B1A707B6843
:101FE0001A79264B5A707B681A78244B9A707B6852
:101FF000DA79234B9A707B681A7A214B5A707B6886
:102000005A7A1F4BDA707B689A791D4B1A701D4BF8
:1020100000221A601B4B1F225A601A4B40F2FF32FB
:102020009A601848FEF73EFDFB78012B04D1012091
:102030001249FEF711FE03E000201049FEF70CFEE6
:10204000FB78012B04D101200D49FEF7D5FE03E0FA
:1020500000200B49FEF7D0FE0B4B1B68002B04D071
:10206000132044F22131FFF71DF8002318461C37D6
:10207000BD4690BD1F85EB51300100205456002015
:102080006456002058560020E002002080B588B039
:1020900000AF78600023FB770023FB7411E0FB7C2A
:1020A0001A46920013445B00DAB2FB7F79680B4456
:1020B0001B781344DBB2303BDBB2FB74FB7F013394
:1020C000FB77FB7F7A6813441B782F2B05D9FB7FA6
:1020D0007A6813441B78392BE1D9FB7F0133FB77F6
:1020E00000233B7511E03B7D1A46920013445B00D0
:1020F000DAB2FB7F79680B441B781344DBB2303BC8
:10210000DBB23B75FB7F0133FB77FB7F7A681344BF
:102110001B782F2B05D9FB7F7A6813441B78392B4A
:10212000E1D9FB7F0133FB7700237B7511E07B7DD9
:102130001A46920013445B00DAB2FB7F79680B44C5
:102140001B781344DBB2303BDBB27B75FB7F013382
:10215000FB77FB7F7A6813441B782F2B05D9FB7F15
:102160007A6813441B78392BE1D9FB7F0133FB7765
:102170000023BB7411E0BB7C1A46920013445B0041
:10218000DAB2FB7F79680B441B781344DBB2303B37
:10219000DBB2BB74FB7F0133FB77FB7F7A681344B0
:1021A0001B782F2B05D9FB7F7A6813441B78392BBA
:1021B000E1D9FB7F0133FB7700237B7411E07B7C4B
:1021C0001A46920013445B00DAB2FB7F79680B4435
:1021D0001B781344DBB2303BDBB27B74FB7F0133F3
:1021E000FB77FB7F7A6813441B782F2B05D9FB7F85
:1021F0007A6813441B78392BE1D9FB7F0133FB77D5
:1022000000233B7411E03B7C1A46920013445B00B0
:10221000DAB2FB7F79680B441B781344DBB2303BA6
:10222000DBB23B74FB7F0133FB77FB7F7A6813449F
:102230001B782F2B05D9FB7F7A6813441B78392B29
:10224000E1D9FB7F0133FB7700233B7311E03B7B3C
:102250001A46920013445B00DAB2FB7F79680B44A4
:102260001B781344DBB2303BDBB23B73FB7F0133A3
:10227000FB77FB7F7A6813441B782F2B05D9FB7FF4
:102280007A6813441B78392BE1D9FB7F0133FB7744
:1022900007F10C0318460021FFF7B6FD0346184668
:1022A0002037BD4680BD00BF80B584B000AF7860E8
:1022B0000B46FB70FB78002B04D100201F49FEF772
:1022C0004DFD03E001201D49FEF748FD1B4B1A7828
:1022D0007B685A71194B5A787B681A71174B9A7838
:1022E0007B681A70164B9B6A9AB27B685A80FB789F
:1022F000002B04D100201349FEF704FE03E0012067
:102300001049FEF7FFFD0F4BDA787B685A720D4BD0
:102310005A787B681A720B4B9A787B68DA71094B92
:102320001A787B689A71786800F0EAF8F8607B6840
:10233000FA68DA601037BD4680BD00BF54560020F1
:10234000002800406456002080B582B000AF0346EC
:10235000FB71FB79002B0ED10120FEF7DBF900BFEA
:102360006120FEF765FB0346002BF9D04FF40070A7
:10237000FEF78AFA10E0FB79012B0DD10120FEF760
:10238000A9F900BF4120FEF753FB0346002BF9D00B
:102390004FF48070FEF778FA0120FEF7A3FA0020D0
:1023A000FEF7BCFBFEF71CFC0120FEF7B7FB132079
:1023B00041F23421FEF776FE0837BD4680BD00BFEE
:1023C00080B584B000AF0346FB71484B4FF48002E8
:1023D0005A610020FEF71CFE4FF480400021FEF7FA
:1023E00091FE434B03221A70414B04225A70404B1A
:1023F00000229A703E4B0022DA703D48FDF75CFFE8
:102400003C4B4FF480021A603A4B00221A71394B50
:1024100008225A71374B00229A713648FEF700F8AD
:10242000FB79002B5FD0324B0122DA703048FDF788
:1024300043FF304B01229A712E48FDF7F1FF002037
:10244000FEF7E6FDFB79012B02D12B4BFB603CE054
:10245000FB79022B02D1294BFB6036E0FB79032B81
:1024600003D14EF6FF73FB602FE0FB79042B03D101
:1024700049F6FF73FB6028E0FB79052B03D144F696
:10248000FF73FB6021E0FB79062B03D141F6FF735C
:10249000FB601AE0FB79072B03D140F6FF73FB606A
:1024A00013E0FB79082B03D140F2FF73FB600CE0D3
:1024B000FB79092B03D140F2FF33FB6005E0FB7988
:1024C0000A2B02D140F2FF13FB600120FEF768FDEA
:1024D000F868FEF785FD4FF480400121FEF712FEFB
:1024E0000120FEF795FD1037BD4680BD003C014040
:1024F000685600206C560020FFBF0300FFDF01007C
:1025000080B487B000AF786000237B610023FB605C
:102510007B685B7A03F5FA637B817A8940F2B17359
:102520009A4201D8002390E040F2B2737B8229E006
:102530007B8A03F003039BB2002B0BD17B8A464AB4
:10254000A2FB03125209642101FB02F29B1A9BB207
:10255000002B0CD17B8A404AA2FB0312D2094FF414
:10256000C87101FB02F29B1A9BB2002B02D14FF4FF
:10257000B77301E040F26D137A6913447B617B8A83
:1025800001337B827A8A7B899A42D1D301237B8271
:1025900031E07B8903F003039BB2002B0BD17B89D5
:1025A0002D4AA2FB03125209642101FB02F29B1A7D
:1025B0009BB2002B0CD17B89274AA2FB0312D209C4
:1025C0004FF4C87101FB02F29B1A9BB2002B01D1A0
:1025D000012200E000227B8A581E204913465B003E
:1025E00013449B0003440B441B787A6913447B61BA
:1025F0007B8A01337B827B681B7A7A8A9A42C8D3B2
:102600007B68DB791A467B691344013B7B617B69FC
:10261000134A02FB03F3FB607B685B794FF4616252
:1026200002FB03F3FA681344FB607B681B791A46CC
:1026300013461B019B1A9B00FA681344FB607B68DE
:102640001B78FA681344FB60FB6818461C37BD46CC
:102650005DF8047B704700BF1F85EB5130010020FF
:102660008051010080B400AFBD465DF8047B704727
:1026700080B400AFBD465DF8047B704780B500AF05
:102680004FF48040FEF77AFD0346002B05D04FF44F
:102690008040FEF7A7FD01F075FF024B4FF480026A
:1026A0005A6180BD003C014080B500AF4FF48050BE
:1026B000FEF764FD0346002B05D04FF48050FEF773
:1026C00091FDFFF7CFFF4FF40050FEF757FD034693
:1026D000002B05D04FF40050FEF784FDFFF7C8FF34
:1026E000024B4FF400325A6180BD00BF003C0140F4
:1026F00080B582B000AF4FF080434FF6FE721A8271
:10270000364B1B685A1C354B1A60354B1B68002B27
:1027100004D0334B1B685A1E314B1A60AFF3008054
:102720000023FB7152E0FB792E4A9B0013445B6847
:10273000002B48D0FB792B4A9B0013445B681B7B22
:10274000002B40D0FB79274A9B0013445B689B68B1
:10275000002B38D0FB79234A9B0013445B689A68AE
:10276000013A9A60FB791F4A9B0013445B689B689F
:10277000002B28D1FB791B4A9B0013445B681A6924
:10278000FB7918499B000B445B685B6918469047CE
:10279000FB79144A9B0013445A68FB7911499B004A
:1027A0000B445B681B689360FB790E4A9B001344E3
:1027B0005B685B68002B06D1FB790A4A9B001344D7
:1027C0005B6800221A73FB790133FB71054B1B78A0
:1027D000FA799A42A7D30837BD4680BDE4020020AB
:1027E000E8020020EC02002080B584B002AF7860DF
:1027F00079807A703B707B88002B00D10CE0786880
:1028000000F06CF879887A783B78387C0090387DD5
:102810000190786800F078F80837BD4680BD00BFA9
:1028200080B586B002AF786079807A703B707B8823
:10283000002B00D13CE0786800F050F80023FB60EA
:1028400028E07A88FB6842FA03F303F00103002BC7
:1028500000D11CE0FB68DA08FB68D9087B68083106
:1028600053F82110FB6803F007039B000F2000FAC8
:1028700003F3DB431940387FFB6803F007039B0039
:1028800000FA03F319437B68083243F82210FB680F
:102890000133FB60FB680F2BD3D97A887B783978BA
:1028A0000091397E019178681146022200F02CF8DF
:1028B0001037BD4680BD00BF80B483B000AF7860E4
:1028C0007B6803F13F4303F57E039B0A9BB21846E6
:1028D0000C37BD465DF8047B704700BFB0B582B0D1
:1028E00000AF7860074C074B1D6B7868FFF7E4FF7B
:1028F0000346012202FA03F32B4323630837BD4644
:10290000B0BD00BF0038024080B584B000AF786031
:1029100079807A703B707868FFF7CEFF0346BB730F
:102920000023FB7366E07A88FB7B42FA03F303F033
:102930000103002B00D15AE0BA7BB97B304B33F84E
:10294000113099B2FB7B012000FA03F39BB20B43D9
:102950009BB299B22A4B23F812107B68DA68FB7B92
:102960005B00032101FA03F3DB431A40397EFB7B52
:102970005B0001FA03F31A437B68DA607B681A682C
:10298000FB7B5B00032101FA03F3DB431A407978F8
:10299000FB7B5B0001FA03F31A437B681A607B78C8
:1029A000012B02D07B78022B21D17B685A68FB7BFC
:1029B000012101FA03F39BB2DB431A403978FB7B18
:1029C00001FA03F39BB21A437B685A607B689A68EA
:1029D000FB7B5B00032101FA03F3DB431A40397FE1
:1029E000FB7B5B0001FA03F31A437B689A60FB7B75
:1029F0000133FB73FB7B0F2B95D91037BD4680BD90
:102A00000403002080B483B000AF78600023184630
:102A10000C37BD465DF8047B704700BF80B582B0BF
:102A200000AF78607B6800221A607B680433184628
:102A300000F0E2F97B6800221A657B6818460837C7
:102A4000BD4680BD90B583B000AF78607B68DA6C1E
:102A50007B681B6D1046194600F0BEF90346184608
:102A600000F088F904467B68DA6C7B681B6D1046C1
:102A7000194600F0B1F900F075F903469BB20F4812
:102A80002146002200F00CFF0346002B14BF002358
:102A90000123DBB2002B02D0094802F029FF00BF5E
:102AA000064800F097FF0346002B0CBF00230123CC
:102AB000DBB2002BF4D10C37BD4690BD0030014095
:102AC000D463000890B583B000AF78601948102136
:102AD000FDF7D4FD17480821FDF7D0FD7B680433CE
:102AE000184600F0BFF904467B680433184600F02E
:102AF000ABF903469BB210482146002200F0D0FEFD
:102B00000346002B14BF00230123DBB2002B02D0AD
:102B10000A4802F0EDFE00BF074800F05BFF0346E5
:102B2000002B0CBF00230123DBB2002BF4D10C37A8
:102B3000BD4690BD0000024000300140FC6300082B
:102B400080B584B002AF7860114B0022DA614FF497
:102B500082730093802301930E48002100220023FA
:102B600000F0E4FC0B4800F04BFE0023009302232E
:102B700001930748582101220023FFF735FE05483D
:102B800000F05EFF7868FFF79DFF0837BD4680BD07
:102B9000000002400030014080B483B000AF786094
:102BA0000C37BD465DF8047B704700BF80B582B02E
:102BB00000AF7860084800F035FF02467B689A4213
:102BC00014BF00230123DBB2002B02D0034802F024
:102BD0008FFE0837BD4680BD003001402C640008E0
:102BE00080B582B000AF7860084800F01BFF024655
:102BF0007B689A4214BF00230123DBB2002B02D072
:102C0000034802F075FE0837BD4680BD0030014024
:102C10005064000880B584B000AF7860244800F0AC
:102C200001FF02467B689A4214BF00230123DBB2F6
:102C3000002B39D000F07AF90346184600F096F9D7
:102C4000F860F86800F01CF90346002B14BF00235D
:102C50000123DBB2002B0CD016484021142200F0D7
:102C600091F914481821FDF717FD134802F040FEB2
:102C70001AE0F86800F004F90346012B14BF0023A2
:102C80000123DBB2002B0FD00A484021142200F0B0
:102C900079F908480821142200F074F9074802F075
:102CA00027FEF86800F0F8F81037BD4680BD00BF79
:102CB00000300140000002406C6400088C64000891
:102CC00080B483B000AF78607B6818460C37BD468F
:102CD0005DF8047B704700BF80B582B000AF7860BC
:102CE0007B6801221A707B6800225A707B68083367
:102CF0001846FFF7E5FF7B6810331846FFF7E0FF43
:102D00007B6818331846FFF7DBFF7B6820331846D3
:102D1000FFF7D6FF7B68283318460021102202F007
:102D2000CEFC7B6818460837BD4680BD90B585B09F
:102D300000AF78607B68184600F038F904467B687D
:102D4000184600F03FF902460023FB6007F10C0330
:102D5000204611461A4600F043F97B68184614379E
:102D6000BD4690BD80B400AF90231846BD465DF8C7
:102D7000047B704780B582B000AF78607B681846EE
:102D800000F052F9034618460837BD4680BD00BF23
:102D9000B0B582B000AF78607B6847241D4604E080
:102DA0002846FFF7C3FF9035013CB4F1FF3FF7D150
:102DB0007B6818460837BD46B0BD00BF80B582B0FD
:102DC00000AF78607B681846FFF7E2FF7B68184623
:102DD0000837BD4680BD00BF80B582B000AF7860C7
:102DE00039607A683B681046194600F041F903469D
:102DF00018460837BD4680BD90B585B000AF7860F5
:102E00007B68184600F044F904467B68184600F0D9
:102E10004BF902463F23FB6007F10C0320461146A5
:102E20001A4600F0DDF87B6818461437BD4690BDA1
:102E300080B483B000AF7860482318460C37BD4695
:102E40005DF8047B704700BF80B582B000AF78604A
:102E50007B681846FFF7ECFF034618460837BD4667
:102E600080BD00BF80B582B000AF78607B68184637
:102E700000F036F9034618460837BD4680BD00BF4E
:102E800080B483B000AF78607B681B6818460C374D
:102E9000BD465DF8047B704780B483B000AF7860B6
:102EA0007B681B6D5A1C7B681A650C37BD465DF844
:102EB000047B704780B582B000AF78607B681846AD
:102EC000FFF7FEFE7B6808331846FFF7F9FE7B68C4
:102ED00018460837BD4680BD80B582B000AF786027
:102EE0007B6804331846FFF799FD7B685833184612
:102EF000FFF7F2FE7B6898331846FFF7DBFF7B682D
:102F0000C8331846FFF778FF7B6803F588731846C7
:102F1000FFF754FF7B6803F5265310331846FFF77D
:102F20004DFF7B6818460837BD4680BD80B500AFB1
:102F30000C4B1B6803F00103002B10D1094800F073
:102F4000CBFD0346002B0CBF00230123DBB2002B7B
:102F500005D00548FFF7C0FF024800F0CFFD024B47
:102F6000184680BD1C0300202003002080B483B0DD
:102F700000AF78607B68043318460C37BD465DF8B7
:102F8000047B704780B584B000AFF8600B467A6070
:102F90007B817B89F8681946FDF770FB7B89F868AF
:102FA0001946FDF779FB1037BD4680BD80B582B06C
:102FB00000AF7860786800F037F8034618460837A5
:102FC000BD4680BD80B582B000AF7860786800F003
:102FD0002BF80346903318460837BD4680BD00BF26
:102FE00090B585B000AFF860B9607A60F86800F01D
:102FF00089F80446B86800F085F80346204619466B
:103000007A6800F08BF81437BD4690BD80B483B069
:1030100000AF786039607A683B68134418460C3713
:10302000BD465DF8047B704780B582B000AF786024
:103030007B6818460021FFF7E9FF0346184600F0B9
:1030400087F8034618460837BD4680BD80B483B074
:1030500000AF786039603A681346DB0013441B0107
:103060007A68134418460C37BD465DF8047B7047F8
:1030700080B582B000AF786039607B6818463968E7
:10308000FFF7E4FF034618460837BD4680BD00BF82
:1030900080B582B000AF7860786800F021F8034610
:1030A00018460837BD4680BD80B582B000AF786055
:1030B000786800F015F80346483318460837BD46CF
:1030C00080BD00BF80B483B000AF786039607A689B
:1030D0003B68134418460C37BD465DF8047B7047C7
:1030E00080B582B000AF78607B6818460021FFF79A
:1030F000E9FF0346184600F02BF803461846083748
:10310000BD4680BD80B582B000AF7860786800F0C1
:103110002BF8034618460837BD4680BD80B487B0FB
:1031200000AFF860B9607A607B681B687B6106E07D
:103130007B69DAB2FB681A70FB680133FB60FA68DE
:10314000BB689A42F4D11C37BD465DF8047B7047DA
:1031500080B483B000AF78607B6818460C37BD46FA
:103160005DF8047B704700BF80B483B000AF786027
:103170007B6818460C37BD465DF8047B704700BF7E
:1031800080B485B000AF786039607A68184B9A4295
:103190000AD8184BFB607A68174B1344174AA2FBF6
:1031A00003131B09BB6009E0154BFB607A68154BE4
:1031B0001344124AA2FB03131B09BB60BB68032B19
:1031C00005D9FB680433FB60BB68043BBB60FB684C
:1031D0003A6802F03D010C48BA680244127801FADC
:1031E00002F21A601437BD465DF8047B704700BFD9
:1031F0000F64024008600240F09FFDBFABAAAAAA7C
:1032000008640240F09BFDBFAC64000880B487B046
:1032100000AF7860396000237B6100233B610023AD
:10322000FB607A681B4B9A420AD81B4B3B617A6859
:103230001A4B13441A4AA2FB03131B097B6109E0D2
:10324000184B3B617A68184B1344154AA2FB0313D1
:103250001B097B617B69032B05D93B6904333B6107
:103260007B69043B7B613B691B68FB600F4A7B69A0
:1032700013441B78FA6822FA03F3FB60FB6803F03F
:103280003D03FB60FB6818461C37BD465DF8047BB8
:10329000704700BF0F64024000600240F09FFDBF16
:1032A000ABAAAAAA00640240F09BFDBFAC64000870
:1032B00080B584B000AF786078683D21FFF760FF8B
:1032C0007A681F4B9A4210D87A681E4B13441E4AE4
:1032D000A2FB03131B09FB6001237B721B4AFB68E3
:1032E00013441B78DBB23B7210E07A68184B13442E
:1032F000154AA2FB03131B09FB6001237B72134ACF
:10330000FB68134408331B78DBB23B720123FB726A
:10331000FB68DBB2BB7207F108031846FCF7CCFF71
:103320007B681B6843F01E027B681A607B685B69E0
:1033300043F080027B685A611037BD4680BD00BFF4
:103340000F640240F09FFDBFABAAAAAAB0640008B8
:10335000F09BFDBF80B483B000AF78600C37BD46F2
:103360005DF8047B704700BF80B483B000AF786025
:103370000C37BD465DF8047B704700BF80B584B054
:1033800000AF786078683D21FFF740FF0346FB817E
:1033900078683D21FFF7F4FEFB8903F02003002B42
:1033A00008D07B681B6803F01003002B02D07868FC
:1033B000FFF730FCFB8903F01003002B08D07B687B
:1033C0001B6803F00803002B02D07868FFF7EEFBC0
:1033D000FB8903F00803002B08D07B681B6803F00F
:1033E0000403002B02D07868FFF7FAFBFB8903F097
:1033F0000403002B08D07B681B6803F00203002B3A
:1034000002D07868FFF7A6FFFB8903F00103002BC9
:1034100008D07B685B6903F08003002B02D07868DA
:10342000FFF7A2FF1037BD4680BD00BF80B500AFDB
:103430000148FFF7A3FF80BD1060024080B500AFD8
:103440000148FFF79BFF80BD2860024080B500AFB8
:103450000148FFF793FF80BD4060024080B500AF98
:103460000148FFF78BFF80BD5860024080B500AF78
:103470000148FFF783FF80BD7060024080B500AF58
:103480000148FFF77BFF80BD8860024080B500AF38
:103490000148FFF773FF80BDA060024080B500AF18
:1034A0000148FFF76BFF80BDB860024080B500AFF8
:1034B0000148FFF763FF80BD1064024080B500AF94
:1034C0000148FFF75BFF80BD2864024080B500AF74
:1034D0000148FFF753FF80BD4064024080B500AF54
:1034E0000148FFF74BFF80BD5864024080B500AF34
:1034F0000148FFF743FF80BD7064024080B500AF14
:103500000148FFF73BFF80BD8864024080B500AFF3
:103510000148FFF733FF80BDA064024080B500AFD3
:103520000148FFF72BFF80BDB864024080B584B02E
:1035300002AF7860F9703A80BB707A68154B9A4296
:1035400009D1F978BA783B88388A0090B88A019016
:10355000104800F025F87A680F4B9A4209D1F978A3
:10356000BA783B88388A0090B88A01900A4800F0FF
:1035700017F87A68094B9A4209D1F978BA783B88EA
:10358000388A0090B88A0190044800F009F808379A
:10359000BD4680BD0030014000380040003C004086
:1035A00080B588B000AF7860F970BA703B8007F1E1
:1035B0000C031846FDF7B0FE7A68394B9A420BD1DE
:1035C000384B384A526C42F480525A64FB781846A1
:1035D00000F06EF800233B827A68334B9A420BD19D
:1035E000304B304A126C42F480421A64FB78184621
:1035F00000F08CF800233B827A682C4B9A420BD166
:10360000284B284A126C42F400421A64FB78184690
:1036100000F0C6F800233B823B883B830023BB813C
:10362000BB8D7B833B8DFB814FF40073FB82BB78AA
:10363000002B04D100237B820023BB8216E0BB78E1
:10364000012B04D100237B820123BB820EE0BB78D7
:10365000022B04D102237B820023BB8206E0BB78CD
:10366000032B03D102237B820123BB827B681B884F
:103670009BB223F040039AB27B681A8007F10C03D7
:1036800078681946FDF704FE7B681B889BB243F0FF
:1036900040039AB27B681A802037BD4680BD00BFC8
:1036A000003001400038024000380040003C00403B
:1036B00080B584B002AF0346FB71FB79002B09D1C2
:1036C00003230093052301930D48E02100220023EA
:1036D000FFF7A6F8FB79012B09D1032300930523FB
:1036E00001930848382100220023FFF799F8FB795D
:1036F000032B02D10448AFF300800837BD4680BDDC
:1037000000000240000402400030014080B584B057
:1037100002AF0346FB71FB79002B14D10323009306
:10372000052301931A484FF4806100220023FFF71C
:1037300077F8032300930523019316480C210022F8
:103740000023FFF76DF8FB79012B0AD103230093C7
:10375000052301930E484FF4604100220023FFF738
:103760005FF8FB79022B09D1032300930523019312
:1037700009480D2100220023FFF752F8FB79032BA3
:1037800002D10648AFF300800837BD4680BD00BFB8
:1037900000040240000802400020024000380040BF
:1037A00080B584B002AF0346FB71FB79002B09D1D1
:1037B00003230093062301930E483821002200239F
:1037C000FFF72EF8FB79012B0AD103230093062380
:1037D000019309484FF4E05100220023FFF720F83D
:1037E000FB79032B02D10548AFF300800837BD46B3
:1037F00080BD00BF0004024000080240003C0040C1
:1038000080B584B000AF7860786800F02FF9F86078
:10381000FB685A681F4B9A4206D91F4B1E4A126B0F
:1038200042F480021A6305E01B4B1B4A126B42F400
:1038300000121A63FB68DA68164B9A4206D9164BD7
:10384000154A126B42F480021A6305E0124B124AC9
:10385000126B42F400121A63104B00225A610F4B94
:103860000022DA610D4B00221A620C4B00225A62D0
:103870000A4B00229A62094B0022DA62074B0022AF
:103880001A63064B00225A63044B00229A631037D6
:10389000BD4680BD0F640240003802403055002014
:1038A00080B586B000AFF860B9607A607B80F86858
:1038B00000F0DCF878617B69DB685B68002B0AD17B
:1038C0007B695B685B68002B05D1BB68002B04D16A
:1038D0007B68002B01D1002375E07B6900229A826E
:1038E0003B4B00221A623A4B0022DA61FB680C3330
:1038F0001A46374B5A607A88354B1A617B691A68C9
:10390000334B1A60324B4022DA60BB68002B07D081
:10391000BA682F4B9A602E4B4FF480629A6107E091
:103920007B6910331A462A4B9A60294B00229A6110
:103930007B695B6818463D21FFF722FC7B695B6869
:1039400018462349FCF716FD7B699A68204B1A60DC
:103950001F4B0022DA607B68002B07D07A681C4B73
:103960009A601B4B4FF480629A6107E07B691033C9
:103970001A46174B9A60164B00229A617B69DB68E6
:1039800018463D21FFF7FCFB7B69DB6818461049B0
:10399000FCF7F0FC7B69DB687A69D268126842F058
:1039A00001021A607B695B687A695268126842F0AA
:1039B00001021A60FB689B889BB243F003039AB232
:1039C000FB689A80012318461837BD4680BD00BFAA
:1039D0003055002080B584B000AF7860786800F082
:1039E00045F8F860FB68DB685B68002B12D1FB6868
:1039F0005B685B68002B0DD17B681B899BB203F071
:103A00000303002B06D07B681B899BB203F0800365
:103A1000002B01D0012300E00023DBB21846103751
:103A2000BD4680BD80B582B000AF7860786800F098
:103A30001DF803465B6818460837BD4680BD00BFC9
:103A400080B584B000AF7860786800F00FF8F86057
:103A5000FB685B681846FFF72BFCFB68DB681846C1
:103A6000FFF726FC1037BD4680BD00BF80B485B08F
:103A700000AF78607A680C4B9A4201D10B4BFB6027
:103A80007A680B4B9A4201D10A4BFB607A680A4B69
:103A90009A4201D1094BFB60FB6818461437BD46BA
:103AA0005DF8047B704700BF0030014048010020F2
:103AB0000038004060010020003C004078010020F8
:103AC00080B483B000AF7860002318460C37BD4641
:103AD0005DF8047B704700BF80B483B000AFC7E9D6
:103AE00000013B681B78002B14BF00230123DBB2CD
:103AF00018460C37BD465DF8047B704780B483B030
:103B000000AFC7E900013B6801221A700C37BD46BF
:103B10005DF8047B704700BF90B5ADF5235D89B0BB
:103B200000AF01F0EBF901F01DFA07F12003203B93
:103B30001846FFF761F907F16003183B1846FFF7D5
:103B40003DF9002307F5235202F11C02136055E0F2
:103B5000002307F5235C0CF1180CCCF8003032E0A0
:103B600007F16003183B184607F5235202F11C02C7
:103B7000116800F0C1F9044607F5235303F1080367
:103B8000184640F6FF7140F6FF7240F6FF7300F0F2
:103B900077F8204607F5235303F11803196807F552
:103BA000235C0CF1080CDCE9002300F067F907F551
:103BB000235202F118021368013307F5235C0CF15C
:103BC000180CCCF8003007F5235202F118021468E3
:103BD00000F08AF903469C420CBF00230123DBB2AC
:103BE000002BBDD107F5235C0CF11C0CDCF8003078
:103BF000013307F5235202F11C02136007F523532A
:103C000003F11C031C6800F087F903469C420CBFBB
:103C100000230123DBB2002B9AD1FFF787F907F5C8
:103C2000235C0CF1140CCCF8000007F5235202F1D0
:103C300014021068002100F0E5F907F16003183B59
:103C400007F5235C0CF1140CDCF80000194600F0B9
:103C50008BF907F5235202F114021068FFF786F979
:103C6000024607F12003203B1046194600F05CF99C
:103C700007F5235303F11403186801F001F8F7E77F
:103C80002DE9B00385B000AFF86079813A81FB80FF
:103C900038894FF00001FA884FF000034FEA0339EA
:103CA00049EA12594FEA023840EA080041EA09019C
:103CB0007A894FF000031D0645EA1225140640EAF2
:103CC000040241EA0503F968C1E90023FB681846CC
:103CD0001437BD46BDE8B003704700BF80B483B061
:103CE00000AF78607B68D3E900231346C3F30B036E
:103CF00018460C37BD465DF8047B7047B0B483B0FE
:103D000000AF78607968D1E9004508484FF00001BC
:103D100000EA040001EA0501020B42EA01520B0B22
:103D2000134618460C37BD46B0BC704700F0FF0084
:103D3000B0B483B000AF78607968D1E900454FF046
:103D40007F404FF00F0100EA040001EA0501020E76
:103D500042EA01220B0E134618460C37BD46B0BC92
:103D6000704700BF90B585B000AFF860B9607A6069
:103D7000BB6803F00103002B3ED1F968BA68134613
:103D80005B0013449B00002B00DA0733DB1008466E
:103D9000194600F05BF903467A68D2B21A70F968E6
:103DA000BA6813465B0013449B00002B00DA07330C
:103DB000DB1001330846194600F048F90446F9685B
:103DC000BA6813465B0013449B00002B00DA0733EC
:103DD000DB1001330846194600F038F903461B781A
:103DE00023F00F03DAB27B6803F470631B0ADBB2C3
:103DF0001343DBB223703EE0F968BA6813465B00F8
:103E000013449B00002B00DA0733DB1008461946E9
:103E100000F01CF90446F968BA6813465B001344C5
:103E20009B00002B00DA0733DB100846194600F030
:103E30000DF903461B7803F00F03DAB27B68DBB29F
:103E40001B01DBB21343DBB22370F968BA68134677
:103E50005B0013449B00002B00DA0733DB100133B7
:103E60000846194600F0F2F803467A6802F47F62C9
:103E70001209D2B21A701437BD4690BD90B585B004
:103E800000AFF860B960C7E90023BA6813465B0069
:103E90009C183B461846FFF721FF0346F868214669
:103EA0001A46FFF75FFFBA6813465B0013445C1CB9
:103EB0003B461846FFF722FF0346F86821461A469C
:103EC000FFF750FFBA6813465B0013449C1C3B4647
:103ED0001846FFF72DFF0346F86821461A46FFF7FC
:103EE00041FF1437BD4690BD80B400AF2023184673
:103EF000BD465DF8047B704780B582B000AF786046
:103F000039607A683B6810461946FFF7B1F80346F6
:103F100018460837BD4680BD80B400AF4823184618
:103F2000BD465DF8047B704780B582B000AF786015
:103F300039607A683B68111D1A46482308461146C5
:103F40001A4601F0B3FB0837BD4680BD80B483B08C
:103F500000AF786039607B683A68DA640C37BD4638
:103F60005DF8047B704700BF80B582B000AF786019
:103F70003960786800F05EF80346002B14BF002318
:103F80000123DBB2002B22D07A683B6802F58871EE
:103F90001A464FF42253084611461A4601F086FB92
:103FA0007B6803F5265310333A6819464FF42253C1
:103FB000084611461A4601F079FB7B681A1D7B689A
:103FC00003F5887310461946FFF7C0FF16E07868BE
:103FD00000F030F80346012B14BF00230123DBB2AD
:103FE000002B0BD07A683B6802F588711A464FF4B3
:103FF0002253084611461A4601F058FB0837BD46C1
:1040000080BD00BF80B582B000AF7860396078684D
:1040100000F010F802463B689A4214BF00230123C7
:10402000DBB2002B00D002E07B683A681A600837E8
:10403000BD4680BD80B483B000AF78607B681B68EC
:1040400018460C37BD465DF8047B704780B582B0DA
:1040500000AF786039607B6818463968FEF7D6FF94
:10406000034618460837BD4680BD00BF80B483B004
:1040700000AF7860002318460C37BD465DF8047B1E
:10408000704700BF90B58BB000AF78607B680022AE
:104090005A7007F108031846002100224FF47D638F
:1040A000FFF7EEFD7968D7E90223C1E9022307F1A2
:1040B00010031846002140F6FF720023FFF7E0FDD1
:1040C0007968D7E90423C1E9042307F118031846E6
:1040D00040F6FF7100220023FFF7D2FD7968D7E98F
:1040E0000623C1E9062307F1200318460021002218
:1040F0000023FFF7C5FD7968D7E90823C1E9082344
:104100000020FDF7F1FD0346002B14BF002301231F
:10411000DBB2002B0DD00A48FDF7B8FF094800219B
:10412000FEF7C2F87A68074B02F128040FCB84E847
:104130000F000720FEF744F92C37BD4690BD00BFA5
:10414000CC6400086C55002090B583B000AF786057
:104150007B681B7883F00103DBB2002B32D01B4B52
:104160001A787B6893F828309A4209D0786800F072
:10417000A9F97A68154B02F128040FCB84E80F00E7
:10418000124B1A797B6893F82C309A4209D07868E0
:1041900000F036F97A680D4B02F128040FCB84E861
:1041A0000F000A4B5A797B6893F82D309A4209D058
:1041B000786800F0ADF87A68044B02F128040FCB60
:1041C00084E80F000C37BD4690BD00BF6C55002041
:1041D00090B58BB000AFF860C7E9002300237B6285
:1041E0001EE000233B620DE0F868796AFFF784FE69
:1041F00003461846396AD7E90023FFF73FFE3B6ABA
:1042000001333B623C6AFFF76FFE03469C420CBFE2
:1042100000230123DBB2002BE6D17B6A01337B62F2
:104220007C6AFFF779FE03469C420CBF0023012302
:10423000DBB2002BD5D107F1100318460021002274
:104240000023FFF71DFD0023FB6122E00023BB617B
:1042500019E0FA691346DB001344DB00104A82FBC5
:1042600003121A445211DB17D31AF8681946FFF7E4
:1042700043FE03461846B969D7E90423FFF7FEFD5C
:10428000BB690133BB61BB69042BE2D1FB6901331C
:10429000FB61FB690C2BD9D12C37BD4690BD00BF0B
:1042A0008988888880B582B000AF7860FEF73EFECE
:1042B0000346184600F0BEF902467B681046D3E973
:1042C0000223FFF785FFFEF731FE0346184600F094
:1042D00085F9FEF72BFE0346184600F0ABF90246BF
:1042E0007B681046D3E90223FFF772FF7B68002248
:1042F0001A700837BD4680BD80B483B000AF7860C7
:104300007B6801221A700C37BD465DF8047B70474C
:1043100090B587B000AF7860FEF708FE03461846F8
:1043200000F088F938617B6893F82D20314BA3FBAE
:104330000213D9080B465B000B449B00D31ADBB277
:104340001A461346DB001344DB002B4A82FB0312A0
:104350005210DB17D31AFB60284B5A79254BA3FB6D
:104360000213D9080B465B000B449B00D31ADBB247
:104370001A461346DB001344DB001F4A82FB03127C
:104380005210DB17D31ABB60FFF7AEFD024613468F
:104390005B0013449B087B611AE03869F968FEF7FB
:1043A0001BFD02467B6810467969D3E90223FFF7BB
:1043B00065FD3869B968FEF70FFD02467B68104657
:1043C0007969D3E90423FFF759FD7B6901337B61E8
:1043D0007C69FFF789FD03469C420CBF0023012343
:1043E000DBB2002BD9D17B6801225A701C37BD4645
:1043F00090BD00BFABAAAAAAABAAAA2A6C550020FE
:1044000090B587B000AF7860FEF790FD0346184680
:1044100000F010F938617B6893F82C301A46134687
:10442000DB001344DB00254A82FB03121A445211BD
:10443000DB17D31AFB60224B1B791A461346DB00AD
:104440001344DB001D4A82FB03121A445211DB178E
:10445000D31ABB60FFF748FD03465B009B087B61F6
:104460001AE03869F968FEF7B7FC02467B68104627
:104470007969D3E90223FFF701FD3869B968FEF7CE
:10448000ABFC02467B6810467969D3E90623FFF747
:10449000F5FC7B6901337B617C69FFF725FD0346F1
:1044A0009C420CBF00230123DBB2002BD9D17B68D7
:1044B00001225A701C37BD4690BD00BF898888888C
:1044C0006C55002090B587B000AF7860FEF72EFDE8
:1044D0000346184600F0AEF838617B6893F8283040
:1044E0001A461346DB001344DB00244A82FB031206
:1044F0001A445211DB17D31AFB60214B1B781A4662
:104500001346DB001344DB001C4A82FB03121A44EF
:104510005211DB17D31ABB60FFF7E6FC03469B087A
:104520007B611AE03869F968FEF756FC02467B6841
:1045300010467969D3E90223FFF7A0FC3869B9680E
:10454000FEF74AFC02467B6810467969D3E90823E6
:10455000FFF794FC7B6901337B617C69FFF7C4FC46
:1045600003469C420CBF00230123DBB2002BD9D1B0
:104570007B6801225A701C37BD4690BD89888888A7
:104580006C55002080B582B000AFFDF70FFA78605F
:104590007868FDF7E7F909480021FDF785FE074B2C
:1045A0005B791946054B1B791A46044B1B78044866
:1045B00001F026F90837BD4680BD00BF6C550020CC
:1045C000E064000880B483B000AF78607B68DB6C87
:1045D00018460C37BD465DF8047B704780B582B045
:1045E00000AF78607B6804331846FFF7EBFF0246A4
:1045F0007B6803F588739A4214BF00230123DBB262
:10460000002B0AD07B681A1D7B6803F526531033F4
:1046100010461946FFF79AFC08E07B681A1D7B6874
:1046200003F5887310461946FFF790FC0837BD461E
:1046300080BD00BF80B582B000AF78607B68043376
:104640001846FFF7BFFF02467B6803F588739A425E
:1046500004D17B6803F52653103302E07B6803F531
:10466000887318460837BD4680BD00BF80B483B04C
:1046700000AF7860002318460C37BD465DF8047B18
:10468000704700BF80B586B000AF04200121FCF761
:1046900039F94FF480400121FCF770F900233B7594
:1046A0000023BB754FF480533B610023FB7503234C
:1046B0007B7507F1100312481946FBF751FF0220E2
:1046C0000C21FCF74DFE4FF48053BB600123BB73FC
:1046D00000233B7310237B7307F108031846FBF795
:1046E0009FFE28233B7100237B710123BB710123B3
:1046F000FB713B1D1846FBF7DFFD1837BD4680BD3B
:104700000008024080B584B000AF08200121FCF70A
:1047100017F93C23BB604FF4DC73BB800023BB81E3
:104720000023FB800023BB730C4801210122FCF70E
:1047300009FF3B1D09481946FCF750FE32233B7028
:104740000123FB7000237B700023BB703B4618469F
:10475000FBF7B2FD1037BD4680BD00BF000C004026
:1047600080B582B000AF78607B684FF4DC721A606D
:10477000FFF788FFFFF7C6FF0837BD4680BD00BFC3
:1047800080B582B000AF786003480121FCF7BAFE23
:104790000837BD4680BD00BF000C004080B582B028
:1047A00000AF786005480021FCF7ACFE034800210B
:1047B000FCF77EFE0837BD4680BD00BF000C004000
:1047C00090B583B000AF16480121FCF7DFFE034629
:1047D000002B0CBF00230123DBB2002B1CD0FEF703
:1047E000A5FB03461846FEF7C1FB78600C48012183
:1047F000FCF7F6FE786800F0E5F803461C46FFF784
:104800008BFB03469C422CBF00230123DBB2002B11
:1048100002D07868FEF716F90C37BD4690BD00BF90
:10482000000C004090B585B000AF4FF48050FBF70E
:1048300065FE0346002B0CBF00230123DBB2002BD7
:104840004ED0FEF773FB0346184600F0C7F8F86039
:10485000FEF76CFB03461846FEF788FBB860FEF7D0
:1048600065FB0346184600F0C5F878604FF48050A9
:10487000FBF768FEB86800F0A5F803461C46FFF792
:104880004BFB0346E31A3B603B680F2B10DC3B6895
:1048900013F10F0F0CDB3B68002B03DDF86800F011
:1048A00023F805E03B68002B02DAF86800F032F8E4
:1048B000786800F053F80346002B08D0FEF736FB6B
:1048C00003461846FFF78AFE786800F05FF8F8683C
:1048D00000F036F8B86800F065F8B868FEF7B2F88E
:1048E0001437BD4690BD00BF80B582B000AF786080
:1048F0007B681B689A1F7B681A607B681B689BB289
:1049000003481946FCF7E2FD0837BD4680BD00BFED
:10491000000C004080B582B000AF78607B681B68F7
:104920009A1D7B681A607B681B689BB20348194616
:10493000FCF7CCFD0837BD4680BD00BF000C004031
:1049400080B582B000AF786003480021FCF7B0FD6D
:104950000837BD4680BD00BF000C004080B483B066
:1049600000AF78607B685B78002B08D07B681B7891
:1049700083F00103DBB2002B01D0012300E0002310
:1049800018460C37BD465DF8047B704780B483B091
:1049900000AF78607B6800225A700C37BD465DF826
:1049A000047B704780B582B000AF7860044800F0A7
:1049B0009FFF7B6800221A650837BD4680BD00BF97
:1049C0000C65000880B483B000AF78607B681B6D15
:1049D00018460C37BD465DF8047B704780B483B041
:1049E00000AF78607B68903318460C37BD465DF8A1
:1049F000047B704780B483B000AF78607B68583325
:104A000018460C37BD465DF8047B704780B483B010
:104A100000AF7860002318460C37BD465DF8047B74
:104A2000704700BF80B586B000AF78607B68002219
:104A30001A6107F108031846002100220023FFF73E
:104A40001FF97968D7E90223C1E9002307F11003B0
:104A50001846FF2100220023FFF712F97968D7E9F1
:104A60000423C1E902231837BD4680BD80B58CB050
:104A700000AFF8607A603B600B46FB72FB7A303B1C
:104A80007B62224A7B6ADB0013445A68204B134442
:104A90003B620023FB617B68BB6100237B610023D9
:104AA000FB622CE00023BB6223E03A68FB6A9A4277
:104AB00019D1FB6A3A6A13441B781A46BB6A42FA58
:104AC00003F303F00103002B0DD07A68BB69134494
:104AD000F8681946FEF780F903461846F96AD7E9DF
:104AE0000E23FFF7CBF9BB6A0133BB627B6801334E
:104AF0007B60BB6A082BD8D1FB6A0133FB62FB6A7F
:104B0000092BCFD13037BD4680BD00BF806600087D
:104B10003C65000890B58BB002AFF860B9607A6070
:104B20000023FB611DE00023BB610DE0F868F9691B
:104B3000FEF752F903461846B969D7E90C23FFF787
:104B40009DF9BB690133BB61FFF7CEF90346002B2A
:104B50000CBF00230123DBB2002BE7D1FB6901333B
:104B6000FB61FC69FFF7D8F903469C420CBF0023A8
:104B70000123DBB2002BD6D100233B6100237B61F4
:104B800012E03B69B868194600F05EF803461978F0
:104B9000D7E90E23CDE90023F8687A690023FFF7EF
:104BA00065FF7B6909337B613A697B689A4207D06C
:104BB0007C69FFF7B1F903469C4201D0012300E074
:104BC0000023002BDDD12437BD4690BDB0B588B0A1
:104BD00004AFF860B9607A60FA68BB6802F1140447
:104BE0001D4628686968AA68EB680FC428692060B8
:104BF000AA8AAB7DA280A371FEF798F903461846F6
:104C0000FFF718FDFB6803F11401FB68D3E90023EB
:104C1000CDE90023FB68D3E90223CDE902237A68BA
:104C2000FFF778FF1037BD46B0BD00BF80B483B03A
:104C300000AF786039607A683B68134418460C37D7
:104C4000BD465DF8047B704780B582B000AF7860E8
:104C500039607B6818463968FFF7E8FF0346184655
:104C60000837BD4680BD00BF80B483B000AF786018
:104C7000002318460C37BD465DF8047B704700BF23
:104C800090B585B000AF786090B06B461F335B097C
:104C90005C017B6858331846FFF7F4F9FCF786FE91
:104CA000F860F868FCF748FE7B680433184600217A
:104CB00000F076F87B6804331846FDF741FF7B6807
:104CC00004331846012100F06BF87B6890331846D6
:104CD000FFF746FD7B6890331846FFF751FDF868F3
:104CE000214600F043F80346002B31D0F8682146F6
:104CF000FCF748FE2378002B14D17868FFF79AF967
:104D00000346002B0CBF00230123DBB2002B1FD076
:104D100078680021FFF776F97B6858331846FFF76B
:104D2000C1FA15E02378012B12D178680121FFF731
:104D300069F97B6858331846FFF7DEFA7B6803F1A0
:104D400098016378A21C084611461A46FFF73EFFF9
:104D50007868FFF76FF90346002B00D0BFE77B6848
:104D600058331846FFF7F0F900BFB8E780B582B0B6
:104D700000AF786039607B681B68002B0BDD7B68B7
:104D8000203338681946202200F090FC7868FCF740
:104D900039FE012300E0002318460837BD4680BDD8
:104DA00080B582B000AF786039607B681A683B6874
:104DB0009A4200D114E07B681B68002B01D10A4A9B
:104DC00000E00A4A3B68002B01D1074B00E0074B8B
:104DD000074811461A4600F013FD7B683A681A60CE
:104DE0000837BD4680BD00BFDC680008E4680008E5
:104DF000EC6800080649074A074B9A42BEBF51F8C3
:104E0000040B42F8040BF8E70448804704480047C5
:104E1000C06900080000002010020020FD4E0008BC
:104E2000DD0100083349344A002301E041F8043B26
:104E30009142FBD3FEF770FEFEE7FEE7FEE7FEE7DA
:104E4000FEE7FEE7FEE7FEE7FEE7FEE7FEE7FEE73A
:104E5000FEE7FEE7FEE7FEE7FEE7FEE7FEE7FEE72A
:104E6000FEE7FEE7FEE7FEE7FEE7FEE7FEE7FEE71A
:104E7000FEE7FEE7FEE7FEE7FEE7FEE7FEE7FEE70A
:104E8000FEE7FEE7FEE7FEE7FEE7FEE7FEE7FEE7FA
:104E9000FEE7FEE7FEE7FEE7FEE7FEE7FEE7FEE7EA
:104EA000FEE7FEE7FEE7FEE7FEE7FEE7FEE7FEE7DA
:104EB000FEE7FEE7FEE7FEE7FEE7FEE7FEE7FEE7CA
:104EC000FEE7FEE7FEE7FEE7FEE7FEE7FEE7FEE7BA
:104ED000FEE7FEE7FEE7FEE7FEE7FEE7FEE7FEE7AA
:104EE000FEE7FEE7FEE7FEE7FEE7FEE7FEE7FEE79A
:104EF000FEE70000200200207856002080B500AFB9
:104F0000154B154AD2F8882042F47002C3F8882065
:104F1000124B124A126842F001021A600F4B002233
:104F20009A600E4A0D4B1B6823F0847323F4803380
:104F300013600A4B0A4A5A60084B084A126822F466
:104F400080221A60054B0022DA6000F087F8024BDD
:104F50004FF000629A6080BD00ED00E00038024032
:104F60001030002480B487B000AF00233B610023E1
:104F70007B610223FB600023BB6002237B60324B1A
:104F80009B6803F00C033B613B69042B07D0082BA3
:104F900009D0002B3FD12D4B2D4A1A603FE02B4BFF
:104FA0002C4A1A603BE0284B5B6803F480039B0D9E
:104FB000BB60254B5B6803F03F037B60BB68002B45
:104FC0000DD0244A7B68B2FBF3F21F4B596847F6B9
:104FD000C0730B409B0903FB02F37B610CE01C4A8E
:104FE0007B68B2FBF3F2184B596847F6C0730B406D
:104FF0009B0903FB02F37B61134B5B6803F44033B3
:105000001B0C01335B00FB607A69FB68B2FBF3F2B7
:105010000E4B1A6003E00D4B0D4A1A6000BF0A4B9D
:105020009B6803F0F0031B090B4AD35CDBB23B61C6
:10503000064B1A683B69DA40044B1A601C37BD46C0
:105040005DF8047B704700BF0038024090010020EB
:105050000024F40000127A009401002080B483B090
:1050600000AF00237B6000233B60354B344A12685D
:1050700042F480321A60324B1B6803F400333B6009
:105080007B6801337B603B68002B03D17B68B3F501
:10509000C06FF0D12A4B1B6803F40033002B02D001
:1050A00001233B6001E000233B603B68012B42D1C0
:1050B000234B234A126C42F080521A64214B214A3E
:1050C000126842F480421A601D4B1D4A92689A6031
:1050D0001B4B1B4A926842F400429A60184B184AD4
:1050E000926842F4A0529A60154B174A5A60144BCA
:1050F000134A126842F080721A6000BF104B1B689E
:1051000003F00073002BF9D0104B40F205721A60C7
:105110000B4B0B4A926822F003029A60084B084A34
:10512000926842F002029A6000BF054B9B6803F050
:105130000C03082BF9D10C37BD465DF8047B704792
:10514000003802400070004008544007003C024014
:105150000A4B10B50446186818B183690BB900F002
:1051600015FA132C07D8064850F83430013302D012
:1051700000EBC40010BD002010BD00BF04020020E1
:105180008C550020F8B5044600F092F9002705463A
:10519000132630463946ABBE06462E602046F8BD83
:1051A000431C01D1FFF7EEBF704700002DE9FF4718
:1051B000204F01970326002303960124029301AD9B
:1051C00020462946ABBE8046DFF874900197042341
:1051D0000396C9F80080029320462946ABBE82465A
:1051E000DFF86080019708230396C8F800A00293B7
:1051F00020462946ABBE04460F4940460C600134A8
:1052000004BF03680B604C4600220C4B4FF0FF3587
:10521000D5500832A02AF8D12268006809681A60BF
:1052200000225A609860DA6019615A6104B0BDE8E2
:10523000F08700BF14690008885500208C550020B5
:10524000805500207C55002030B585B001AD01901F
:1052500002910392062420462946ABBE044620460E
:10526000FFF79EFF05B030BD70B50E461546FFF73F
:105270006FFF044630B900F01BF9092303604FF0BB
:10528000FF3070BD006831462A46FFF7DDFF431C42
:1052900003D06368281A0344636070BDF7B50C46F9
:1052A0001646FFF755FF054618B900F001F9092326
:1052B00004E0022E04D900F0FBF81623036017E087
:1052C000012E03D14368E41815D5F4E7022E12D15C
:1052D00002AE036846F8083D0C2738463146ABBE9F
:1052E00006463046FFF75CFF431C18BF241802D166
:1052F0004FF0FF300FE02B686F468DE818000A264C
:1053000030463946ABBE06463046FFF749FF002817
:10531000EEDB6C60204603B0F0BDFFF7BFBF30B5D9
:1053200085B001AD019002910392052420462946E3
:10533000ABBE04462046FFF733FF05B030BD70B565
:105340000E461546FFF704FF044620B900F0B0F8FA
:105350000923036011E0006831462A46FFF7DFFFAA
:10536000031E0ADB6268E81A02449D42626006D1AD
:105370000020BDE87040FFF705BF4FF0FF3070BD63
:1053800037B502AC022544F8040D28462146ABBED1
:1053900004462046FFF704FF03B030BD38B505468C
:1053A000FFF7D6FE044630B900F082F80923036007
:1053B0004FF0FF3038BD013D012D09D8084B9A68E8
:1053C0001B699A4204D14FF0FF330360002038BDBF
:1053D0002068FFF7D5FF10B94FF0FF33236038BDC9
:1053E0008C55002008B50A4B1A680AB9094A1A6098
:1053F0001B686A461844904206D900F059F80C23FD
:1054000003604FF0FF3008BD014A1060184608BD28
:10541000845500207856002070B50C46FFF798FEA2
:10542000054630B900F044F8092303604FF0FF301F
:1054300070BD636843F4005363604FF48063E362BC
:105440000C2630462946ABBE05462846FFF7A8FE87
:10545000431C1CBF2061002070BD38B53C220546AE
:105460000C460846002100F02AF928462146BDE8EE
:105470003840FFF7D1BF70B5FFF76AFE0925044633
:1054800018B900F015F805600FE028462146ABBEBC
:105490000446012C09D000F00BF800240546132621
:1054A00030462146ABBE06462E60204670BD000049
:1054B000014B1868704700BF0402002008B5074B75
:1054C000044613B10021AFF30080054B1868836ACE
:1054D00003B19847204600F057FF00BF00000000CE
:1054E0007C690008F8B5074600F1480494B1A56846
:1054F0006668013E0CD4AB89012B07D9B5F90E3093
:10550000013303D03846294600F070FE6835F0E7D5
:105510002468EBE7F8BD0000002310B504460360E3
:105520004360836081814366C2810361436183611B
:1055300019465C30082200F0C2F8054B6362054B47
:10554000A362054BE362054B2462236310BD00BFD9
:1055500021590008435900087B5900089F59000849
:1055600070B54B1E68255D430E4605F1740100F0D1
:10557000F3F8044640B1002180E842000C30A060FE
:1055800005F1680200F09BF8204670BD836910B5F4
:10559000044633BB8364C3640365124B124A1B6821
:1055A0008262984204BF0123836100F01FF86060AB
:1055B000204600F01BF8A060204600F017F80421F8
:1055C000E06000226068FFF7A7FFA06809210122C0
:1055D000FFF7A2FFE06812210222FFF79DFF0123DF
:1055E000A36110BD7C690008E5540008F8B51B4BA9
:1055F0001E68B369074613B93046FFF7C7FF483640
:10560000B4687368013B04D4B4F90C5075B16834C4
:10561000F8E733682BB938460421FFF7A1FF306063
:1056200008B13668ECE70C233B60F8BD4FF6FF731A
:10563000E3810123A38165662560A560656025611E
:105640006561A56104F15C002946082200F037F885
:105650006563A563A564E5642046F8BD7C69000820
:1056600070B50E4B0E4DED1AAD1000241E46AC4227
:1056700004D056F8242090470134F8E700F098FE53
:10568000084D094BED1AAD1000241E46AC4204D063
:1056900056F8242090470134F8E770BD0802002036
:1056A000080200200C0200200802002010B5002390
:1056B000934203D0CC5CC4540133F9E710BD0244DB
:1056C0000346934202D003F8011BFAE7704700003B
:1056D00030B500293CD051F8042C0B1F1D49002A7D
:1056E000B8BF9B180A680C4612B95A600B6030BDEF
:1056F00093420DD219685818904203D15A58114458
:10570000426819605A60236030BD994203D80A4646
:1057100051680029F9D1146815199D420AD11B68F6
:105720002344D0188842136012D1086803441360E0
:105730004B680CE002D90C23036030BD18681C18BC
:105740008C4203D10C68496820441860596053604A
:1057500030BD00BF3056002070B5CD1C25F00305CC
:1057600008350C2D38BF0C25002D06463FDB8D4239
:105770003DD3214B1C6818462146A1B10B685B1B29
:105780000ED40B2B03D90B60CC18CD501FE08C42EC
:1057900002D1626802601AE04B6863600C4616E052
:1057A0000C464968E9E7154C23681BB9304600F000
:1057B000A7F820602946304600F0A2F8431C0146B5
:1057C00015D0C41C24F0030484420AD1256004F1DE
:1057D0000B00231D20F00700C31A0BD05A42E250E1
:1057E00070BD3046611A00F08BF80130EED10C2309
:1057F0003360002070BD00BF305600202C560020C2
:105800000FB40A4B13B51C6824B1A36913B9204621
:10581000FFF7BCFE05AB2046A168049A019300F097
:10582000F3F802B0BDE8104004B070470402002055
:1058300070B50E46054618B183690BB9FFF7A6FE91
:10584000AC68A389190701D5236983B92846214685
:1058500000F0CAFB58B14FF0FF3070BD002B0EDBDB
:10586000236816F8012C1A70236801332360A3689B
:1058700016F8012B013BA360002AEFD117E0A269C3
:10588000934209DB236816F8012C1A7023681978F3
:105890000A29EAD1284602E016F8011C28462246C9
:1058A00000F03CFBB0F1FF3250425041D2E7002BF8
:1058B00016DAA269934208DB23680A221A70236869
:1058C0001978914210D1284601E028460A21224643
:1058D00000F024FBB0F1FF335842584130B1BAE731
:1058E00023680A221A702368013323600A2070BDDE
:1058F000024B01461868FFF79BBF00BF040200205F
:1059000038B5064C0023054608462360FFF76AFDBC
:10591000431C02D1236803B12B6038BD74560020AC
:1059200010B50C46B1F90E1000F0FAFC002803DBAC
:10593000636D0344636510BDA38923F48053A38181
:1059400010BD2DE9F0411D468B89DB0507460C464D
:10595000164605D5B1F90E100022022300F070FCA6
:10596000A389B4F90E1023F48053A381384632463C
:105970002B46BDE8F04100F025BB10B50C46B1F94F
:105980000E1000F05DFC431CA38903D123F4805367
:10599000A38110BD43F48053A381606510BDB1F9AC
:1059A0000E1000F08FBB034613F8012B002AFBD129
:1059B000181A013870479368013B002B10B59360AB
:1059C00005DA9469A34208DBCBB20A2B05D0136831
:1059D000581C10601970C8B210BDBDE8104000F02E
:1059E0009DBAF8B505460E461446D718BC4208D0F5
:1059F000284614F8011B3246FFF7DDFF431CF5D1A2
:105A000000E00020F8BD00002DE9F0439DB00D46F8
:105A100017460393064618B183690BB9FFF7B6FD25
:105A2000734B9D4201D1756808E0724B9D4201D1D4
:105A3000B56803E0704B9D4208BFF568AB89180755
:105A40000AD52B6943B10023099320238DF829300F
:105A500030238DF82A3038E03046294600F0C4FA69
:105A60000028F0D04FF0FF30BFE0039A111D1268FC
:105A70000391002A70DB0792013423782E2B7DD00E
:105A80005E4F21783846032200F03AFC30B1C71B44
:105A9000049B4020B84003430493013421785848C4
:105AA0008DF828100622671C00F02AFC002800F060
:105AB0008A80544B002B7DD1039B073323F00703CF
:105AC00008330393099B434409933B461C4613F850
:105AD000012B1AB9B4EB07090ED002E0252AF5D143
