:020000040800F2
:10000000180E00205D070008B5070008C72A000881
:10001000B5070008B5070008B50700080000000094
:10002000000000000000000000000000B50700080C
:10003000B507000800000000B507000861230008AC
:10004000B5070008B5070008B5070008B5070008A0
:10005000B5070008B5070008B5070008B507000890
:10006000B5070008B5070008B5070008B507000880
:10007000B5070008B5070008B5070008B507000870
:10008000B5070008B5070008B5070008B507000860
:10009000B5070008B5070008B5070008B507000850
:1000A000B5070008B5070008B5070008B507000840
:1000B000B5070008B5070008B5070008B507000830
:1000C000B5070008B5070008B5070008B507000820
:1000D000B5070008B5070008B5070008B507000810
:1000E000B5070008B5070008B5070008B507000800
:1000F000B5070008B5070008B5070008B5070008F0
:10010000B5070008B5070008B5070008B5070008DF
:10011000B5070008B5070008B5070008B5070008CF
:10012000B5070008B5070008B5070008B5070008BF
:10013000B5070008B5070008B5070008B5070008AF
:10014000B5070008B5070008B5070008B50700089F
:10015000B5070008B5070008B5070008553E0008B8
:10016000B5070008B5070008B5070008B50700087F
:10017000B5070008B5070008B5070008B50700086F
:10018000B5070008B507000880B582B000AF7860F9
:10019000154B1B785A1CD1B2134A11701A467B6852
:1001A000D9B2124B9954104B1B781A460F4B0021B1
:1001B00099540D4B1B7801330F2B05D87B680A2B04
:1001C00002D07B68002B0CD1074B00221A70074B22
:1001D00004201946002202F06DFC0346002B00D0DB
:1001E00000BF0837BD4680BD200500201005002057
:1001F00080B58AB000AF7860396000237B6200234D
:100200003B620023FB610023BB617B681B8A9BB2BE
:100210007B627B6A23F440537B623B68DB881A462F
:100220007B6A13437B627B6A9AB27B681A827B6823
:100230009B899BB27B627B6A23F4B05323F00C034F
:100240007B623B689A883B681B8913439AB23B6880
:100250005B8913439BB21A467B6A13437B627B6ABA
:100260009AB27B689A817B689B8A9BB27B627B6A2D
:1002700023F440737B623B689B891A467B6A134375
:100280007B627B6A9AB27B689A8207F10803184600
:1002900000F0FCFD7B68314A934203D07B68304A12
:1002A000934202D17B693B6201E03B693B627B6820
:1002B0009B899BB29BB21BB2002B0CDA3A6A1346A5
:1002C0009B0013449A001A443B681B685B00B2FB16
:1002D000F3F3FB610BE03A6A13469B0013449A0068
:1002E0001A443B681B689B00B2FBF3F3FB61FB699C
:1002F0001C4AA2FB03235B091B017B627B6A1B096F
:10030000642202FB03F3FA69D31ABB617B689B8901
:100310009BB29BB21BB2002B0CDABB69DB00323301
:10032000104AA2FB03235B0903F007037A6A134315
:100330007B620BE0BB691B0132330A4AA2FB032339
:100340005B0903F00F037A6A13437B627B6A9AB2FC
:100350007B681A812837BD4680BD00BF0010014070
:10036000001401401F85EB5180B483B000AF78606A
:100370000B46FB70FB78002B08D07B689B899BB2F7
:1003800043F400539AB27B689A8107E07B689B89AB
:100390009BB223F400539AB27B689A810C37BD4616
:1003A0005DF8047B704700BF80B483B000AF786015
:1003B0000B467B807B88C3F308039AB27B689A80E4
:1003C0000C37BD465DF8047B704700BF80B483B036
:1003D00000AF78607B689B889BB2C3F308039BB235
:1003E00018460C37BD465DF8047B704780B487B073
:1003F00000AF78600B467B8013467B7000233B6127
:100400000023FB600023BB6000237B617B687B6172
:100410007B88DBB25B09DBB23B617B8803F01F03A7
:10042000FB60FB68012202FA03F3BB603B69012B0E
:1004300003D17B690C337B6109E03B69022B03D15B
:100440007B6910337B6102E07B6914337B617B78CD
:10045000002B06D07B697A691168BA680A431A6072
:1004600006E07B697A691168BA68D2430A401A606B
:100470001C37BD465DF8047B704700BF80B487B071
:1004800000AF78600B467B800023FB6000237B611C
:100490000023BB600023FB747B88DBB25B09DBB20B
:1004A000BB607B8803F01F037B617B69012202FA3A
:1004B00003F37B61BB68012B07D17B689B899BB2EF
:1004C0001A467B6913407B6111E0BB68022B07D1A0
:1004D0007B681B8A9BB21A467B6913407B6106E0EE
:1004E0007B689B8A9BB21A467B6913407B617B8841
:1004F0001B0A9BB2FB60FB68012202FA03F3FB605C
:100500007B681B889BB21A46FB681340FB607B69C3
:10051000002B05D0FB68002B02D00123FB7401E007
:100520000023FB74FB7C18461C37BD465DF8047B3A
:10053000704700BF80B582B000AF0346FB71FA7907
:100540000C4913469B0013449B000B441B68002B73
:100550000AD0FA79074913469B0013449B000B44C9
:100560001B689847034600E0042318460837BD4639
:1005700080BD00BF0000002080B582B000AF034600
:10058000FB71FA790C4913469B0013449B000B4402
:100590005B68002B0AD0FA79074913469B00134485
:1005A0009B000B445B689847034600E00423184611
:1005B0000837BD4680BD00BF0000002080B584B074
:1005C00000AFB9607A603B600346FB733B68002B69
:1005D00001D104231AE0FA7B0E4913469B00134411
:1005E0009B000B4410331B68002B0ED0FA7B09498B
:1005F00013469B0013449B000B4410331B68B868E0
:1006000079683A689847034600E004231846103793
:10061000BD4680BD0000002080B584B000AFB96049
:100620007A603B600346FB733B68002B01D10423D7
:100630001AE0FA7B0E4913469B0013449B000B44BF
:1006400008335B68002B0ED0FA7B094913469B00E8
:1006500013449B000B4408335B68B86879683A68B8
:100660009847034600E0042318461037BD4680BD76
:100670000000002080B400AF01231846BD465DF89D
:10068000047B704780B400AF01231846BD465DF877
:10069000047B704780B400AF01231846BD465DF867
:1006A000047B704780B400AF01231846BD465DF857
:1006B000047B704780B483B000AF03463960FB71A0
:1006C000012318460C37BD465DF8047B704700BF18
:1006D00080B483B000AF03463960FB710123184634
:1006E0000C37BD465DF8047B704700BF80B485B011
:1006F00000AFF860B9607A60012318461437BD4630
:100700005DF8047B704700BF80B485B000AFF8602F
:10071000B9607A60012318461437BD465DF8047B42
:10072000704700BF80B485B000AFF860B9607A60F0
:10073000012318461437BD465DF8047B704700BF9F
:1007400080B485B000AFF860B9607A6001231846C4
:100750001437BD465DF8047B704700BF80B582B09A
:1007600000AF0F4B7B600F4B3B6007E03B681A1DEF
:100770003A607A68111D796012681A603B680A4A0B
:100780009342F3D309480A494FF000028842B8BFA8
:1007900040F8042BFADB00F057FA0837BD4680BD5D
:1007A000305900080000002010050020100500202E
:1007B0001806002080B400AFFEE700BFB0B592B0CD
:1007C00002AF0346FB71494B07F11C041D460FCDD8
:1007D0000FC42B682360464B07F108041D460FCD5C
:1007E0000FC42B6823600223FB63FB799B0007F196
:1007F0004002134453F8243C5B00BB6308237B6333
:10080000FB799B0007F14002134453F8383C3B63EB
:1008100000F03CFA012000F061FA00F071FA0346A2
:10082000002B0CBF01230023DBB2002B5AD13B6B02
:1008300000934FF48000796BBA6BFB6B00F088FA81
:10084000012000F0A3FA00BF2A4B1B6803F00073DD
:10085000002B0CBF01230023DBB2002BF4D10220BC
:1008600000F0A4FA002000F0BDFAFB79042B37D881
:1008700001A252F823F000BF8D0800089B08000871
:10088000AB080008BD080008CF080008002000F0F1
:10089000C5FA002000F0DEFA22E04FF4805000F0AC
:1008A000BDFA002000F0D6FA1AE04FF4A05000F094
:1008B000B5FA4FF4805000F0CDFA11E04FF4A0509B
:1008C00000F0ACFA4FF4805000F0C4FA08E04FF4A6
:1008D000A05000F0A3FA4FF4805000F0BBFA00BF24
:1008E00002F028F94037BD46B0BD00BF34530008C0
:1008F000485300080038024080B588B000AFF86067
:100900007A603B600B46FB727B68BB6101233B77DF
:100910000023BB770223FB7703237B773B683B6194
:1009200000233B750023BB750223FB7503237B75F6
:10093000FB7A082B42D801A252F823F06109000883
:100940006B090008750900087F090008890900087B
:10095000930900089D090008A7090008B1090008CB
:100960000120012100F03CFB28E00220012100F0E1
:1009700037FB23E00420012100F032FB1EE00820B9
:10098000012100F02DFB19E01020012100F028FBCF
:1009900014E02020012100F023FB0FE04020012182
:1009A00000F01EFB0AE08020012100F019FB05E0A9
:1009B0004FF48070012100F013FB00BF7B68002B17
:1009C00005D007F11803F868194601F06BFF3B6882
:1009D000002B05D007F11003F868194601F062FFFB
:1009E0002037BD4680BD00BFB0B584B000AF786091
:1009F0007B68184602F098F97B68043302241D4690
:100A000004E0284602F03CFF1435013CB4F1FF3FFE
:100A1000F7D102F063F80120FFF7D0FE4FF4E13088
:100A200003F0B6F91C4803F083FA1C4803214FF485
:100A300070420023FFF760FF786800F0BFF8786825
:100A400000F0EAF8786800F07FF87B68184602F05A
:100A500077F90023FB600EE0FA6813469B0013440D
:100A60009B007A68134404331846F96802F0D6FEF6
:100A7000FB680133FB60FB68022BEDDD07484FF498
:100A80000041012201F0B6FF054803F051FA7B68EE
:100A900018461037BD46B0BD5C530008000C02403C
:100AA0008053000880B582B000AF7860786800F0AD
:100AB0006DF8064803F03CFA05484FF480510122D6
:100AC00001F098FF034800F067FEFEE79C53000822
:100AD000000C0240B853000880B582B000AF7860C7
:100AE000084611461A460346FB700B46BB70134678
:100AF0003B80FA7813469B0013449B007A681344AA
:100B0000181D39883A8ABB8A02F000FF0837BD46B3
:100B100080BD00BF80B582B000AF786002F01CFAE3
:100B20000837BD4680BD00BF80B582B000AF786099
:100B30000448012101F044FF034618460837BD462A
:100B400080BD00BF000C024080B584B000AF78606B
:100B50000D4803F0EDF97B6893F89834FB7300BF00
:100B60007868FFF7E1FF03461A46FB7B93420CBF10
:100B700001230023DBB2002BF2D17B68FA7B83F8E0
:100B800098241037BD4680BDC853000880B582B098
:100B900000AF786000200649012202F0FBFD054B02
:100BA00000225A61044800F0F7FD0837BD4680BDB9
:100BB000DC53000800000240E053000880B582B01A
:100BC00000AF78607B68403318460E49012202F07E
:100BD000E1FD0346002B14BF01230023DBB2002BF1
:100BE00009D009484FF48041012201F003FF074872
:100BF000074900F0BDFD074800F0CEFD0837BD46AF
:100C000080BD00BFDC530008000C0240F453000814
:100C1000105400082054000880B582B000AF7860FE
:100C20000848032100220123FFF766FE7868FFF7DA
:100C30007BFF03461A467B6883F898240837BD4635
:100C400080BD00BF000C024080B5ADF5956D02AFD0
:100C50003B1D1846FFF7C8FE3A1D00230093FF23F3
:100C60000193104600210022FF23FFF735FF3B1DB3
:100C70001846FFF74FFF3B1D1846FFF713FF0023F1
:100C8000184607F59467BD4680BD00BF80B400AF2D
:100C9000104A104B1B6843F0010313600D4B0022F8
:100CA0009A600C4A0B4B1B6823F0847323F4803347
:100CB0001360084B084A5A60064A064B1B6823F427
:100CC00080231360034B0022DA60BD465DF8047B8D
:100CD000704700BF003802401030002480B483B059
:100CE00000AF0346FB71054B00221A70034AFB79E3
:100CF00013700C37BD465DF8047B70470238024024
:100D000080B582B000AF00233B600023FB7100235D
:100D1000BB71312000F0A0F90346BB713B68013381
:100D20003B603B68B3F5A06F02D0BB79002BF0D0DD
:100D3000312000F091F90346002B02D00123FB7112
:100D400001E00023FB71FB7918460837BD4680BDE2
:100D500080B485B000AFF860B9607A603B600A4942
:100D60007B689A01BB681A433B685B08013B1B0424
:100D70001A43FB681A43BB691B0613434B601437C5
:100D8000BD465DF8047B70470038024080B483B0F4
:100D900000AF0346FB71044AFB7913600C37BD4674
:100DA0005DF8047B704700BF6000474280B485B0A7
:100DB00000AF78600023FB60094B9B68FB60FB6819
:100DC00023F00303FB60FA687B681343FB60044A6B
:100DD000FB6893601437BD465DF8047B704700BF25
:100DE0000038024080B485B000AF78600023FB601B
:100DF000094B9B68FB60FB6823F0F003FB60FA681B
:100E00007B681343FB60044AFB6893601437BD465C
:100E10005DF8047B704700BF0038024080B485B0A5
:100E200000AF78600023FB60094B9B68FB60FB68A8
:100E300023F4E053FB60FA687B681343FB60044AC9
:100E4000FB6893601437BD465DF8047B704700BFB4
:100E50000038024080B485B000AF78600023FB60AA
:100E6000094B9B68FB60FB6823F46043FB607B6875
:100E7000DB00FA681343FB60034AFB689360143796
:100E8000BD465DF8047B70470038024080B489B0ED
:100E900000AF78600023BB6100237B610023FB610E
:100EA00002233B610023FB600223BB60484B9B682D
:100EB00003F00C03BB61BB69042B07D0082B09D0DE
:100EC000002B3FD17B68434A1A603FE07B68424A6F
:100ED0001A603BE03E4B5B6803F480039B0DFB60B4
:100EE0003B4B5B6803F03F03BB60FB68002B0DD0FE
:100EF000394ABB68B2FBF3F2354B596847F6C07309
:100F00000B409B0903FB02F3FB610CE0314ABB6819
:100F1000B2FBF3F22E4B596847F6C0730B409B09A6
:100F200003FB02F3FB612A4B5B6803F440331B0CA9
:100F300001335B003B61FA693B69B2FBF3F27B680A
:100F40001A6003E07B68234A1A6000BF204B9B684D
:100F500003F0F003BB61BB691B09BB611F4ABB699E
:100F600013441B78DBB27B617B681A687B69DA40CB
:100F70007B685A60164B9B6803F4E053BB61BB6906
:100F80009B0ABB61154ABB6913441B78DBB27B61CA
:100F90007B685A687B69DA407B689A600C4B9B6877
:100FA00003F46043BB61BB695B0BBB610B4ABB696C
:100FB00013441B78DBB27B617B685A687B69DA403B
:100FC0007B68DA602437BD465DF8047B704700BF5C
:100FD000003802400024F40000127A00B40000201F
:100FE00080B483B000AF78600B46FB70FB78002BB9
:100FF00006D00949084B1A6B7B6813430B6306E064
:101000000549054B1A6B7B68DB4313400B630C37B8
:10101000BD465DF8047B70470038024080B483B061
:1010200000AF78600B46FB70FB78002B06D00949B7
:10103000084B5A6C7B6813434B6406E00549054B2B
:101040005A6C7B68DB4313404B640C37BD465DF83C
:10105000047B70470038024080B487B000AF03467D
:10106000FB710023FB6000237B610023FB74FB7991
:101070005B09DBB2FB60FB68012B03D1124B1B68E1
:101080007B6109E0FB68022B03D10F4B1B6F7B6177
:1010900002E00D4B5B6F7B61FB7903F01F03FB608C
:1010A000FB687A6922FA03F303F00103002B02D0F4
:1010B0000123FB7401E00023FB74FB7C18461C3702
:1010C000BD465DF8047B70470038024080B400AF35
:1010D000034B1B78DBB21846BD465DF8047B7047B6
:1010E000C400002080B400AF034B1B78DBB218466D
:1010F000BD465DF8047B7047C400002080B483B017
:1011000000AF03463960FB71FB79042B0CD801A2B8
:1011100052F823F0291100082911000829110008AC
:10112000291100082911000800BF012318460C37B7
:10113000BD465DF8047B704780B485B000AFF860B1
:10114000B9607A60012318461437BD465DF8047B08
:10115000704700BF80B485B000AFF860B9607A60B6
:10116000012318461437BD465DF8047B704700BF65
:1011700080B582B000AF0346FB71FB791846FFF7DC
:1011800003F80837BD4680BD80B483B000AF7860F7
:101190000B46FB707B68FA781A70012318460C37EF
:1011A000BD465DF8047B704780B485B000AF7860C1
:1011B00039600023FB600AE07B685A1C7A603A6859
:1011C000511C396012781A70FB680133FB603B6870
:1011D0001B78002BF0D1FB6818461437BD465DF82C
:1011E000047B704780B586B000AFF8607A603B60E2
:1011F0000B46FB7200237B617B68013B7B603B6895
:10120000092B10D93B681E4AA2FB0323DB08FA7A9C
:10121000F86811467A68FFF7E5FF78617B69FA683C
:101220001344FB6011E00DE0FB7AF8681946FFF704
:10123000ABFFFB680133FB607B6901337B617B683B
:10124000013B7B607B68002BEEDC39680C4BA3FB19
:101250000123DA0813469B0013445B00CA1AD3B279
:101260003033DBB2F8681946FFF78EFF02467B6920
:1012700013447B617B6918461837BD4680BD00BFAB
:10128000CDCCCCCC90B587B000AFF8607A603B6035
:101290000B46FB7200237B613B68002B03DA3B6843
:1012A0005B423B6101E03B683B617B68013B7B60EB
:1012B0003B69092B25D93B68002B0FDA3B69314A82
:1012C000A2FB0323DB085B421C46FB7AF868194645
:1012D0007A682346FFF7D6FF78610DE03B69294A1B
:1012E000A2FB0323DB081C46FB7AF86819467A68E0
:1012F0002346FFF7C7FF78617B69FA681344FB60F8
:1013000025E03B68002B02DA7B68013B7B600DE047
:10131000FB7AF8681946FFF737FFFB680133FB607B
:101320007B6901337B617B68013B7B607B68002BC1
:10133000EEDC3B68002B0ADAF8682D21FFF724FF6A
:1013400002467B6913447B61FB680133FB603969AA
:101350000C4BA3FB0123DA0813469B0013445B00EC
:10136000CA1AD3B23033DBB2F8681946FFF70CFF64
:1013700002467B6913447B617B6918461C37BD4676
:1013800090BD00BFCDCCCCCC90B589B002AFF86099
:101390007A601A460B46FB721346BB7200237B61D0
:1013A0007B68013B7B60BB6A1B09002B13D0BB6AC7
:1013B0001B09FA7ABC7A0093F86811467A682346CA
:1013C000FFF7E2FF02467B6913447B617B69FA68A1
:1013D0001344FB6011E00DE0FB7AF8681946FFF753
:1013E000D3FEFB680133FB607B6901337B617B6863
:1013F000013B7B607B68002BEEDCBB6A03F00F03D4
:10140000092B0BD8BB6ADBB203F00F03DBB230331E
:10141000DBB2F8681946FFF7B7FE19E0BB7A002B7C
:101420000BD0BB6ADBB203F00F03DBB23733DBB2A6
:10143000F8681946FFF7A8FE0AE0BB6ADBB203F0C2
:101440000F03DBB25733DBB2F8681946FFF79CFE97
:101450007B6901337B617B6918461C37BD4690BDB3
:1014600090B58BB002AFF860B9607A603B60002342
:10147000BB6100237B61FB68002B02D0FB6800226C
:101480001A70FCE07B681B78252B0BD0FB685A1C7C
:10149000FA607A68511C796012781A707B6901339E
:1014A0007B61ECE07B6801331B78252B0BD1FB685B
:1014B0005A1CFA6025221A707B6802337B607B69B4
:1014C00001337B61DBE02023FB770023BB777B6864
:1014D00001337B607B681B78302B04D13023FB7792
:1014E0007B6801337B600EE0BB7F1A469200134499
:1014F0005B00DAB27B681B781344DBB2303BBB770E
:101500007B6801337B607B681B782F2B03D97B685A
:101510001B78392BE8D9BA7F7B6913441A46BB681C
:101520009A4205D9BB68DAB27B69DBB2D31ABB77C2
:101530007B681B78583B202B00F2938001A252F865
:1015400023F000BF1B16000863160008631600088E
:101550006316000863160008631600086316000887
:101560006316000863160008631600086316000877
:101570004D160008C9150008631600086316000818
:101580006316000863160008C915000863160008F2
:101590006316000863160008631600086316000847
:1015A0006316000863160008631600086316000837
:1015B0003916000863160008E315000863160008D2
:1015C00063160008FD150008BC7F3B681A1D3A60D1
:1015D0001B68FA7FF86811462246FFF753FEB86190
:1015E00042E0BC7F3B681A1D3A601B68FA7FF868CE
:1015F00011462246FFF7F6FDB86135E0BC7F3B6837
:101600001A1D3A601B68FA7F0093F868114622465B
:101610000023FFF7B9FEB86126E0BC7F3B681A1DC6
:101620003A601B68FA7F0093F8681146224601234E
:10163000FFF7AAFEB86117E03B681A1D3A601B6805
:10164000F8681946FFF7B0FDB8610DE03B681A1D58
:101650003A601B68DBB2F8681946FFF795FDB86180
:1016600002E04FF0FF3325E07B6801337B60BB690C
:10167000FA681344FB607A69BB6913447B617B6839
:101680001B78002B04D07A69BB689A42FFF4FAAE4B
:101690007A69BB689A4203D2FB6800221A7008E09C
:1016A000FB68013BFB60FB6800221A707B69013B11
:1016B0007B617B6918462437BD4690BD80B584B0F8
:1016C00000AFF860B9607A60F8686421BA687B6836
:1016D000FFF7C6FE034618461037BD4680BD00BF63
:1016E000B0B5A6B000AFF860B9607A60144B07F1EE
:1016F00010041D460FCD0FC40FCD0FC42B682360FF
:1017000007F134031846B9687A68FFF7D7FF034634
:10171000632B09DD0B4B1B68DB6807F110021046D9
:10172000194600F06BF8FEE707F134031846F96834
:1017300000F064F8034618469837BD46B0BD00BFB8
:1017400034540008F004002080B582B000AF786007
:101750003960064B1B689B68184679683A68FFF742
:10176000BFFF034618460837BD4680BDF004002081
:101770000FB480B582B000AF07F114033B60386945
:101780003968FFF7E1FF78607B6818460837BD4687
:10179000BDE8804004B0704780B582B000AF78608B
:1017A000054B1B689B687868194600F027F80346CC
:1017B00018460837BD4680BDF004002080B582B0D1
:1017C00000AF786039600C4B1B689A683B689A429E
:1017D00005D0094B1B68DA683B689A4206D17B68E2
:1017E000DBB21846FFF7C4FC7B6801E04FF0FF3323
:1017F00018460837BD4680BDF004002080B584B08F
:1018000000AF786039600023FB6012E07B681B78D2
:1018100018463968FFF7D2FF0346B3F1FF3F02D104
:101820004FF0FF330AE0FB680133FB607B68013354
:101830007B607B681B78002BE8D1FB68184610376B
:10184000BD4680BD80B483B000AF78600B46FB70AE
:101850007B681B889BB203F04003002B01D100235F
:1018600025E000BF7B681B899BB203F00303002BBC
:10187000F8D07B681B899BB203F08003002BF1D169
:10188000FB789AB27B689A8100BF7B681B899BB208
:1018900003F00303002BF8D07B681B899BB203F095
:1018A0008003002BF1D17B689B899BB2DBB2184689
:1018B0000C37BD465DF8047B704700BF80B485B02F
:1018C00000AF7860114B1B68BB60EFF30583FB60D2
:1018D000FB68002B08D100BF0C4B1A68BB68D21AFA
:1018E0007B689A42F8D30CE008E0094B1B6803F4CC
:1018F0008033002B02D07B68013B7B607B68002B30
:10190000F3D11437BD465DF8047B704728050020ED
:1019100010E000E080B500AF00F09AFD054801211D
:1019200000F0BCFD044B4FF480521A830A20FFF7ED
:10193000C5FF80BD003800400004024080B582B081
:1019400000AF7860396004487968FF223B6800F096
:1019500029FE0837BD4680BD0038004080B582B002
:1019600000AF78603960044879683A6800F0D6FDC5
:101970000837BD4680BD00BF0038004080B584B048
:1019800000AF78600C4A7B6813600C48FF21FFF7BA
:1019900059FF0346FB73FB7BFF2B03D0064B1B68F1
:1019A000002BF2D1FB7BFF2B0CBF01230023DBB20A
:1019B00018461037BD4680BD2C0500200038004079
:1019C00080B500AF044B4FF480521A830348FF21C7
:1019D000FFF738FF80BD00BF000402400038004020
:1019E00080B500AF0A4B4FF480525A830948FF215B
:1019F000FFF728FF4FF4FA70FFF7C0FF0346002BF4
:101A000001D0012302E0FFF7DBFF0023184680BD71
:101A1000000402400038004080B584B000AF786018
:101A20003960134BC8221A601248FF21FFF70AFFE2
:101A30000346FB73FB7BFF2B03D10D4B1B68002B75
:101A4000F2D1FB7BFE2B01D000230CE078683968D3
:101A5000FFF774FF0748FF21FFF7F4FE0548FF2159
:101A6000FFF7F0FE012318461037BD4680BD00BFCA
:101A70002C0500200038004080B584B000AF7860AD
:101A80000B46FB704FF4FA70FFF778FF0346002B0C
:101A900001D1002322E0FB7812481946FFF7D2FE5D
:101AA000FB78FD2B19D078684FF40071FFF756FFD3
:101AB0000C48FF21FFF7C6FE0A48FF21FFF7C2FED0
:101AC0000848FF21FFF7BEFE0346FB73FB7B03F0D4
:101AD0001F03052B01D0002300E001231846103717
:101AE000BD4680BD0038004080B584B000AF0346DD
:101AF0003960FB71FB795BB2002B0EDAFB7903F0E6
:101B00007F03FB7137200021FFF7EEFF0346BB7315
:101B1000BB7B012B01D9BB7B59E0FB790C2B08D097
:101B2000FFF74EFFFFF75CFF0346002B01D1FF23B9
:101B30004DE0FB7943F04003DBB227481946FFF73D
:101B400081FE3B681B0EDBB223481946FFF77AFE85
:101B50003B681B0CDBB220481946FFF773FE3B685D
:101B60001B0ADBB21C481946FFF76CFE3B68DBB270
:101B700019481946FFF766FE0123FB73FB79002B1A
:101B800001D19523FB73FB79082B01D18723FB73CC
:101B9000FB7B11481946FFF755FEFB790C2B03D14F
:101BA0000D48FF21FFF74EFE0A23FB730A48FF2171
:101BB000FFF748FE0346BB73BB7B5BB2002B05DA25
:101BC000FB7B013BFB73FB7B002BEFD1BB7B184600
:101BD0001037BD4680BD00BF0038004080B582B0E0
:101BE00002AF012300930023019304484FF4805176
:101BF0000122002301F098FFBD4680BD0004024091
:101C000080B400AF01231846BD465DF8047B7047E1
:101C100080B400AF01231846BD465DF8047B7047D1
:101C200090B583B000AFFFF7D9FFFFF773FEFFF762
:101C3000E7FF0346002B01D10223CCE00A23FB710E
:101C400006E06748FF21FFF7FDFDFB79013BFB71D3
:101C5000FB79002BF5D100237B7100200021FFF7D9
:101C600043FF0346012B40F089805E4B4FF47A72AC
:101C70001A6008204FF4D571FFF736FF0346012B99
:101C800051D10023FB710EE0FC795548FF21FFF78D
:101C9000D9FD03461A4607F10803234403F8082C2C
:101CA000FB790133FB71FB79032BEDD9BB78012B59
:101CB00064D1FB78AA2B61D100BF4A4B1B68002B73
:101CC00007D0A9204FF08041FFF70EFF0346002BFD
:101CD000F3D1444B1B68002B50D03A200021FFF772
:101CE00003FF0346002B49D10023FB710EE0FC7972
:101CF0003B48FF21FFF7A6FD03461A4607F10803FC
:101D0000234403F8082CFB790133FB71FB79032B87
:101D1000EDD93B7803F04003002B01D00C2300E009
:101D200004237B712AE0A9200021FFF7DDFE034692
:101D3000012B04D802237B71A923BB7103E001238B
:101D40007B710123BB7100BF264B1B68002B07D0A2
:101D5000BB7918460021FFF7C7FE0346002BF3D1DD
:101D6000204B1B68002B07D110204FF40071FFF7A8
:101D7000BBFE0346002B01D000237B711A4A7B79FE
:101D80001370FFF71DFE7B79002B08D0174B1B78D3
:101D9000DBB223F00103DAB2144B1A7002E0134BEA
:101DA00001221A70FFF734FF0346002B08D10F4BB6
:101DB0001B78DBB243F00403DAB20C4B1A7007E075
:101DC0000A4B1B78DBB223F00403DAB2074B1A701C
:101DD000064B1B78DBB218460C37BD4690BD00BFE2
:101DE000003800402C05002021050020F4040020CC
:101DF00080B500AFFFF704FF0346002B01D101239C
:101E000018E0FFF705FF0346002B08D10A4B1B78AB
:101E1000DBB243F00403DAB2074B1A7007E0064B5B
:101E20001B78DBB223F00403DAB2034B1A70024BC7
:101E30001B78DBB2184680BDF404002080B584B066
:101E400000AFF860B9607A60FFF7DAFE0346002B56
:101E500006D0284B1B78DBB203F00103002B01D026
:101E6000032343E0244B1B7803F00803002B02D12B
:101E7000BB685B02BB607B68012B11D11120B96884
:101E8000FFF732FE0346002B28D1F8684FF40071AB
:101E9000FFF7C2FD0346002B20D000237B601DE02E
:101EA0001220B968FFF720FE0346002B16D1F86810
:101EB0004FF40071FFF7B0FD0346002B00D109E09D
:101EC000FB6803F50073FB607B68013B7B607B680C
:101ED000002BECD10C200021FFF706FEFFF770FD70
:101EE0007B68002B14BF01230023DBB21846103798
:101EF000BD4680BDF40400202105002080B584B0DB
:101F000000AFF860B9607A60FFF77AFE0346002BF5
:101F100001D1012369E0FFF77BFE0346002B01D1CD
:101F2000022362E0334B1B78DBB203F00103002B8A
:101F300001D0032359E02F4B1B78DBB203F00403DD
:101F4000002B01D0022350E02B4B1B7803F0080339
:101F5000002B02D1BB685B02BB607B68012B10D1F8
:101F60001820B968FFF7C0FD0346002B35D1F8688B
:101F7000FE21FFF781FD0346002B2ED000237B605E
:101F80002BE01D4B1B7803F00603002B03D097209A
:101F90007968FFF7A9FD1920B968FFF7A5FD034689
:101FA000002B1AD1F868FC21FFF766FD0346002BD1
:101FB00000D109E0FB6803F50073FB607B68013B1F
:101FC0007B607B68002BEDD10020FD21FFF754FDE5
:101FD0000346002B01D101237B60FFF7F1FC7B68F6
:101FE000002B14BF01230023DBB218461037BD4677
:101FF00080BD00BFF40400202105002080B58CB016
:1020000000AF03463960FB71AC4B1B78DBB203F0C9
:102010000103002B01D003234BE1FFF7F1FD034641
:10202000002B01D1032344E1012387F82F30FB79F2
:10203000042B00F2378101A252F823F0512000084E
:1020400065200008A52200080F21000803220008CF
:10205000FFF7C6FC0346002B03D0002387F82F3080
:1020600023E122E109200021FFF73EFD0346002B7A
:102070004CD107F10C0318461021FFF7CDFC0346A5
:10208000002B43D03B7B9B09DBB2012B11D17B7D25
:102090001A463B7D1B0213441A46FB7C03F03F03A8
:1020A0001B04134401333B623B6A9A023B681A608B
:1020B00028E07B7C03F00F03DAB2BB7DDB09DBB2E7
:1020C0001344DAB27B7D03F00303DBB25B00DBB2C7
:1020D0001344DBB2023387F82E303B7D9B09DBB221
:1020E0001A46FB7C9B001A44BB7C03F003039B0253
:1020F000134401333B6297F82E30093B3A6A9A4009
:102100003B681A60002387F82F30CEE0CDE06C4B9F
:102110001B7803F00403002B31D08D200021FFF742
:10212000E3FC0346002B6BD16648FF21FFF78AFBD7
:1021300007F10C0318461021FFF76EFC0346002B35
:102140005ED0302387F82E3008E05E48FF21FFF78D
:1021500079FB97F82E30013B87F82E3097F82E3018
:10216000002BF2D1BB7D1B09DBB21A46102303FA08
:1021700002F23B681A60002387F82F3095E00920AF
:102180000021FFF7B1FC0346002B39D107F10C0306
:1021900018461021FFF740FC0346002B30D0484B77
:1021A0001B7803F00203002B12D0BB7D03F03F032A
:1021B0005B00FA7DD209D2B213445A1C7B7E9B0984
:1021C000DBB2013B02FA03F31A463B681A6013E0E4
:1021D000BB7D03F07C039B109BB20133FA7D02F0C0
:1021E0000302D200F97D4909C9B20A44013202FB57
:1021F00003F31A463B681A60002387F82F3054E037
:1022000053E02F4B1B7803F00603002B00D14CE06A
:1022100007F10C030B201946FFF7F0FE0346002BD5
:1022200000D042E03B7B9B09DBB2002B05D1BB7D9C
:1022300003F04003002B00D137E03B68FB61FB69F2
:102240001B68BB62FB695B687B621D4B1B7803F0FC
:102250000803002B05D1BB6A5B02BB627B6A5B0291
:102260007B622020B96AFFF73FFC0346002B18D1A0
:102270002120796AFFF738FC0346002B11D1262074
:102280000021FFF731FC0346002B0AD147F2305002
:10229000FFF774FB0346002B03D0002387F82F3091
:1022A00003E002E0042387F82F30FFF789FB97F85B
:1022B0002F3018463037BD4680BD00BFF4040020E3
:1022C000210500200038004080B483B000AF0346F1
:1022D0003960FB7197F90730002B0BDA0D49FB7958
:1022E00003F00F03043B3A68D2B21201D2B20B449E
:1022F0001A7609E0084997F907303A68D2B2120114
:10230000D2B20B4483F800230C37BD465DF8047B42
:10231000704700BF00ED00E000E100E080B582B052
:1023200000AF78607B68B3F1807F01D3012311E0B7
:102330000A4A7B6823F07F43013B53604FF0FF3034
:102340000F21FFF7C1FF054B00229A60034B0722C4
:102350001A60002318460837BD4680BD10E000E033
:1023600080B582B000AF374B1B680133354A13602C
:10237000354B1B68002B04D0334B1B68013B324AA2
:102380001360AFF300800023FB7152E0FB792F4A0A
:102390009B0013445B68002B48D0FB792B4A9B00C1
:1023A00013445B681B7B002B40D0FB79274A9B00C2
:1023B00013445B689B68002B38D0FB79234A9B0051
:1023C00013445B689A68013A9A60FB791F4A9B0044
:1023D00013445B689B68002B28D1FB791B4A9B0048
:1023E00013445B681A69FB7918499B000B445B68CE
:1023F0005B6918469047FB79144A9B0013445A685E
:10240000FB7912499B000B445B681B689360FB7966
:102410000E4A9B0013445B685B68002B06D1FB7976
:102420000A4A9B0013445B6800221A73FB7901334C
:10243000FB71064B1B78FA799A42A7D30837BD4641
:1024400080BD00BF280500202C0500203405002099
:1024500080B500AF0C4B1B680C4AA2FB03239B0901
:102460001846FFF75BFF0346002B00D0FEE7064B44
:102470001B689B09064AA2FB03239B0A054A1360BB
:10248000054B01221A7080BDF8040020D34D621064
:1024900017916502C40500203005002080B584B086
:1024A00002AF78600B46FB707B68194A93420BD1F0
:1024B000FA784FF482730093002301931448114675
:1024C0000022202300F0B8F87B68124A93420BD117
:1024D000FA784FF482730093002301930D4811465C
:1024E0000022202300F0A8F87B680B4A93420BD10E
:1024F000FA784FF482730093002301930648114643
:102500000022202300F098F80837BD4680BD00BFA8
:102510000030014000380040003C004080B487B0EB
:1025200000AFF860B9607A60FB681B889BB203F06B
:102530004003002B00D130E000BFFB681B899BB239
:1025400003F00303002BF8D0FB681B899BB203F058
:102550008003002BF1D100237B611AE0BA687B690C
:1025600013441B789AB2FB689A8100BFFB681B89F1
:102570009BB203F00303002BF8D0FB681B899BB2CE
:1025800003F08003002BF1D1FB689B897B69013349
:102590007B617A697B689A42E0D31C37BD465DF85F
:1025A000047B704780B487B000AFF860B9603B60CF
:1025B0001346FB71FB681B889BB203F04003002BA2
:1025C00000D133E000BFFB681B899BB203F003031B
:1025D000002BF8D0FB681B899BB203F08003002B13
:1025E000F1D100237B611DE0FB799AB2FB689A81EF
:1025F00000BFFB681B899BB203F00303002BF8D0DC
:10260000FB681B899BB203F08003002BF1D1BA68F1
:102610007B691344FA68928992B2D2B21A707B69CC
:1026200001337B617A693B689A42DDD31C37BD4632
:102630005DF8047B704700BF80B588B000AF78605C
:10264000084611461A460346FB700B46BB701346FC
:102650003B8007F10C03184601F0E2F97B68394A28
:1026600093420BD1384A384B5B6C43F4805353642C
:10267000FB78184600F06EF800233B827B68334AF3
:1026800093420BD1304A304B1B6C43F480431364AC
:10269000FB78184600F08CF800233B827B682C4ABC
:1026A00093420BD1284A284B1B6C43F4004313641C
:1026B000FB78184600F0C6F800233B823B883B833A
:1026C0000023BB81BB8D7B833B8DFB814FF400736B
:1026D000FB82BB78002B04D100237B820023BB82CA
:1026E00016E0BB78012B04D100237B820123BB823F
:1026F0000EE0BB78022B04D102237B820023BB8235
:1027000006E0BB78032B03D102237B820123BB822B
:102710007B681B889BB223F040039AB27B681A80C7
:1027200007F10C037868194601F036F97B681B88BD
:102730009BB243F040039AB27B681A802037BD46B3
:1027400080BD00BF0030014000380240003800402A
:10275000003C004080B584B002AF0346FB71FB79BA
:10276000002B09D103230093052301930D48E02199
:102770000022002301F0FAF9FB79012B09D1032390
:10278000009305230193084838210022002301F01B
:10279000EDF9FB79032B02D10448AFF30080083731
:1027A000BD4680BD000002400004024000300140F0
:1027B00080B584B002AF0346FB71FB79002B14D1C6
:1027C00003230093052301931A484FF480610022EC
:1027D000002301F0CBF9032300930523019316484E
:1027E0000C210022002301F0C1F9FB79012B0AD151
:1027F00003230093052301930E484FF46041002208
:10280000002301F0B3F9FB79022B09D103230093D4
:102810000523019309480D210022002301F0A6F9A8
:10282000FB79032B02D10648AFF300800837BD4681
:1028300080BD00BF000402400008024000200240AA
:102840000038004080B584B002AF0346FB71FB79CD
:10285000002B09D103230093062301930E4838214E
:102860000022002301F082F9FB79012B0AD1032316
:1028700000930623019309484FF4E05100220023FE
:1028800001F074F9FB79032B02D10548AFF3008006
:102890000837BD4680BD00BF00040240000802406A
:1028A000003C004080B487B000AF786039600023FE
:1028B0007B6100233B610023FB6000237B6176E0AA
:1028C0007B69012202FA03F33B613B681A683B69AA
:1028D0001340FB60FA683B699A4265D17B681A68CD
:1028E0007B695B00194603238B40DB431A407B68FE
:1028F0001A607B681A683B681B7919467B695B0024
:1029000001FA03F31A437B681A603B681B79012BB9
:1029100003D03B681B79022B2ED17B689A687B69B8
:102920005B00194603238B40DB431A407B689A60A7
:102930007B689A683B685B7919467B695B0001FAA2
:1029400003F31A437B689A607B685A687B699BB281
:10295000194601238B40DB431A407B685A607B6831
:102960005B683A68927911467A6992B201FA02F28A
:1029700092B21A437B685A607B68DA687B699BB2C3
:102980005B00032101FA03F3DB431A407B68DA6042
:102990007B68DA683B68DB7919467B695B0001FA82
:1029A00003F31A437B68DA607B6901337B617B69DF
:1029B0000F2B85D91C37BD465DF8047B704700BFDF
:1029C00080B485B000AF78600B467B800023FB733A
:1029D0007B681A697B881340002B02D00123FB73AC
:1029E00001E00023FB73FB7B18461437BD465DF8FE
:1029F000047B704780B483B000AF78600B467B8067
:102A000013467B707B78002B03D07B687A881A830F
:102A100002E07B687A885A830C37BD465DF8047BF8
:102A2000704700BF80B485B000AF78600B467B80F4
:102A300013467B700023FB600023BB607B787A88A1
:102A400002F0070292009340FB607B88DB089BB298
:102A500018467B88DB089BB21A467B68083253F81D
:102A600022207B8803F007039B0019460F238B402D
:102A7000DB4302EA03017B6800F1080243F82210FD
:102A80007B88DB089BB21A467B68083253F8222009
:102A9000FB681343BB607B88DB089BB21A467B68EC
:102AA0000832B96843F822101437BD465DF8047B3C
:102AB000704700BFABBE01E000207047002A00D085
:102AC00010600120704706980188034A914202D1A4
:102AD000043006907047FEE7ABBE000080B500AF43
:102AE000114A114B1B6843F0010313600E4B002287
:102AF0009A600D4A0C4B1B6823F0847323F48033D7
:102B00001360094B094A5A60074A074B1B6823F4B4
:102B100080231360044B0022DA6000F087F8044B36
:102B20004FF000629A6080BD0038024010300024EF
:102B300000ED00E080B487B000AF00233B610023CC
:102B40007B610223FB600023BB6002237B60324B6E
:102B50009B6803F00C033B613B69042B07D0082BF7
:102B600009D0002B3FD12D4B2D4A1A603FE02B4B53
:102B70002C4A1A603BE0284B5B6803F480039B0DF2
:102B8000BB60254B5B6803F03F037B60BB68002B99
:102B90000DD0244A7B68B2FBF3F21F4B596847F60D
:102BA000C0730B409B0903FB02F37B610CE01C4AE2
:102BB0007B68B2FBF3F2184B596847F6C0730B40C1
:102BC0009B0903FB02F37B61134B5B6803F4403307
:102BD0001B0C01335B00FB607A69FB68B2FBF3F30B
:102BE0000E4A136003E00D4B0D4A1A6000BF0A4BFA
:102BF0009B6803F0F0031B090B4AD35CDBB23B611B
:102C0000064B1A683B6922FA03F3044A13601C3727
:102C1000BD465DF8047B704700380240F804002090
:102C20000024F40000127A00FC04002080B483B079
:102C300000AF00237B6000233B60354A344B1B68A8
:102C400043F480331360324B1B6803F400333B6062
:102C50007B6801337B603B68002B03D17B68B3F555
:102C6000A06FF0D12A4B1B6803F40033002B02D075
:102C700001233B6001E000233B603B68012B42D114
:102C8000234A234B1B6C43F080531364214A214B8E
:102C90001B6843F4804313601D4A1D4B9B6893607F
:102CA0001B4A1B4B9B6843F400439360184A184B24
:102CB0009B6843F4A0539360154B174A5A60144A1B
:102CC000134B1B6843F08073136000BF104B1B68ED
:102CD00003F00073002BF9D0104B40F205621A602C
:102CE0000B4A0B4B9B6823F003039360084A084B85
:102CF0009B6843F00203936000BF054B9B6803F0A1
:102D00000C03082BF9D10C37BD465DF8047B7047E6
:102D1000003802400070004008484006003C024075
:102D200080B400AFFEE700BF80B483B000AF78602E
:102D30007B6818460C37BD465DF8047B704700BFC2
:102D400080B582B000AF7860144B1B68002B22D195
:102D500013480021F8220423FDF7CEFD104B00227A
:102D60005A610F4810210122FFF744FE0C48082148
:102D70000122FFF73FFE0B480321102202F08CFADC
:102D800009480021102202F087FA786800F024F840
:102D9000024A7B6813600837BD4680BD4C050020A1
:102DA00000000240500500206005002080B483B080
:102DB00000AF78600B46FB7013463B80FB78C3F195
:102DC0000F0304493A8821F813200C37BD465DF8FB
:102DD000047B70476005002080B584B000AF786048
:102DE0000023FB730523BB81244810210122FFF738
:102DF00001FE0023FB7230E0FB7B214AD35C1946C5
:102E0000B7F90C30012202FA03F301EA0302B7F921
:102E10000C3042FA03F3BB72BB89013B9BB2BB810E
:102E2000BB89DB0BDBB2002B04D00523BB81FB7B12
:102E30000133FB73BB7A114880211A46FFF7DAFD94
:102E40000E4820210122FFF7D5FD0C482021002249
:102E5000FFF7D0FDFB7A0133FB72FB7A5F2BCBD9F6
:102E6000064840210122FFF7C5FD04484021002209
:102E7000FFF7C0FD1037BD4680BD00BF0000024017
:102E80005005002080B584B000AF78600023FB734C
:102E90000B23BB812E4810210022FFF7ABFD00233E
:102EA0007B8131E0FB7B2B4A32F813301946B7F9AE
:102EB0000C30012202FA03F301EA0302B7F90C30E5
:102EC00042FA03F37B72BB89013B9BB2BB81BB8996
:102ED000DB0BDBB2002B04D00B23BB81FB7B01336C
:102EE000FB737B7A1A4880211A46FFF783FD184846
:102EF00020210122FFF77EFD154820210022FFF747
:102F000079FD7B8901337B817B89BF2BCAD910482E
:102F100008210122FFF76EFD0D4808210022FFF76E
:102F200069FD0B4840210122FFF764FD084840215C
:102F30000022FFF75FFD064820210122FFF75AFD1E
:102F4000034820210022FFF755FD1037BD4680BD04
:102F5000000002406005002080B500AF024B1B68F6
:102F60001846FFF78FFF80BD4C05002080B586B066
:102F700000AF78600023FB737B681B79002B36D091
:102F80007B681B6B7B617B685A787B6834331046A7
:102F900019467A690123FDF73FFB0346002B02D057
:102FA0000123FB7323E07B6800221A717B685B6A54
:102FB0007A69D21A7B68DB699A4218D27B68DB781F
:102FC0003B6111E07B68DB697A6913447B617B6854
:102FD0005A787B683433104619467A690123FDF725
:102FE0001BFB3B69013B3B613B69012BEAD8FB7B47
:102FF00018461837BD4680BD80B584B000AF7860F4
:1030000039600023FB737B681A6B3B689A421CD0C3
:103010007868FFF7ABFF0346FB73FB7B002B14D1F3
:103020007B685A787B683433104619463A68012326
:10303000FDF7C4FA0346002B04D04FF0FF333B608A
:103040000123FB737B683A681A63FB7B18461037D1
:10305000BD4680BD80B489B000AF78604FF0FF33CB
:103060003B617B681B68002B70D07B681B68BB6171
:1030700002E0BB690133BB61BB691B781F2B03D91D
:10308000BB691B783A2BF4D1BB691B783A2B5AD118
:103090007B681B68FB61FB695A1CFA611B78303B3B
:1030A0007B617B69092B10D8FA69BB699A420CD104
:1030B0007B69082B08D87B693B61BB690133BB6125
:1030C0007B68BA691A603CE03BE000237B61BB6926
:1030D0000133BB61214A7B6952F82330FB607B6876
:1030E0001B68FB61FB685A1CFA601B78BB72FB69AA
:1030F0005A1CFA611B78FB72FB7A602B05D9FB7AAC
:103100007A2B02D8FB7A203BFB72BB7A002B03D0D0
:10311000BA7AFB7A9A42E5D0BB7A002B03D1FA69DE
:10312000BB699A4205D07B6901337B617B69082BBF
:10313000D0D97B69082B04D87B693B617B68BA696D
:103140001A603B6903E0064B1B783B613B691846FC
:103150002437BD465DF8047B704700BF84550008E6
:10316000A605002080B582B000AF786039607B682A
:1031700000221A717B684FF0FF321A637868396851
:10318000FFF73AFF0346002B01D0032343E07B689F
:1031900093F833321B029AB27B6893F832329BB2B7
:1031A00013439BB21BB21E4A934201D0022332E06A
:1031B0007B6893F86D301A067B6893F86C301B04BB
:1031C00013437A6892F86B20120213437A6892F8DC
:1031D0006A20134323F07F43124A934201D1002314
:1031E00019E07B6893F889301A067B6893F8883079
:1031F0001B0413437A6892F88720120213437A68FB
:1032000092F88620134323F07F43064A934201D16C
:10321000002300E0012318460837BD4680BD00BFEB
:1032200055AAFFFF4641540080B596B000AFF86044
:10323000B9601346FB71FB6800221A60B868FFF79B
:1032400009FFF863FB6B002B01DA0B2395E29B4A25
:10325000FB6B52F82330BB63BB6B002B01D10C23FB
:103260008BE2FB68BA6B1A60BB6B1B78002B1AD021
:10327000BB6B5B781846FDF77FF9034687F837305C
:1032800097F8373003F00103002B0CD1FB79002BAA
:1032900007D097F8373003F00403002B01D00A233E
:1032A0006BE2002369E2BB6B00221A70FB6BDAB29F
:1032B000BB6B5A70BB6B5B781846FDF73BF9034656
:1032C00087F8373097F8373003F00103002B01D02F
:1032D000032352E2FB79002B07D097F8373003F035
:1032E0000403002B01D00A2347E200233B65B86B9F
:1032F000396DFFF737FF034687F8573097F8573097
:10330000012B57D100233B642BE03B6C1B0103F5E1
:10331000DF733033BA6B134404333B633B6B0433CA
:103320001B78002B12D03B6B0B331B781A063B6BC0
:103330000A331B781B0413433A6B093212781202CA
:1033400013433A6B083212781A4300E000223B6CB8
:103350009B0007F158010B4443F8442C3B6C0133AC
:103360003B643B6C032BD0D900233B643B6C002BAC
:1033700002D03B6C013B3B643B6C9B0007F1580265
:10338000134453F8443C3B653B6D002B05D0B86BB0
:10339000396DFFF7E7FE034600E0022387F8573058
:1033A00097F85730002B05D03B6C01333B643B6CE6
:1033B000032BE1D997F85730032B01D10123DCE12E
:1033C00097F85730002B01D00D23D6E1BB6B93F853
:1033D00040301B029AB2BB6B93F83F309BB2134351
:1033E0009BB21BB2B3F5007F01D00D23C5E1BB6BCF
:1033F00093F84B301B029AB2BB6B93F84A309BB2E6
:1034000013439BB29BB2FB64FB6C002B12D1BB6BD2
:1034100093F85B301A06BB6B93F85A301B041343C6
:10342000BA6B92F8592012021343BA6B92F85820E3
:103430001343FB64BB6BFA6CDA61BB6B93F84420FB
:10344000BB6BDA70BB6BDB78012B05D0BB6BDB7819
:10345000022B01D00D2390E1BB6BDB781A46FB6C8D
:1034600002FB03F3FB64BB6B93F84120BB6B9A70C8
:10347000BB6B9B78002B08D0BB6B9B781A46BB6B51
:103480009B78013B1340002B01D00D2375E1BB6BF2
:1034900093F846301B029AB2BB6B93F845309BB24F
:1034A00013439BB29AB2BB6B1A81BB6B1B8903F0AF
:1034B0000F039BB2002B03D00D235EE1800500209B
:1034C000BB6B93F848301B029AB2BB6B93F8473042
:1034D0009BB213439BB29BB2BB64BB6C002B12D15B
:1034E000BB6B93F857301A06BB6B93F856301B042E
:1034F0001343BA6B92F8552012021343BA6B92F839
:1035000054201343BB64BB6B93F843301B029AB245
:10351000BB6B93F842309BB213439BB2FB85FB8D90
:10352000002B01D10D2328E1FA8DFB6C1344BA6BFB
:103530001289120992B21344BB62BA6CBB6A9A42F6
:1035400001D20D2319E1BA6CBB6AD31ABA6B927817
:10355000B3FBF2F37B627B6A002B01D10D230CE1FC
:10356000012387F857307B6A40F6F572934202D9FF
:10357000022387F857307B6A4FF6F572934202D9DF
:10358000032387F857307B6A9A1CBB6B9A61BB6B2D
:103590003A6D1A62FA8D3B6D1A44BB6B5A623A6DF2
:1035A000BB6A1A44BB6BDA6297F85730032B1ED103
:1035B000BB6B1B89002B01D00D23DEE0BB6B93F8A6
:1035C00063301A06BB6B93F862301B041343BA6B6B
:1035D00092F8612012021343BA6B92F860201A43EA
:1035E000BB6B9A62BB6B9B699B007B641FE0BB6BF0
:1035F0001B89002B01D10D23BFE0BB6B5A6AFB6C0A
:103600001A44BB6B9A6297F85730022B03D1BB6BFD
:103610009B695B000AE0BB6B9A6913465B0013442D
:103620005A08BB6B9B6903F0010313447B64BB6BBB
:10363000DA697B6C03F2FF135B0A9A4201D20D2315
:103640009BE0BB6B4FF0FF321A61BB6B1A69BB6B1F
:10365000DA60BB6B80225A7197F85730032B7AD10E
:10366000BB6B93F865301B029AB2BB6B93F8643066
:103670009BB213439BB21BB2012B6CD13B6D013348
:10368000B86B1946FFF7B8FC0346002B63D1BB6B40
:1036900000225A71BB6B93F833321B029AB2BB6B98
:1036A00093F832329BB213439BB21BB2354A93421A
:1036B00051D1BB6B93F837301A06BB6B93F8363099
:1036C0001B041343BA6B92F8352012021343BA6BF2
:1036D00092F8342013432C4A93423CD1BB6B93F8AD
:1036E0001B321A06BB6B93F81A321B041343BA6BD6
:1036F00092F8192212021343BA6B92F8182213435C
:10370000224A934227D1BB6B93F81F321A06BB6B38
:1037100093F81E321B041343BA6B92F81D22120257
:103720001343BA6B92F81C221A43BB6B1A61BB6B32
:1037300093F823321A06BB6B93F822321B0413430F
:10374000BA6B92F8212212021343BA6B92F820222C
:103750001A43BB6BDA60BB6B97F857201A700C4B9F
:103760001B8801339AB20A4B1A80094B1A88BB6B2B
:10377000DA80BB6B00225A61002318465837BD46D9
:1037800080BD00BF55AAFFFF525261417272416174
:10379000A405002080B588B000AFF860B96013467A
:1037A000FB71BB683B6107F110031846FFF752FC41
:1037B000F861FB69002B01DA0B2329E0164AFB694B
:1037C00052F82330BB61BB69002B02D0BB690022D9
:1037D0001A70FB68002B02D0FB6800221A70FA688E
:1037E0000D49FB6941F82320FB68002B02D0FB79CF
:1037F000012B01D000230BE007F10C0207F10803B5
:10380000104619460022FFF70FFD0346FB75FB7DAE
:1038100018462037BD4680BD8005002080B582B0A7
:1038200000AF786039607B683A68DA607B68DB6893
:10383000DBB21A4652001344DAB27B681A740348AA
:10384000FFF77EFA0837BD4680BD00BFA8050020FF
:1038500080B483B000AF78607B684FF000021A60DC
:103860007B684FF000025A607B684FF000029A605C
:103870007B6818460C37BD465DF8047B704700BF77
:1038800080B582B000AF78607B681846FFF7E0FF34
:103890007B6818460837BD4680BD00BF90B583B031
:1038A00000AF78607B681C7C7B681B68184600F062
:1038B0007DFC03469BB2144821461A46FFF776FA70
:1038C0007B681B7C0133DCB27B685B68184600F0C8
:1038D0006DFC03469BB20C4821461A46FFF766FA78
:1038E0007B681B7C0233DCB27B689B68184600F067
:1038F0005DFC03469BB2044821461A46FFF756FA80
:103900000C37BD4690BD00BFA805002080B584B02F
:1039100000AFF860084611461A4603467B810B4605
:103920003B811346FB807B89184600F0E7FB02468B
:10393000FB681A603B89184600F0E0FB0246FB6812
:103940005A60FB88184600F0D9FB0246FB689A6073
:10395000F868FFF7A3FF1037BD4680BD80B582B081
:1039600000AF786039607B68012B07D13B684FF668
:10397000FF72934202D10348FFF7D6F90837BD46DC
:1039800080BD00BFA805002080B500AF01204FF624
:10399000FF71FFF7E3FF80BD80B485B000AF7860B2
:1039A00039600023FB817B681B88FB81FB8903F462
:1039B0004153FB813B681A883B685B8813439AB28A
:1039C0003B689B8813439AB23B68DB8813439AB2E7
:1039D0003B681B8913439AB23B685B8913439AB2D5
:1039E0003B689B8913439AB23B68DB8913439AB2C5
:1039F000FB891343FB817B68FA891A807B689B8B68
:103A00009BB223F400639AB27B689A833B681A8A5C
:103A10007B681A821437BD465DF8047B704700BF8F
:103A200080B483B000AF78607B6800221A807B6826
:103A300000225A807B6800229A807B680022DA800C
:103A40007B6800221A817B6800225A817B680022F1
:103A50009A817B680022DA817B6807221A820C3700
:103A6000BD465DF8047B704780B485B000AF7860D8
:103A70000023FB730023BB730F237B737B68DB780E
:103A8000002B38D0264BDB68DB4303F4E0631B0AD2
:103A9000FB73FB7BC3F10403BB737A7BFB7B42FAB2
:103AA00003F37B737B685B781A46BB7B02FA03F3F4
:103AB000FB737B689A787B7B1340DAB2FB7B134302
:103AC000FB73FB7B1B01FB73164A7B681B7813445B
:103AD000FA7B83F80023134A7B681B785B09DBB20F
:103AE00018467B681B7803F01F03012101FA03F3DA
:103AF00042F820300FE00B497B681B785B09DBB292
:103B000018467B681B7803F01F0301229A4000F1DE
:103B1000200341F823201437BD465DF8047B70472D
:103B200000ED00E000E100E090B585B002AF786004
:103B3000084611461A4603467B800B467B701346A7
:103B40003B707B88002B00D10DE0786800F074F8A2
:103B500079887A783C783B7E00933B7F0193786844
:103B6000234600F07FF80C37BD4690BD90B587B076
:103B700002AF7860084611461A4603467B800B4622
:103B80007B7013463B707B88002B00D13EE0786849
:103B900000F052F80023FB6028E07A88FB6842FAC4
:103BA00003F303F00103002B00D11CE0FB68DA08EB
:103BB000FB68D9087B68083153F82130F96801F0B7
:103BC0000701890008460F218140C9430B4097F83F
:103BD0002410F86800F007008000814019437B68DA
:103BE000083243F82210FB680133FB60FB680F2B9F
:103BF000D3D97A887C783B78009397F8203001936A
:103C0000786811460222234600F02CF81437BD468E
:103C100090BD00BF80B483B000AF78607B6803F1D3
:103C20003F4303F57E039B0A9BB218460C37BD4603
:103C30005DF8047B704700BF80B582B000AF78604C
:103C40007868FFF7E7FF03461A46012303FA02F1FB
:103C5000034A034B1B6B0B4313630837BD4680BD00
:103C60000038024080B584B000AF78600846114645
:103C70001A4603467B800B467B7013463B70786880
:103C8000FFF7C8FF0346BB730023FB7367E07A8826
:103C9000FB7B42FA03F303F00103002B00D15BE04E
:103CA000BB7BBA7B314931F8122090B2FA7B0121FB
:103CB00001FA02F292B201460A4392B291B22B4A41
:103CC00022F813107B68DB68FA7B5200032101FAAB
:103CD00002F2D2431340397EFA7B520001FA02F21B
:103CE0001A437B68DA607B681A68FB7B5B00032100
:103CF00001FA03F3DB4313407978FA7B520001FAAF
:103D000002F21A437B681A607B78012B02D07B7821
:103D1000022B21D17B685B68FA7B012101FA02F258
:103D200092B2D24313403978FA7B01FA02F292B28E
:103D30001A437B685A607B689A68FB7B5B000321AF
:103D400001FA03F3DB431340397FFA7B520001FA97
:103D500002F21A437B689A60FB7B0133FB73FB7BA7
:103D60000F2B94D91037BD4680BD00BFAC05002095
:103D700080B483B000AF786002E07B68013B7B6079
:103D80007B68002BF9D10C37BD465DF8047B70478A
:103D900080B58AB000AF786004200121FDF720F9DA
:103DA00020200121FDF73AF9C0233B6102233B7536
:103DB00002237B750023BB750123FB7507F11003FC
:103DC00020481946FEF76EFD1E4806210822FEF720
:103DD00029FE1C4807210822FEF724FE7B68BB61F0
:103DE0000023BB830023FB8300233B840023BB848D
:103DF0000C237B8407F1180313481946FCF7F8F9E4
:103E0000114840F225510122FCF7F0FA47233B7399
:103E100000237B730023BB730123FB7307F10C03A7
:103E20001846FFF721FE08480121FCF79DFA0748D4
:103E300000F07EF800F098F80548FFF799FF283762
:103E4000BD4680BD0008024000140140D85500085E
:103E5000404B4C0098B500AF244840F22551FCF788
:103E60000DFB0346002B40D0214B1B781C461F48FE
:103E7000FCF7ACFA0346DAB21E4B1A551C4B1B7802
:103E80001A461C4B9B5C0D2B02D10A2000F038F81F
:103E9000174B1B781A46174B9B5C9BB2184600F0D9
:103EA0002FF8134B1B78272B06D0114B1B781A4683
:103EB000104B9B5C0A2B12D10D4B1B780E480D4901
:103EC0001A4601F04FF90B480021282201F0E4F9CD
:103ED000074B00221A70094B01221A7005E0044BAF
:103EE0001B780133DAB2024B1A7098BD00140140FE
:103EF000C2050020C8050020F0050020C3050020F1
:103F000080B582B000AF0346FB80FB8807481946A6
:103F1000FCF74AFA00BF054B1B889BB203F0400335
:103F2000002BF8D00837BD4680BD00BF001401400B
:103F300080B584B000AF78600023FB600AE0FB68C6
:103F40007A6813441B789BB21846FFF7D9FFFB68C9
:103F50000133FB60FB687A6813441B78002BEED1B9
:103F60001037BD4680BD00BF80B500AF05480021B9
:103F7000282201F091F9044B00221A70034B002211
:103F80001A7080BDC8050020C2050020C3050020AE
:103F900080F0004002E000BF81F0004142001FBFFE
:103FA0005FEA410392EA030F7FEA226C7FEA236C07
:103FB0006AD04FEA1262D2EB1363C1BFD2184140FC
:103FC00048404140B8BF5B42192B88BF704710F092
:103FD000004F40F4000020F07F4018BF404211F035
:103FE000004F41F4000121F07F4118BF494292EA9D
:103FF000030F3FD0A2F1010241FA03FC10EB0C00C9
:10400000C3F1200301FA03F100F0004302D5494255
:1040100060EB4000B0F5000F13D3B0F1807F06D302
:1040200040084FEA310102F10102FE2A51D2B1F1FA
:10403000004F40EBC25008BF20F0010040EA0300EF
:104040007047490040EB000010F4000FA2F101029C
:10405000EDD1B0FA80FCACF1080CB2EB0C0200FA26
:104060000CF0AABF00EBC25052421843BCBFD04074
:104070001843704792F0000F81F4000106BF80F4EE
:1040800000000132013BB5E74FEA41037FEA226CB1
:1040900018BF7FEA236C21D092EA030F04D092F07C
:1040A000000F08BF0846704790EA010F1CBF0020B0
:1040B000704712F07F4F04D1400028BF40F000400D
:1040C000704712F100723CBF00F50000704700F02D
:1040D000004343F0FE4040F4000070477FEA226254
:1040E00016BF08467FEA23630146420206BF5FEA25
:1040F000412390EA010F40F4800070474FF0000325
:1041000004E000BF10F0004348BF40425FEA000CEB
:1041100008BF704743F0964301464FF000001CE093
:1041200050EA010208BF70474FF000030AE000BFE9
:1041300050EA010208BF704711F0004302D5404227
:1041400061EB41015FEA010C02BF84460146002099
:1041500043F0B64308BFA3F18053A3F50003BCFAB4
:104160008CF2083AA3EBC25310DB01FA02FC634461
:1041700000FA02FCC2F12002BCF1004F20FA02F268
:1041800043EB020008BF20F00100704702F120025B
:1041900001FA02FCC2F1200250EA4C0021FA02F2BC
:1041A00043EB020008BF20EADC70704742000ED2E9
:1041B000B2F1FE4F0BD34FF09E03B3EB126209D462
:1041C0004FEA002343F0004323FA02F070474FF018
:1041D0000000704712F1610F01D1420202D14FF08D
:1041E000FF3070474FF00000704700BF03685A006F
:1041F0004CBF43F0004323F000431844704700BF16
:104200002DE9F04F83B099B34B1E17460546019335
:104210009846002606EB080404EBD47464104FEAB9
:10422000C40A05EB0A0B5846FFF7E0FF019B8146E5
:10423000A3420AF1080028440ED0FFF7D7FFB94582
:1042400000F1FF3004D9B4420CD004F1FF38E1E7AB
:10425000B84203D2661CDDE7B945F4D8584603B02E
:10426000BDE8F08F4FF0000B584603B0BDE8F08F6B
:104270008B46584603B0BDE8F08F00BF012807D039
:10428000022807D0044B00280CBF184600207047B6
:104290000248704702487047894900088D49000864
:1042A0009149000830B5244B83B004468D1E7BB382
:1042B000284601A9AFF3008020B301992A46FFF7F1
:1042C0009FFF0546F0B1FFF791FF6B68A064012BDB
:1042D00012D0002B05F1040020DBFFF787FF00233D
:1042E000E06423650368002B1CDBFFF77FFF0023DE
:1042F0002061184603B030BD002323610523184612
:1043000003B030BD002323610923184603B030BD3C
:104310000A490B48091AC9100191CFE70123E0644B
:104320002365DFE7C3F30360FFF7A8FF00282061E0
:104330000CBF09230023DCE700000000305900080F
:10434000C05700080368DA0710B5044606D49B0777
:1043500000F1480009D500F085FC2368590709D50C
:104360001A070ED5DB0613D510BD00F073FC2368C9
:104370005907F5D404F1D00000F07CFC23681A073B
:10438000F0D404F5A87000F07DFC2368DB06EBD4C4
:1043900004F5E870BDE8104000F0B8BC03680BB14C
:1043A000184470471846704709207047704700BF8F
:1043B00070B504460D4608E02B6C6361012023694B
:1043C00021462A469847082808D12046296CFFF73D
:1043D00069FF06460028EFD0FEF7A2FC0728FBD1B4
:1043E0003046296CFFF7E2FF281D00F027FC00BFD4
:1043F0002DE9F0470C1D064617460FCCADF5727D32
:1044000003AD0FC50FCC0FC50FCC0FC594E80F003F
:1044100002AC4FF0000ED6F80C80D6F8189085E864
:104420000F003046216CC4F800E0FFF73BFF002F7F
:1044300005460CBF09270A277DB1A36B47F0100181
:104440008DE810020120636432463346C04778BBD2
:1044500028460DF5727DBDE8F087236C7361214617
:104460004FF4F0727AA800F07DFE336931467AAAE3
:1044700038469847889B82468DE810023946636427
:10448000012032463346C04790B920467AA94FF4FE
:10449000F07200F067FEBAF1080F06D13046216CC9
:1044A000FFF700FF09270546C6E7BAF1070F04D05A
:1044B00009200DF5727DBDE8F0872846216CFFF7D5
:1044C00075FF03A800F0BAFB406C7047F0B5CB6BEA
:1044D0000B640E1D0F4604460FCEF9B001AD0FC59B
:1044E0000FCE0FC50FCE0FC596E80F004FF0FF3669
:1044F00085E80F00009606E0236921466A46984742
:104500000828054608D120461099FFF7CBFE002861
:10451000F2D0092079B0F0BD6846FFF713FF062DF1
:10452000F7D120463946FFF743FF00BF30B4DD6BBB
:10453000C160826119461D64002230BC58E700BF8B
:1045400070B5C66843690B6404460D4626B1012266
:10455000FFF74EFFFEF7E4FB0369214602202A46DF
:104560009847072807D0082803D120462946FFF797
:104570001FFFFEF7D5FB3046296CFFF717FF281DFC
:1045800000F05CFBC2681AB1CA6B0A6400222FE714
:104590009CE700BF704700BF836813B1014601204C
:1045A0001847704700B5042907D8DFE801F0030970
:1045B000060909000BB90F2A05D902205DF804FB92
:1045C00001205DF804FB00EB820218465368019A53
:1045D00013605DF804FB00BF00B585B00A4603AB6D
:1045E000002100930B46FFF7DDFF039805B05DF84F
:1045F00004FB00BF00B5042907D8DFE801F0030978
:10460000060909000BB90F2A05D902205DF804FB41
:1046100001205DF804FB019900EB820209685160FA
:1046200018465DF804FB00BF10B584B004AB0C461F
:1046300043F8042D0021009322460B46FFF7DAFFD2
:1046400004B010BDF0B5D36B1364151D07460E46BC
:104650000FCDADF50F7D17AC0FC40FCD0FC40FCD2F
:104660000FC495E80F004FF0FF3584E80F00169552
:1046700010E016A8FFF7D8FF314616A8B8476946DC
:1046800016AA78B9049B08209847052804460AD042
:10469000092807D026996846FFF704FE6A460C21D0
:1046A0000028E6D0092416A8FFF74CFE20460DF599
:1046B0000F7DF0BD2DE9F04F0D46C96C8BB00C1D80
:1046C000096807919046089400F003091E46002BE4
:1046D00064D10902032307918DF825608DF82430F9
:1046E0002B6DB9F1020F08BFAC6B13F0010343D17E
:1046F00000F00800C2B2039201932768002F3DD05A
:10470000022E47D02788B4F802A00434AB6C2AF0FC
:10471000010B40460F219B44FFF75EFF834537D8CE
:1047200027F001039B4458452CBF002001200AF0CC
:10473000010A07F0010747EA4A0ABAF1010F43D01C
:104740003AD3BAF1020F1FD1236823F0004202923C
:10475000B9F1000F7BD138B1039A002A00F08380B1
:10476000029A002A00F0A680002B7ADB029B03F15C
:10477000010A04EB8A04C0E700230193022E40DD06
:10478000FFF712FE002842D009200BB0BDE8F08FE1
:104790000020CCE7D4F804A00834B7E7022B9FDC54
:1047A0000B0CDFB2090402228DF8253004EB8704DC
:1047B00007918DF8242093E7B9F1000F02D000286B
:1047C00040F0AD80043498E7B9F1000F26D1B0B1C4
:1047D00094E80C00D70F9A1CD6D005F1580201338B
:1047E000069200F09280201DFFF7D8FD3A46014660
:1047F00006AB2846AFF30080002840F0B5800834AF
:104800007BE7404607A900F01BFB0028BCD1019BB9
:10481000002B59D108200BB0BDE8F08F40460D2188
:104820002F6AFFF7D9FE8742E9D1AB6A9C42E6D1F5
:104830002046FFF7DBFC0F2102464046FFF7F4FE5F
:1048400040462A460021FFF7EFFE07209DE740463D
:104850000D212F6AFFF7C0FE874245D02368002B49
:1048600084DA043482E7029B23B305F158030596EA
:1048700004F1040A039FDDF808B0CDF810901E463D
:1048800002E0D9454F4615D050460696FFF786FD03
:104890000022014606AB2846AFF3008007F101096C
:1048A0000AF1040A0028ECD0029BDDF81090059E66
:1048B0009F42D3D140460D21FFF78EFE069B286212
:1048C000AC626B62062060E70F214046FFF784FE72
:1048D0000E2102464046FFF7A7FE40460F21294A17
:1048E000FFF7A2FE072050E7AB6A9C42B6D1042234
:1048F0000027A3180299A962EF622A636B632368F9
:10490000BB421FDB0123019330E740460D21FFF737
:1049100063FE2862069B6B62AC62062035E7204688
:10492000FFF764FC04340646AC632846AFF300800E
:1049300000283FF429AF404632460F21FFF774FEAE
:10494000072022E70846013004EB8000FFF74EFC09
:104950000F2102464046FFF767FE404639462A4689
:10496000FFF762FE072010E707460D214046FFF7DC
:1049700033FE022F2862CDD12B46069A43F82C2F06
:104980006B62C9E700000000002393E6012391E673
:1049900002238FE6F0B50546C5B004290CD8DFE840
:1049A00001F056030B300E00012B4FEA124496B271
:1049B00065D0052B00F08480022045B0F0BD002BAF
:1049C000FAD1102AF8D82B68DC0600F1EB8022AE71
:1049D0003046019200F0A4F9A86B019A002301244B
:1049E00004FA03F1114203D0016846F823100430A1
:1049F0000133042BF4D1A863304600F087F900207E
:104A0000DBE7032BD8D1140C97B23B19102BD3D86A
:104A10002B681E0700F1E68022AE30467F0000F0D2
:104A200053F906EBC4027B1EAC6B57B1043A214626
:104A300051F8040B42F8040F013B581CF8D104EB69
:104A400087043046AC6300F01DF90020B5E7002B69
:104A5000B2D1AC6B97B2281D012606FA03F1394298
:104A600003F1010302D0216801600434102B00F12E
:104A70000400F2D112F4005020D1AC639DE732194A
:104A8000102A99D80F2C97D82968C8074FF000072B
:104A900055D422A8019300F0E1F8019B19E00846E3
:104AA0003746012B00F098800F2CA86302D822A86B
:104AB00000F0D8F817B102A800F0DCF800207CE77D
:104AC0003719202F3FF678AF0F2C30D93746002EFC
:104AD00045D1A96B3246002EE1D0002744A84FEA09
:104AE000420C00EBC4000CF1FF328C388E465EF8AD
:104AF000046B40F8046F013A561CF8D101EB8C00AE
:104B0000002FCED0102C224644A938BF102201EB32
:104B1000C202A2F5C47201467800043A01EB80009B
:104B200051F8046B42F8046F8142F9D1B9E7102FB4
:104B300042D92A68D007A7F11007114610D521F0F5
:104B40000102052B2A60019328465BD021F0030166
:104B500040F8481B00F082F8019B002F4AD02A68D9
:104B600051075BD4012B63D00F2C04D822A80193EA
:104B700000F07CF8019B002FABD002A8019300F05D
:104B80007DF8019BA96BC4F11002002AA6DC102C51
:104B9000224644A838BF102200EBC202A2F5C4721C
:104BA0007800BAE723F010032B6005F5E870019256
:104BB00000F0B6F8019A0AE72968C8071DD521F068
:104BC0000102284642F0020240F8482B01930027D8
:104BD00000F04CF8019BC9E70430A86322A800F05C
:104BE00039F86BE723F008032B6005F5A87000F097
:104BF0006BF811E7012B3FF44CAF0F2C98BF002747
:104C0000B4D966E742F0020240F8482B00F02EF8D3
:104C1000019B002FAAD02A685107A5D5284622F06B
:104C2000040240F8D02B019300F028F8019B99E78B
:104C300022A8019300F012F8019BA3E700F13401D0
:104C400091E838009C46A6464CF8045D90E8FF0FBA
:104C5000E54600BD90EC210B704700BF80EC210BB6
:104C6000704700BF90EC200B704700BF80EC200B1A
:104C7000704700BFD0EC200B704700BFC0EC200B8A
:104C8000704700BFF0EC0201F0EC0211F0EC0221E1
:104C9000F0EC0231F0EC0241F0EC0251F0EC026178
:104CA000F0EC0271F0EC0281F0EC0291F0EC02A168
:104CB000F0EC02B1F0EC02C1F0EC02D1F0EC02E158
:104CC000F0EC02F1704700BFE0EC0201E0EC0211F1
:104CD000E0EC0221E0EC0231E0EC0241E0EC0251B8
:104CE000E0EC0261E0EC0271E0EC0281E0EC0291A8
:104CF000E0EC02A1E0EC02B1E0EC02C1E0EC02D198
:104D0000E0EC02E1E0EC02F1704700BFB0FC018191
:104D1000B0FC0191B0FC01A1B0FC01B1704700BF33
:104D2000A0FC0181A0FC0191A0FC01A1A0FC01B1AB
:104D3000704700BFEC4600B52DE900502DE9FF1F7C
:104D40004FF000032DE90C0001A9FFF7BFFBDDF8D0
:104D500040E012B0704700BFEC4600B52DE90050AE
:104D60002DE9FF1F4FF000032DE90C0001A9FFF70B
:104D7000E7FBDDF840E012B0704700BFEC4600B53D
:104D80002DE900502DE9FF1F4FF000032DE90C0025
:104D900001A9FFF7F7FBDDF840E012B0704700BF54
:104DA000EC4600B52DE900502DE9FF1F4FF0000340
:104DB0002DE90C0001ABFFF7B9FBDDF840E012B0C4
:104DC000704700BFEC4600B52DE900502DE9FF1FEC
:104DD0004FF000032DE90C0001AAFFF733FCDDF8CA
:104DE00040E012B0704700BF037A1BB9437A43B961
:104DF000B02070475A1E036802721A020260180E31
:104E000070474268013B10B4437213680321141DBC
:104E100001721A02446002605DF8044B180E70477C
:104E200000B585B003AB002100930C220B46FFF7C1
:104E3000B9FB039805B05DF804FB00BFF0E700BFC5
:104E40002DE9F043064685B00D464FF00008284690
:104E5000FFF7CAFFB028044600F0B58020F07F01BC
:104E600011F0FF0120D000F0F003802B7AD0902BBE
:104E700036D0A02B49D0B02B5CD0C02B00F089805D
:104E800000F0F803D02B0BD100F00702013242F4FE
:104E90000022304601210523FFF77CFD0028D6D0F3
:104EA000092005B0BDE8F0830DF10C090B46870021
:104EB000CDF8009030460D22FFF774FBFFB2039B44
:104EC000CDF80090043760064FF000014CBFDF1BA7
:104ED000FF1830460B460D220397FFF78BFBB6E712
:104EE00000F00D030D2BDBD003AF002100F00F020B
:104EF0000B4600973046FFF755FB002100970B4605
:104F000030460D22FFF776FBA1E7C34303F007030A
:104F10004FF47F621A41010702F47F624FF00001F3
:104F200048BF42F480420B463046FFF733FD00286D
:104F3000B6D18CE7B1284CD0B2285DD0B32800F0B0
:104F40008A8000F0FC03B42BAAD000F007020132E3
:104F5000012142F400220B463046FFF71BFD0028DA
:104F60009ED174E72846FFF73FFF24022043B0F5A7
:104F7000004F95D004010021A2B20B463046FFF746
:104F800009FD00288CD114F4004F18BF4FF0010820
:104F90005DE7C62872D0C7287AD000F0F803C02B8E
:104FA00000F08980C82800F0A580C9287FF478AF78
:104FB0002846FFF719FF00F00F02013200F0F00061
:104FC00042EA003265E7B8F1000F00F0828000206D
:104FD00067E72846FFF708FF024600283FF460AF66
:104FE00010F0F0017FF45CAF30460B46FFF7D2FCC7
:104FF00000287FF455AF2AE700210DF10C090D229E
:105000000B46CDF800903046FFF7CCFA2846FFF764
:10501000EBFE02064FF002040CD5039B00F07F006C
:10502000A040034428460393FFF7DEFE030604F185
:105030000704F2D4039BCDF8009000F07F00A0405D
:1050400003F5017300211C180D220B463046039412
:10505000FFF7D0FAFBE62846FFF7C6FE00F00F0286
:10506000013200F0F000012142EA00320B463046E6
:10507000FFF790FC00287FF413AFE8E62846FFF71F
:10508000B3FE00F00F02013200F0F0000321EBE765
:105090002846FFF7A9FE024600283FF401AF10F0B2
:1050A000F0037FF4FDAE30460421FFF773FC0028C7
:1050B0007FF4F6AECBE600F00F020132032142F49A
:1050C00020220B463046FFF765FC00287FF4E8AE4F
:1050D000BDE603AC41460E22434600943046FFF73E
:1050E00061FA0094304641460F224346FFF782FAA8
:1050F0004046D6E62846FFF777FE00F0F00200F0C3
:105100000F031032013343EA0232C2E610B5C36C1A
:1051100084B05A6803208DF80C00DC798DF80D40BE
:1051200012020833084601A901920293FFF788FE94
:1051300004B010BD08B5FFF781FE806C08BD00BF4C
:1051400008B5FFF77BFEC36CD87903EB800008300D
:1051500008BD00BF08B5FDF7E3FD00BF08B5FDF7CA
:10516000DFFD00BF844641EA000313F003036DD165
:10517000403A41D351F8043B40F8043B51F8043B1A
:1051800040F8043B51F8043B40F8043B51F8043B21
:1051900040F8043B51F8043B40F8043B51F8043B11
:1051A00040F8043B51F8043B40F8043B51F8043B01
:1051B00040F8043B51F8043B40F8043B51F8043BF1
:1051C00040F8043B51F8043B40F8043B51F8043BE1
:1051D00040F8043B51F8043B40F8043B51F8043BD1
:1051E00040F8043B51F8043B40F8043B51F8043BC1
:1051F00040F8043B403ABDD2303211D351F8043B61
:1052000040F8043B51F8043B40F8043B51F8043BA0
:1052100040F8043B51F8043B40F8043B103AEDD20F
:105220000C3205D351F8043B40F8043B043AF9D260
:10523000043208D0D2071CBF11F8013B00F8013B33
:1052400001D30B8803806046704700BF082A13D340
:105250008B078DD010F003038AD0C3F10403D21A58
:10526000DB071CBF11F8013B00F8013B80D331F88C
:10527000023B20F8023B7BE7043AD9D3013A11F80C
:10528000013B00F8013BF9D20B7803704B78437077
:105290008B7883706046704770B4840746D0541E84
:1052A000002A41D0CDB2034602E0621EE4B31446A8
:1052B00003F8015B9A07F8D1032C2ED9CDB245EA49
:1052C00005250F2C45EA054519D903F1100226469C
:1052D000103E0F2E42F8105C42F80C5C42F8085C5D
:1052E00042F8045C02F11002F2D8A4F1100222F09C
:1052F0000F0204F00F041032032C13440DD91E4684
:105300002246043A032A46F8045BFAD8221F22F008
:1053100003020432134404F003042CB1C9B21C4448
:1053200003F8011BA342FBD170BC7047144603462F
:10533000C2E700BF2A00000054000000A8000000DF
:10534000C8000000F000000002000000040000009F
:10535000070000000A0000000A000000496E69749E
:1053600069616C697A696E672050726F70656C6CE8
:10537000657220446973706C61792E2E2E0A0D00BF
:1053800050726F70656C6C657220446973706C61EB
:1053900079206F6E6C696E650A0D000050726F7037
:1053A000656C6C657220446973706C6179206F66FE
:1053B000666C696E650A0D0070726F6772616D20B0
:1053C000656E6465640A000043616C6962726174B1
:1053D000696E672E2E2E0A0D0000000000000000EE
:1053E0005344204361726420756E6D6F756E7465F1
:1053F000640A00004552524F523A2025730A0A703F
:10540000726F6772616D20656E6465640A0A0000E0
:1054100053442043617264206661696C65642100B5
:1054200053442043617264206D6F756E7465640A25
:1054300000000000737464696F2E633A20696E6324
:105440007265617365204D41585F535452494E4710
:105450005F53495A450A0D0080818283848586877F
:1054600088898A8B8C8D8E8F909192939495969744
:105470009899AD9B8C9DAE9FA021A2A3A4A5A6A7A1
:10548000A8A9AAABACADAEAFB0B1B2B3B4B5B6B724
:10549000B8B9BABBBCBDBEBFC0C1C2C3C4C5C6C714
:1054A000C8C9CACBCCCDCECFD0D1D2D3D4D5D6D704
:1054B000D8D9DADBDCDDDEDFC0C1C2C3C4C5C6C7F4
:1054C000C8C9CACBCCCDCECFD0D1D2D3D4D5D6F7C4
:1054D000D8D9DADBDCDDDE9F01030507090E1012E7
:1054E0001416181C1E000000222A3A3C3E3F7C7F06
:1054F000000000002B2C3B3D5B5D0000222A2B2C82
:105500002E3A3B3C3D3E3F5B5D7C7F00EBFE904D89
:1055100053444F53352E30004E4F204E414D4520C1
:105520002020204641543332202020004E4F204E70
:10553000414D45202020204641542020202020009D
:105540005344000055534200534452414D00000063
:10555000535049464C4153480000000052465531D3
:1055600000000000524655320000000052465533FC
:10557000000000005553455231000000555345527C
:105580003200000040550008445500084855000806
:10559000505500085C550008645500086C5500081B
:1055A000745500087C5500080004000200018000CA
:1055B000400020001000080004000200000000006D
:1055C0000080004000200010000800400020001073
:1055D00000080004000200000A0D00004154000011
:1055E0004F4B00004F4B31323030000041542B42C2
:1055F00041554431000000004F4B32343030000040
:1056000041542B4241554432000000004F4B343886
:105610003030000041542B4241554433000000001B
:105620004F4B39363030000041542B424155443401
:10563000000000004F4B31393230300041542B42D2
:1056400041554435000000004F4B333834303000B2
:1056500041542B4241554436000000004F4B353732
:105660003630300041542B42415544370000000091
:105670004F4B3131353230300000000041542B4265
:1056800041554438000000004F4B32333034303045
:105690000000000041542B424155443900000000F5
:1056A00041542B4E414D4525730000004F4B73650F
:1056B000746E616D6500000041542B50494E257396
:0D56C000000000004F4B73657450494E0010
:1056D0000F970181B0B00B84000000000797018193
:1056E000B0B008840000000003970181B0B00B84C3
:1056F0000000000001970181B0B0088400000000A4
:1057000001970181B0B00884000000000197018179
:10571000B0B008840000000001970181B0B0088497
:105720000000000003970181B0B008840000000071
:1057300001970181B0B00884000000000197018149
:10574000B0B008840000000001970181B0B0088467
:1057500000000000B2970181088401A7000000004A
:1057600001970181B0B00884000000000397018117
:10577000B0B008840000000003970181B0B0088435
:105780000000000001970181B0B008840000000013
:1057900002970181B0B009840000000003970181E5
:1057A000B0B008840000000008B10181B0B00084EE
:1057B0000000000008B10181B0B0008400000000CA
:1057C000FCAFFF7F0CFFFF7F30B1FF7F10FFFF7F3B
:1057D00018B2FF7F14FFFF7FCCB2FF7F18FFFF7F5F
:1057E000F8B2FF7F1CFFFF7F2CB3FF7F20FFFF7FFE
:1057F00038B3FF7F24FFFF7F50B3FF7F28FFFF7F79
:105800008CB3FF7F2CFFFF7FB4B3FF7F30FFFF7FA0
:1058100008B4FF7F34FFFF7F30B4FF7F38FFFF7F86
:105820006CB4FF7F0100000018D5FF7F34FFFF7FBD
:105830007CD5FF7F01000000A0D5FF7F30FFFF7FF8
:1058400044D6FF7F34FFFF7F10D7FF7F0884978007
:105850001CD7FF7F01000000C4DFFF7F28FFFF7F10
:10586000F0DFFF7F0100000034E0FF7F24FFFF7FB7
:105870009CE0FF7F28FFFF7FE4E0FF7F0100000046
:1058800024EAFF7FB0A90280BCEAFF7FB0B0A88005
:105890000CEBFF7F0100000018EBFF7FB0B0AA8087
:1058A00050EBFF7FAE71B28020ECFF7F0100000063
:1058B0001CECFF7FAB3F388074ECFF7F01000000E1
:1058C00080ECFF7FB0B0AA80BCECFF7F010000003D
:1058D00074EDFF7FAB0EB280DCEDFF7FB0AF0A80CE
:1058E000A8F0FF7F01000000ACF0FF7FAB3F048019
:1058F0004CF3FF7F0100000028F5FF7F0084048047
:105900003CF5FF7F0100000038F5FF7FB0AD04805B
:10591000FCF7FF7FB0A803801CF8FF7F8CFEFF7FA1
:1059200020F8FF7F90FEFF7F2CF8FF7F0100000032
:10593000211C0008F11D0008FD1F0008FD1E0008C5
:105940003D1E00087506000895060008B50600080B
:1059500025070008ED06000885060008A5060008D2
:10596000D10600084107000809070008CD1000080B
:10597000E5100008FD100008551100083911000855
:105980000000000000000000000000000000000017
:105990000000000000000000000000000000000007
:1059A00000000000000000000000000000000000F7
:1059B00000000000000000000000000000000000E7
:1059C00000000000000000000000000000000000D7
:1059D00000000000000000000000000000000000C7
:1059E00000000000000000000102030401020304A3
:1059F0000607080901000000000000000000000088
:105A00000100000000000000000000000000000095
:105A10000000000000000000000000000000000086
:105A20000000000000000000000000000000000076
:105A30000000000000000000000000000000000066
:105A40000000000000000000000000000000000056
:105E2000C800002001000000007A030A0000000002
:105E30000000000001020304060708098939000870
:0400000508000000EF
:00000001FF
