:020000040800F2
:1000000000000220AD7D0008F37D0008F57D0008AA
:10001000F77D0008F97D0008FB7D00080000000066
:10002000000000000000000000000000FD7D00084E
:10003000FF7D000800000000017E0008037E00082C
:10004000077E0008097E00080B7E00087564000822
:100050000F7E0008117E0008137E0008157E000840
:10006000177E0008197E00081B7E0008316C00080E
:10007000A969000869380008CD350008493300082F
:10008000C1300008854200082B7E00082D7E000844
:100090002F7E0008317E0008337E0008357E000880
:1000A000377E0008397E00083B7E00083D7E000850
:1000B000F1590008417E0008437E0008457E000893
:1000C000477E0008497E00084B7E00084D7E0008F0
:1000D0004F7E0008517E0008537E0008557E0008C0
:1000E0002D5000081D6400085B7E00085D7E00083E
:1000F0005F7E0008617E0008637E0008FD3F000807
:10010000677E0008697E0008B55700086D7E00080C
:100110006F7E0008717E0008737E0008757E0008FF
:10012000793D0008F13A0008A14C0008194A00087E
:1001300095470008817E0008837E0008857E0008C0
:10014000877E0008897E00088B7E00088D7E00086F
:100150000D45000831670008B9640008957E000865
:10016000977E0008997E00089B7E00089D7E00080F
:100170009F7E0008A17E0008A37E0008A57E0008DF
:10018000A77E0008A97E000810B5054C237833B976
:10019000044B13B10448AFF300800123237010BD5A
:1001A00020070020000000006081000808B5064B11
:1001B0001BB106480649AFF300800648036813B137
:1001C000054B03B1984708BD00000000608100089E
:1001D000240700201807002000000000154B002B0A
:1001E00008BF134B9D46A3F5803A00218B460F466E
:1001F0001348144A121A07F097FE0F4B002B00D039
:1002000098470E4B002B00D0984700200021040097
:100210000D000D48002802D00C48AFF3008007F015
:100220005DFE2000290000F013F807F043FE00BF38
:100230000000080000000220000000000000000094
:1002400020070020D8D3002000000000000000009C
:100250002DE98048ADF5894D8BB000AF90B00DF120
:100260001F03CC4C23F01F00F86004F05DFEA26871
:1002700002F00C01042900F09B82082940F09682CC
:100280006068C44A66686368556806F03F084602BD
:100290004CBFC148C148C5F3014AB0FBF8F9C3F3EC
:1002A00088140AF1010009FB04F14600B1FBF6F5E0
:1002B000B84BBB499C68BA4EC4F3031B8B4448221D
:1002C0009BF8C8C507F1E00025FA0CF54FF0FF31A7
:1002D000C6F8D85507F5947907F026FE07F5894248
:1002E00007F5DC764D4602F1280AB54204D02846CF
:1002F0000021721B07F018FE06F1900B05F1900427
:100300005C4504D0721B2046002107F00DFE0BF166
:10031000900E04F19000704504D00021C4EB0B0254
:1003200007F002FE0BF5907804F59070404504D07C
:100330000021C4EB0B0207F0F7FD0BF5D87304F5B1
:10034000D870984204D00021C4EB0B0207F0ECFDFA
:100350000BF5107104F51070884204D00021C4EB35
:100360000B0207F0E1FD04F5347555450BF53476C5
:10037000BBD107F5947300224FF0000948464FF0B7
:10038000030B10F00104ABF1060100F0138203EB44
:10039000610C8CF801208CF80220451C15F001013D
:1003A00000F0208203EB690888F8012088F8022019
:1003B00003EB6B0E002C00F008828EF801208EF803
:1003C0000220033060280BF1090B09F10909D8D18B
:1003D00090339A45D0D173480268D507824641F1DF
:1003E0009C837149714EBE6001F5887579653D63E6
:1003F0000E4634686C4A0CB10023136007F5947103
:100400004FF487426A48634E06F063FD07F5947126
:100410004FF48742654806F05CFDD7F854A03D6B69
:10042000CAF8505007F1E00148220024614806F064
:1004300050FD8AF8594005F039FD306C5E495F4A3D
:1004400040F0805307F1A80C0125C7F888C0336439
:100450000D60C7F89440C7F89420D7F8946006F16F
:100460004C01C7F89410D7F89400036844F2213B7C
:100470005B4504D041F23426B34241F03B845049FD
:10048000504C4F480B60F86402F006FDCA2253231B
:100490006262FF25636202F0DDFC6562E0684A4B40
:1004A0004A4E4B497E6400F0800262F490654FF43E
:1004B000800007F1B80A3964E5605861504602F0DF
:1004C00017F8DFF804913F4D4FF4800BCA26C9F8A6
:1004D00014B04FF053080020C7F8049002F08EFCCF
:1004E0006E62C5F82480AC683A4924F48043AB605E
:1004F0002A6C2A644FF0FF09C5F82490FC6CFA6C52
:10050000032020710423002408205371D4719471B6
:10051000C1F88000C2F808B0507314739473D7F810
:1005200004C02D48DCF8001021F48003CCF8003022
:10053000D7F84CC04FF0010B8CF807B002F03EFD2D
:10054000D7F84CC025488CF80EB002F0F7FC2046D6
:1005500002F054FC6E62C5F82480AA6822F00700FD
:10056000A860A96840F6FF7341EA0B02AA60C5F8CB
:1005700024906E62C5F824806B61C5F824906E6289
:10058000C5F82480AE6846F48040A860296C2964D0
:10059000584625E00038024040787D010024F400F0
:1005A00000000020B04B0020B84B002048900020F5
:1005B000C84C0020C04B002020000E4250280040B4
:1005C0004007002000280040003C0140A04B0020D4
:1005D000384C002000E100E04407002048070020DC
:1005E000C5F8249002F00AFC7D6D6B6833B1834A34
:1005F0008348844906F076FC834A5460834E844CD9
:100600008448854D0021F16102F092FB834B6068C4
:100610001A6B814EA8428CBF42F4800242F4001251
:100620001A637E48E168056B7C4AB1428CBF45F491
:10063000800545F400150563D7F84C80734D002301
:10064000C8F82430C8F82C30C8F83030C8F8343036
:10065000C8F83830C8F83C30C8F84030C8F84430E2
:10066000C8F84830166B46F0010111630223582187
:100670000122284602F0C8F8606802F0CBFCE0686E
:1006800002F0C8FC4FF00809102028834821644874
:10069000A5F8189001F00AFE10B9624806F09AFC1D
:1006A000E66862685B4B7468002CFCD15568002DCD
:1006B000F9D119898C07F6D0B3F808E05FEA0E602B
:1006C000F1D4D7F854B0DBF80460012E0CD04D4AB9
:1006D0004A494B48002E18BF114606F003FCD7F8D4
:1006E00054C00120CCF8040005F0E0FB4B4A4E4B0F
:1006F000146B44F004051563516C4FF0000941F48C
:100700008046566402214FF0010B4FF003084A4621
:100710000132501C0BFA02FC0BFA00F4102A0CF404
:10072000805504F4805E01F1020600F08380AC4540
:100730000FD11D6808FA01FC6FEA0C0909EA0501EE
:10074000196018681860DD6809EA0501D960D86881
:10075000D86074450FD11C6808FA06F56FEA050EDB
:100760000EEA0401196018681860DD680EEA0504D5
:10077000DC60D968D96002320BFA02F000F4805CC8
:10078000604506F102050FD11C6808FA05F96FEA09
:10079000090E0EEA0401196018681860DD680EEA97
:1007A0000504DC60D968D960311DB1E71F4D7FE5D4
:1007B0001F4D7DE54FEA690E0EF1010503F80E406D
:1007C0005E5D26F00F015955E7E50BF103064FEA90
:1007D000660808F1010103F808405C5C24F00F058D
:1007E0005D54EEE54FEA6B0C0CF1010603F80C10BA
:1007F0009D5D25F00F019955DAE500BF547F000893
:10080000787F00085C7F0008B84B002000000240A1
:1008100064060020003001400F64024000380240AE
:10082000C04B00209C7F0008000802400024F40018
:1008300040787D014B4B4C4C596921F00F025A61B5
:10084000586940F002055D614FF0010900254FF441
:1008500080564FF00C0B5046C7F8B8608AF80690E7
:100860008AF804508AF805B04FF0280802F066FBB9
:1008700007F1A80087F8A95087F8AA9087F8AB90ED
:1008800087F8A88002F09AFB384B196C41F00802F7
:100890001A64A08986B246EA090CA4F80CC0B4F820
:1008A00000B02BF45C784FEA0843190C41F01002B9
:1008B00043F2D40622804FF0320CE6625046258582
:1008C000A4F814908AF803908AF801508AF802502C
:1008D00087F8B8C002F072FBD7F854B0CBF890603C
:1008E0002588A8B240EA0909A4F80090D7F80C803E
:1008F0007B6D08F1020C07F19804C7F834C0C7F803
:100900008C4018688646FB6C196E202917D1184D4B
:10091000FC682E78A5F1800B0FCD0FC495E80F0071
:1009200084E80F009BF88120FA632EBBBEF1000F14
:1009300008D07C6D266005F0B9FAD4F800E0BEF16D
:10094000000FE0D1D7F854800A4898F85920002ABF
:1009500000F03A8690F85860002E40F0358600206E
:10096000D0E700BF00380140000C004000380240D2
:10097000C0070020B84B0020012EE0D1BEF1010FCE
:10098000D7F834E0DD4DDEF80000DEF80410DEF8C4
:100990000C30DEF80820DFF8749318BFD7F854B095
:1009A000D9F80040D7F854C018BFCBF800600FC585
:1009B0009EF81630BEF81410DEF81000AB714FF040
:1009C0000108E3072860A9808CF858804E4640F162
:1009D0001884D7F854E0CA4CC7F864A0DEE9268929
:1009E00004EA0802100B4FF07F46386206EA080C52
:1009F0004FEA1C663C6ABE624FF0000B0BEA090529
:100A00000F2303EA090144EA0550D7F82890386219
:100A1000BC4ADEF850303C6B49EA012E4FEA153BE8
:100A20000D0E97F82010C7F88010A2F5874CA3424E
:100A300018BF6246C8F30B063B6AC7F828E021F0EE
:100A40000F09396AC7F88460C7F824B0BE6AFD622E
:100A50009346C3F30725BA63D7F88430D7F88420C8
:100A6000BD67C1F3071C796D97F82800CEF3072EF8
:100A7000140AC7F874E023F00F05C6F3071E1E0919
:100A8000D1E92823FC670024C7E91A2320F00F08C6
:100A90003C675B46824603210022C7F860A012F043
:100AA000010000F05182A1F1060A03EB6A0B8BF8FA
:100AB00001508BF80260D40700F1338202EB42044C
:100AC00003EB640A8AF801908AF802C0002800F05B
:100AD000158203EB610080F8018080F802E00332A8
:100AE00012F0010401F1090000F0DE81033103EB93
:100AF000610AD1078AF801508AF8026000F1EB819F
:100B000002EB420103EB610A8AF801908AF802C005
:100B1000002C00F0B68103EB600484F8018084F8B7
:100B200002E00332602A00F10901B8D1386FD7F82A
:100B300060A0441C782C3C6703F19003ABD1FA6BA6
:100B4000D7F864A0002A00F02982D7E91A894FF06B
:100B50007F4505EA08064FF00F0B0BEA0901330E3B
:100B6000674843EA012B002409EA040E08EA000C56
:100B7000C7F810B04FEA1169B86ED7F810B0C7F8CF
:100B800014904FEA1C32D7F81090397C796642EA0B
:100B90000E584FEA1E3CC0F30B04C7F818803C67A0
:100BA000CBF307284FF0000EC7F81CC0C9F3071C91
:100BB0003B7EC7F850E0C7F85880D7F870E0D7F808
:100BC0007080C7F878C0BE69B869D7F870C0BB66D6
:100BD00001F0F00203F0F0054FEA1E2B4FEA18195E
:100BE000C6F30721C0F307142CF00F0E0023C7F83B
:100BF0008050F965FC67C7F860B0C7F88490BB64A3
:100C0000C7F874E09046BA6C7E6D3F49551C2E447F
:100C1000087896F8AB30BD64984200F0BD8691F834
:100C200028409C4200F0A28491F850B09B4500F00F
:100C3000B38491F87890994500F0AB8491F8A0C006
:100C40009C4500F0A48491F8C8E09E4500F09C8487
:100C500091F8F0209A4200F0948491F818519D4246
:100C600000F08C8491F840619E4200F0858491F8F8
:100C70006801984200F07D8491F890419C4200F018
:100C8000968491F8B8B19B4500F08E8491F8E0917C
:100C9000994500F0878491F808C29C4500F07F8454
:100CA00091F830E29E4500F0888491F858229A42EB
:100CB00000F0808491F880529D4200F0828491F887
:100CC000A8629E4200F06B8391F8D002984200F037
:100CD000748391F8F8429C4200F06C8391F820B341
:100CE0009B4500F0658391F84893994500F05D833A
:100CF00091F870C39C4500F0558309E0644C0020D6
:100D000000F0FF004890002000000020B04B0020C1
:100D100091F898E39E4501F0F98091F8C0239A423A
:100D200000F0F58691F8E8539D4200F0EC8691F8CA
:100D300010649E4200F0E38691F83804984200F077
:100D4000DA8691F860449C4200F0D28691F888B42B
:100D50009B4500F0538291F8B0C49C4500F04B8253
:100D600091F8D8E49E4500F0438291F8001599422D
:100D700000F0D086DB4D95F828259A4208BF05F58E
:100D8000A06300F03C82D74E96F85005984208BF09
:100D900006F5A06300F03082D24C94F878159942A1
:100DA00008BF04F5A06300F02482CF4D95F800C081
:100DB000A94605F128029C4518BF91464B4603F110
:100DC000040BBBE80F00D646AEE80F00BBE80F00EF
:100DD000AEE80F00D7F850C0BC6BDBF80000CEF8CF
:100DE00000000CEBCC0604EB06134FF0000E0121C3
:100DF00001FA0EF00325002215E0013205F1090188
:100E00005AF82260304240F00D81541C01F109066D
:100E10005AF82450284240F0DB800232092A01F1BE
:100E2000120500F0A6805AF822603042E5D002EBAD
:100E3000420111F0010400F0C681A5F1060903EB9F
:100E4000690B7E6FD7F884C08BF801608BF802C005
:100E5000C90700F1A68102EBC20103EB6109D7F8D3
:100E60008060F96F89F8016089F80210002C00F0A9
:100E7000858103EB650CBC6F8CF801808CF8024017
:100E8000BBE7C11C4FEA610B3C6E03F80B400BF152
:100E9000010AD7F874B013F80A1021F00F044BEAD6
:100EA000040103F80A103CE602EB42014FEA610B31
:100EB000D7F884A003F80BA00BF10101D7F87CA0B0
:100EC00013F801B02BF00F0B4AEA0B0B03F801B03B
:100ED000D1077FF515AE4FEA600BD7F880A003F875
:100EE0000BA00BF10101D7F878A013F801B02BF09B
:100EF0000F0B4AEA0B0B03F801B009E6CC1C4FEAD2
:100F0000640B386E03F80B000BF1010AD7F874B0CC
:100F100013F80A4024F00F004BEA000403F80A40DB
:100F2000DDE54FEA610BD7F880A003F80BA00BF1C9
:100F30000104D7F878A013F804B02BF00F0B4AEA9D
:100F40000B0B03F804B0C1E502EB42044FEA640B5B
:100F5000D7F884A003F80BA00BF10104D7F87CA00C
:100F600013F804B02BF00F0B4AEA0B0B03F804B094
:100F7000A1E50EF1010EBEF1080F03F190037FF41D
:100F800036AF386D00F1090108446F28386505D087
:100F9000FB6BD7F848E073457FF435AE534C2268BD
:100FA000D007264640F10C82D7F854B03C6BDBF8F2
:100FB00050604F49A64200F0AD87DFF838C1DCF839
:100FC00000E0CCF85010BEF1000F7FF49CACB9E407
:100FD00004EB440515F0010C00F0B58001F1030BA2
:100FE00003EB6B09D7F874B089F801B0D7F884B077
:100FF00089F802B0ED077FD404EBC40403EB640B63
:10100000D7F88050FC6F8BF801508BF80240BCF190
:10101000000F00F0868003EB6606BD6F86F8018046
:10102000B570FAE602EB420414F0010644D0033531
:1010300003EB650CD7F87490D7F884508CF80190C6
:101040008CF80250E40712D402EBC20403EB640CE8
:10105000D7F88050FC6F8CF801508CF80240CEB16C
:1010600003EB6106BC6F86F80180B470CDE64FEAF1
:10107000610BBD6E03F80B500BF1010CD7F85C90BF
:1010800013F80C4024F00F0B49EA0B0503F80C5041
:10109000002EE5D101F1030C4FEA6C0B7D6E03F8D5
:1010A0000B500BF10104D7F858901E5D26F00F0C81
:1010B00049EA0C051D55A8E602EBC2054FEA650B8F
:1010C000D7F870C003F80BC00BF10105D7F860B07A
:1010D00013F8059029F00F0C4BEA0C0903F8059062
:1010E000B0E700BF00000020A0050020B04B0020AA
:1010F000C84C0020B84B00204FEA660BBD6E03F8C9
:101100000B500BF10109D7F85CB013F8094024F03B
:101110000F054BEA050403F80940BCF1000F7FF40A
:101120007AAFF41C4FEA640C7E6E03F80C600CF18D
:101130000109BC6D13F809B02BF00F0544EA050650
:1011400003F8096069E604EBC4094FEA690B0BF187
:101150000109C7F80090D7F8709003F80B90D7F802
:1011600000B013F80B9029F00F0BD7F8609049EA04
:101170000B0BD7F8009003F809B03BE7E91C4FEAE6
:10118000610B7E6E03F80B600BF1010CD7F858B0C1
:1011900013F80C9029F00F044BEA040103F80C102B
:1011A0002BE64FEA650BBE6E03F80B600BF1010CEA
:1011B000D7F85C9013F80C1021F00F0B49EA0B06DE
:1011C00003F80C6052E602EBC2064FEA660BD7F852
:1011D000709003F80B900BF10106D7F860B013F88C
:1011E00006C02CF00F094BEA090C03F806C02FE6E5
:1011F000D84B7833E3E5D74B5033E0E5D54B283374
:10120000DDE599F80040002C7FF4E3ABA5F1B400D4
:101210004FF0FF31482240F8044C06F085FE05F1FE
:101220000C00D7F840B000F8708C4FF00F094FF069
:101230007F4840E91A894FF0000940F6FF78CBF863
:10124000004000F86F4C40E9188940E9168940E9F0
:1012500014894FF0FF31482240F8744C40F8444C58
:1012600040F8404C40F83C4C00F86F4C06F05CFEF7
:10127000DFF8F4B205F15409E435A94505D0484634
:101280000021C9EB050206F04FFE09F1900405F1BB
:101290009008444505D0C9EB05022046002106F020
:1012A00043FE04F1900008F19002904204D0002126
:1012B000C4EB080206F038FE04F5907008F590754E
:1012C000A84204D00021C4EB080206F02DFE04F56C
:1012D000D87008F5D871884204D00021C4EB080208
:1012E00006F022FE04F5107008F5107E704504D05B
:1012F0000021C4EB080206F017FE04F53479D94545
:1013000008F53475B9D1DFF8608208F1900908F565
:10131000874BC84505D040460021C8EB090206F0BE
:1013200003FE08F1900409F19005AC4205D0C8EB2A
:1013300009022046002106F0F7FD04F1900005F1B6
:101340009003984203D000212A1B06F0EDFD04F51E
:10135000907005F59072904203D000212A1B06F090
:10136000E3FD04F5D87005F5D871884203D000215B
:101370002A1B06F0D9FD04F5107005F5107C6045B8
:1013800003D000212A1B06F0CFFD04F53478D845A0
:1013900005F53479BDD101203070FFF71ABB6E4BD3
:1013A00028330CE56D4B503309E56C4B283306E5CB
:1013B0006A4B04E5684B783301E5674B5033FEE434
:1013C00096F80080B8F1000F7FF4EEADD7F8549096
:1013D0006348C9F804804FF0FF31482206F0A4FDAD
:1013E00001256048D7F840C089F8585040F6FF748E
:1013F00000254FF07F420F23CCF8008089F85980F8
:10140000C9F85480C9E9182389F8598040F8448CF8
:1014100040F8408C40F83C8C4822C9E91A45C9E99B
:101420001C45C9E91E454FF0FF3100EB020806F0EC
:101430007BFD08F1900908F5874BC84505D040466B
:101440000021C8EB090206F06FFD08F1900409F1D4
:101450009005AC4205D0C8EB09022046002106F0F9
:1014600063FD04F1900005F19001884203D0002152
:101470002A1B06F059FD04F5907005F5907398420B
:1014800003D000212A1B06F04FFD04F5D87005F5A6
:10149000D872904203D000212A1B06F045FD04F5C6
:1014A000107005F51071884203D000212A1B06F048
:1014B0003BFD04F53478D84505F53479BDD1DFF826
:1014C000A88008F1900908F5874BC84505D040462B
:1014D0000021C8EB090206F027FD08F1900409F18C
:1014E0009005AC4205D0C8EB09022046002106F069
:1014F0001BFD04F1900005F1900E704503D0002112
:101500002A1B06F011FD04F5907005F5907C6045EE
:1015100003D000212A1B06F007FD04F5D87005F55D
:10152000D873984203D000212A1B06F0FDFC04F575
:10153000107005F51072904203D000212A1B06F0AE
:10154000F3FC04F53478D84505F53479BDD1012094
:10155000307029E560040020800200202003002074
:10156000C04B0020804C002048900020D64B2833F0
:1015700025E4D64B283322E4D44B20E4D44B7833F3
:101580001DE4D34B50331AE4D14B283317E4D04B2E
:1015900015E4CD4B783312E4CB4B50330FE4CD4BF5
:1015A00028330CE4CB4B0AE4C84B783307E4C74B31
:1015B000503304E4C74B783301E4C64B5033FFF794
:1015C000FEBBC54BFFF7FBBB396CD7F88850D7F88B
:1015D0008C90C24C0FC985E80F007B6C0FCB89E85B
:1015E0000F0007F1A80007F19801102204F1800B09
:1015F00005F060FC00283FF4B2A9DFF8F0C2DCF887
:101600000020D107654640F19D847D6DB44E2B6D61
:10161000396B7A6DA6F587448B4208BF3446204665
:10162000D2E9182304F04CFBD7F844B0AD4A9BF83C
:1016300000509BF804009BF80530AB49C7F8804088
:10164000A2FB0596A2FB00BE7609A1FB0389C6EBAF
:10165000061C4FEA5E1BA5EB8C084FEAD906CBEBC4
:101660000B1C06EB46095FFA88F5A0EB8C00A3EB98
:101670008903C5EB0516C5B24FEAC608C5EB0515CB
:10168000DEB2A2FB089BC6EB061CEE004FEA5B191C
:101690004FEACC0EA2FB06B2550909EBC900A1FB2B
:1016A0000EC104EB0013C7F884504FEAD10B362665
:1016B000392112200022FF2510F0010400F05F8183
:1016C000A1F1060803EB680C8CF801208CF80220CD
:1016D00000F1010919F0010E00F0448103EB6608E6
:1016E00088F8012088F80220002C00F02B8103EB01
:1016F00061096FF00F0489F8014089F80250033046
:1017000010F0010406F1090E01F1090600F00D8147
:10171000033103EB610C8CF801208CF8022000F1FE
:10172000010C1CF0010900F0E38003EB6E0888F85F
:10173000012088F80220002C00F0E98003EB660C01
:101740006FF00F048CF801408CF8025003306028D1
:1017500006F109010EF10906AED1D7F88430D7F8A9
:101760008040C7F8844003EBC30204EB02136C26ED
:101770006F212420FF25002210F0010400F0528187
:10178000A1F1060E03EB6E086FF00F0C88F801C094
:1017900088F8025000F1010E1EF0010800F03581BA
:1017A00003EB660C8CF801208CF80220002C00F072
:1017B0001D8103EB61046270A270033010F0010818
:1017C00006F1090E01F1090600F00381033103EB74
:1017D000610C6FF00F048CF801408CF8025000F19E
:1017E000010C1CF0010400F0DA8003EB6E0989F8AB
:1017F000012089F80220B8F1000F00F0DE8003EB31
:10180000660888F8012088F802200330602806F175
:1018100009010EF10906AFD1D7F884300BEBCB05E7
:1018200003EB051B9322902530210024F023FF2099
:1018300011F0010600F04F81A2F1060E0BEB6E0CC9
:101840008CF801408CF8024011F0010F40F0348117
:101850000BEB650888F8013088F80200002E00F0D4
:101860001C810BEB62067470B470033111F0010639
:1018700005F1090E02F1090500F0028103320BEBBC
:10188000620888F8014088F80240CA0700F1D98050
:101890000BEB6E0888F8013088F80200002E00F08B
:1018A000E1800BEB65067470B4700331602905F1BB
:1018B00009020EF10905BBD1D7F854B001248BF809
:1018C00059405B46FFF71DB8000000204001002092
:1018D000A0000020E001002080020020B84B002082
:1018E0004890002089888888ABAAAAAAB04B00201B
:1018F0004FEA660C0CF1010103F80C9013F801900B
:1019000029F00F0803F80180002C7FF417AFF11CB9
:101910004FEA610909F1010403F80950195D21F04A
:101920000F0141F00F01195510E74FEA6E0808F159
:10193000010903F8084013F8091021F00F0103F81A
:101940000910ECE6CC1C4FEA640C0CF1010403F81E
:101950000C5013F804E02EF00F0848F00F0903F8BC
:101960000490CCE64FEA610909F1010C03F809E0A3
:1019700013F80CE02EF00F0803F80C80B4E64FEAE1
:10198000660909F1010E03F8094013F80E8028F0EA
:101990000F0C03F80EC09BE6CD4BFFF710BA4FEAD1
:1019A000660C0CF1010103F80C405C5C24F00F04A0
:1019B0005C54B8F1000F7FF422AFF11C4FEA6109CB
:1019C00009F1010403F80980195D21F00F0119558F
:1019D0001BE74FEA6E0909F1010103F809505C5C4D
:1019E00024F00F0444F00F045C54F8E601F10309FD
:1019F0004FEA690808F1010E03F8084013F80E4099
:101A000024F00F0403F80E40D7E64FEA610909F10C
:101A1000010E03F8098013F80E8028F00F0C03F86C
:101A20000EC0C3E64FEA660909F1010E03F809503A
:101A300013F80E8028F00F0C4CF00F0903F80E90ED
:101A4000A8E64FEA650C0CF101090BF80C001BF835
:101A5000092022F00F0242F00F020BF80920002E9D
:101A60007FF41FAFEA1C4FEA620808F101090BF886
:101A700008601BF8096026F00F020BF8092014E734
:101A80004FEA6E0C0CF101090BF80C601BF80920F1
:101A900022F00F020BF80920F7E602F1030E4FEADD
:101AA0006E0808F1010C0BF808601BF80C9029F087
:101AB0000F060BF80C60D8E64FEA620909F1010E37
:101AC0000BF809001BF80EC02CF00F0848F00F09A6
:101AD0000BF80E90C2E64FEA650808F101090BF811
:101AE00008601BF809E02EF00F0C0BF809C0ABE6FC
:101AF000784BFFF764B9784B7833FFF760B9764BD2
:101B00005033FFF75CB9744B2833FFF758B9724B69
:101B1000FFF755B9714BFFF752B9DFF8CC9199F83F
:101B20000040002C7EF45DAC6D4D6E4B6C604FF050
:101B3000FF3148224FF07F484FF00F0905F10800B0
:101B4000BB6001267D6506F0EFF9C5E9188940F60E
:101B5000FF784FF0000985F85860C5E91A8985F8C3
:101B60005940C5E91C89C5E91E8905F1C8004FF037
:101B7000FF3148226C65C5F88040C5F88440C5F83F
:101B80008840C5F88C4085F8594006F0CDF905F538
:101B90008870D7F808B03863064605F5D078464512
:101BA00005D030460021C6EB080206F0BDF908F169
:101BB000900906F190044C4505D0C6EB080220467A
:101BC000002106F0B1F909F1900204F19000904271
:101BD00004D00021C4EB090206F0A6F909F59071C2
:101BE00004F59070884204D00021C4EB090206F08D
:101BF0009BF909F5D87504F5D870A84204D00021E6
:101C0000C4EB090206F090F909F5107C04F5107098
:101C1000604504D00021C4EB090206F085F904F503
:101C200034765E4509F53478B9D1DFF8C080DFF845
:101C3000C0B0A8F19005454505D028460021C5EB68
:101C4000080206F071F908F1900905F190044C457D
:101C500005D0C5EB08022046002106F065F909F120
:101C6000900E04F19000704504D00021C4EB0902ED
:101C700006F05AF909F5907304F59070984204D073
:101C80000021C4EB090206F04FF909F5D87204F5FA
:101C9000D870904204D00021C4EB090206F044F948
:101CA00009F5107104F51070884204D00021C4EBCE
:101CB000090206F039F904F534755D4509F5347803
:101CC000B9D101208AF800007E6DFEF792BB00BFFB
:101CD0000000002060040020C00300200005002058
:101CE000B84B002048900020B04B0020D890002036
:101CF000C8D300208E4AFA6407F1B80A146001F0D4
:101D0000CBF8504687F8B8408AF809408AF8054071
:101D10008AF804408AF807508AF806508AF8085072
:101D200003F07AFEA446FC6C824B2660E3464FF03B
:101D300032080BF101055FFA85F90CEB8C0608EB14
:101D4000460E13F809807B4CA8F13005AEF1300047
:101D5000092D5FFA80FC01D8CB46EAE70BF10201BE
:101D60005FFA81FB00201BF804808AF807C0A8F105
:101D70003002092A8AF8080012D80BF101065FFA2E
:101D800086FB00EB800908EB490E13F80B80A8F1E5
:101D90003005AEF13004092DE0B2EED98AF8080022
:101DA0000BF10101CAB24FF0000E13F802908AF84D
:101DB00009E0A9F13006092E13D802F1010C5FFAEF
:101DC0008CF20EEB8E0409EB440B13F80290A9F190
:101DD0003000ABF1300509285FFA85FEEDD98AF8AD
:101DE00009E0511C5FFA81FC4FF0000913F80CB0B8
:101DF0008AF80690ABF13006092E13D80CF10108D1
:101E00005FFA88FC09EB89020BEB420413F80CB073
:101E1000ABF13000A4F1300509285FFA85F9EDD95E
:101E20008AF806900CF101015FFA81F8002013F89E
:101E300008B08AF80500ABF13006092E12D808F177
:101E4000010E5FFA8EF800EB80020BEB420C13F8E8
:101E500008B0ABF13004ACF13005092CE8B2EED992
:101E60008AF8050008F101015FFA81FE4FF0000BCE
:101E700013F80EC08AF804B0ACF13006092E13D85E
:101E80000EF101095FFA89FE0BEB8B020CEB4208A5
:101E900013F80EC0ACF13004A8F13005092C5FFA3C
:101EA00085FBEDD98AF804B00EF101005FFA80F9E4
:101EB0004FF0000C13F8098087F8B8C0A8F130067D
:101EC000092E13D809F101015FFA81F90CEB8C0E90
:101ED00008EB4E0213F80980A8F13004A2F1300596
:101EE000092C5FFA85FCEDD987F8B8C0124D134E66
:101EF0007D6450463E6403F08FFD786C00F0F8FA84
:101F000095E80F0086E80F00FEF7DBBA0C4B78333C
:101F1000FEF755BFA1F58873BD68D3F800E041F81E
:101F2000C05CBEF1000F7EF4EEACFEF70BBD00BF4F
:101F300040070020647F0008A04B0020384C0020A0
:101F4000200300202E78002E7FF45FAB04F1080000
:101F50004FF0FF314822666005F0E6FF4FF07F4802
:101F600004F1C8004FF00F09C4E9188901234FF0AC
:101F7000000940F6FF78CBF8006084F85830C4E9D7
:101F80001A8984F85960C4E91C89C4E91E89666508
:101F900084F859604FF0FF3140F8446C40F8406CD1
:101FA00040F83C6C482205F0BFFFDFF830B104F583
:101FB000887904F5D074A14505D048460021C9EBC5
:101FC000040205F0B1FF09F1900604F190084645BE
:101FD00005D0C9EB04023046002105F0A5FF06F14B
:101FE000900008F19001884204D00021C6EB08025D
:101FF00005F09AFF06F5907008F59074A04204D0A1
:102000000021C6EB080205F08FFF06F5D87008F531
:10201000D872904204D00021C6EB080205F084FF7C
:1020200006F5107008F5107E704504D00021C6EB4F
:10203000080205F079FF06F53479D94508F53474BE
:10204000B9D1DFF8988008F1900908F5874BC845A9
:1020500005D040460021C8EB090205F065FF08F1F4
:10206000900409F19006B44205D0C8EB090220465D
:10207000002105F059FF04F1900006F1900C604535
:1020800003D00021321B05F04FFF04F5907006F5D8
:102090009073984203D00021321B05F045FF04F5F0
:1020A000D87006F5D871884203D00021321B05F0A4
:1020B0003BFF04F5107006F51072904203D000212A
:1020C000321B05F031FF04F53478D84506F5347934
:1020D000BDD101202870FFF798BA00BF48900020BA
:1020E0002DE9F00F6F4C26788CB08E42DDF850C091
:1020F0000D4600F0D580217EA94200F0C88094F8FA
:102100003070AF4200F0C68094F84860AE4200F0F4
:10211000C480A04604F1780918F8604FAC420CBFA7
:1021200041464946DFF88081002508EA02041D4047
:102130004FEA143A0F264FF07F47174033404AEAE0
:1021400005564FEA176B0CEBCC055FFA86FC4BEAA1
:102150000324CDF81CC0C2F30B085FFA84FAC6F35F
:10216000072BC6F3071CDDF81C90CDF820A00AF061
:10217000F002C4F30727CDF828B0CDF80CC0C4F3A3
:10218000071A4FEA182B4FEA181328F00F0C0B9779
:1021900000EB051009F0F0090492CDF814A0CDF879
:1021A00024B00293CDF818C00027012606FA07F5DF
:1021B0000C4600220323019154F8041F0D420ED156
:1021C0000933302B02F10302F6D10137052F0199B3
:1021D00000F19000E9D10CB0BDE8F00F704712F0AB
:1021E000010641D0991F00EB610BDDF808A00699AC
:1021F0008BF801108BF802A0D10711D402EB420139
:1022000000EB610CDDF80CA08CF801908CF802A0BA
:10221000C6B100EB6306049971700599B170CFE700
:102220005910DDF81CB000F801B001F1010C10F8F4
:102230000C1021F00F0A0A9941EA0A0100F80C106B
:10224000002EE6D1DE1C4FEA660CDDF820B000F867
:102250000CB00CF1010A10F80A1021F00F060B99CE
:102260000E4300F80A60ABE702EB42014FEA610B54
:102270000BF1010C00F80B8010F80C10DDF824B005
:1022800021F00F0A4BEA0A0100F80C10B4E704F140
:10229000180147E704F1300144E704F1480141E740
:1022A00021463FE7DC05002000F0FF002DE9F007A4
:1022B000DFF828C2DCF80C305D68002D40F0E380C8
:1022C000DCF804406268002A40F0D980002800F061
:1022D000D780784B784EDFF80892986040254FF40D
:1022E0008067DCF80000ACF81420B4421A62DA61AE
:1022F0001961C3F804901860DD609F6140F2C780E7
:102300006E4A6F4E6F49704F2244A6FB02452C095E
:10231000032C88BF043CDFF8CC81DFF89CA118F8BF
:102320000450DFF8C49188BF39463D2404FA05F013
:102330000860DA681E685C699869D969634F42EA87
:10234000060545EA040242EA0006186A9D6B46EA61
:102350000104596A5E6B44EA00020A43DCF8044057
:10236000996A20680A4316433543074045EA070047
:1023700020606669196BDA6A1F6941EA020026F07B
:10238000070540EA0506666167605968A1609A68BA
:10239000E260DCF80C70DCF808401C600025574552
:1023A000DD609D61C3F808907AD8494E444D494894
:1023B000494C3E44A5FB06173A09032A84BF043A58
:1023C000204618F80240DFF80491DFF820A14FF012
:1023D0003D0808FA04F10160DA681E685D699F69CA
:1023E000D869196ADCF80C8042EA060444EA05025E
:1023F00042EA070646EA0005586A9A6A5C6B45EAB3
:10240000010747EA00019D6BD8F8007041EA020617
:1024100046EA040040EA050107EA090441EA040526
:10242000C8F80050D8F814701E6BD86A1A6946EACA
:10243000000127F0070941EA0904C8F81440C8F868
:1024400004205D68C8F808509B68C8F80C30DCF8B8
:102450000C703E6846F001003860DCF804100A6831
:1024600042F001040C60BAF804501FFA85FC4CF0ED
:102470000308AAF804800120BDE8F0077047284649
:10248000BDE8F00770470020BDE8F007704710482E
:102490000B4A1049104F2044A2FB0046340937E78D
:1024A000064E07490748084C3E44A1FB061A4FEA6E
:1024B0001A1282E7500700200F640240F09BFDBF14
:1024C000ABAAAAAA086402400C6402403F801CF038
:1024D000F09FFDBF086002400C60024064060020CF
:1024E0000C300140C080000874060020003001401C
:1024F0002DE9F00FB74CB84BD4F800C0B74AB84933
:10250000CCF3054ACCF306270CF07F054FEA1A19E5
:102510004FEA17182E0909EB890B0AF00F0A0CF481
:10252000800C07F00F0706EB860605F00F0508EB99
:1025300088080AEB4B0907EB48084FEA1C4B05EBF0
:10254000460783F803B09F7083F8009083F80180FA
:1025500080F80590077080F80480A36A4380636860
:10256000C3F307444FEA141A0AEB8A0604F00F0C6F
:10257000C3F3042B0CEB46054FEA1B1C03F03F068C
:102580004FEA8C04EFB24FEA161A0BF00F0B6444BB
:1025900007F5FA650BEB440406F00F06C3F3423B64
:1025A0000AEB8A0A40F2B37306EB4A0AA5F2B37C3F
:1025B00040F26D169D42D7704772547082F800B099
:1025C00082F802A082B00CF0010C047280F806B010
:1025D00080F807A032464FF4C8775FD9BCF1000FEE
:1025E00012D0A1FB03BC4FEADC1B07FB1B3C1FFA0C
:1025F0008CFB0133BBF1000F9BB214BFB4464FF408
:10260000B77C9D42624449D901901CE0642000FBE4
:102610001C3080B220B301339BB24FF4B77B9807D4
:102620005A4429D1A1FB03B04FEA501C4FF0640B70
:102630000BFB1C3080B2F8B101339BB24FF4B77B77
:102640009D425A4429D9A1FB030B4FEADB1BA1FB96
:10265000030C13F0030F07FB1B3B4FEA5C1CD5D0A8
:102660001FFA8BF0013300289BB214BFB3464FF41E
:10267000B77B98075A44D5D0A1FB030C4FEADC1076
:1026800007FB103080B2013300289BB214BFB34661
:102690004FF4B77B9D425A44D5D80198012C51D9AB
:1026A0004F49A1FB05174FEAD71C4FF4C87606FB2C
:1026B0001C5399B24FEA571BD1F1010C4FF064073C
:1026C00007FB1B5638BF4FF0000CAD07B3B24ED01E
:1026D0004FEA4C0BDC444FEA8C074249CE5D022C9A
:1026E0000F4432442ED97B78032C1A442AD9BD7862
:1026F000042C2A4426D997F803B0052C5A4421D932
:102700003E79062C32441DD97B79072C1A4419D9FD
:10271000BD79082C2A4415D997F807B0092C5A44DA
:1027200010D93E7A0A2C32440CD97B7A0B2C1A44ED
:1027300008D9BF7A0C2C3A4404D901EB8C0494F8E4
:102740000BC06244C8EB08118D004FF4616690F82D
:102750000080254B0AF1FF3A06FB09595244C14457
:1027600003FB0292C26002B0BDE8F00F7047002B7D
:10277000AED0022C02F11F052AD9032C02F13C0530
:1027800026D9042C02F15B0522D9052C02F179052A
:102790001ED9062C02F198051AD9072C02F1B605AC
:1027A00016D9082C02F1D50512D9092C02F1F4052D
:1027B0000ED90A2C02F589750AD90B2C02F23115B3
:1027C00006D90C2C02F24F1502D902F5B772B9E7FF
:1027D0002A46B7E700280040080800200C0800201F
:1027E0001F85EB51A880000880510100044B05486B
:1027F000402218211A835A83598304F0EBBB00BF8F
:1028000000000240DC7F00082DE9F00F00F13F4599
:10281000541E05F57E06012C4FEA962740F2DD8016
:10282000CB07FDB2DD4C4FF001064FF0030700F17E
:10283000BE80012341FA03FB1BF0010F1DD04FEABC
:102840004308D0F80CA034F8159007FA08FC6FEA9A
:102850000C0C0CEA0A0BC0F80CB0D0F800B006FA69
:1028600003FA02FA08F80CEA0B0C4AEA09094CEAE6
:10287000080B24F81590C0F800B0013341FA03FAB0
:102880001AF0010F1DD04FEA4308D0F80CB034F80D
:10289000159007FA08FC6FEA0C0C0CEA0B0AC0F85A
:1028A0000CA0D0F800B006FA03FA02FA08F80CEA15
:1028B0000B0C4AEA09094CEA080B24F81590C0F8F9
:1028C00000B003F1010C41FA0CFA1AF0010F1DD00F
:1028D0004FEA4C09D0F80CA034F815B007FA09F803
:1028E0006FEA080808EA0A0AC0F80CA0D0F800A0AD
:1028F00006FA0CFC4CEA0B0B02FA09F908EA0A0882
:1029000048EA090A24F815B0C0F800A003F1020C47
:1029100041FA0CFB1BF0010F1DD04FEA4C09D0F817
:102920000CA034F815B007FA09F86FEA080808EAAD
:102930000A0AC0F80CA0D0F800A006FA0CFC4CEA79
:102940000B0B02FA09F908EA0A0848EA090A24F80E
:1029500015B0C0F800A003F1030C41FA0CFB1BF00A
:10296000010F1DD04FEA4C09D0F80CA034F815B077
:1029700007FA09F86FEA080808EA0A0AC0F80CA082
:10298000D0F800A006FA0CFC4CEA0B0B02FA09F98D
:1029900008EA0A0848EA090A24F815B0C0F800A0B5
:1029A0000433102B7FF446AFBDE8F00F7047D0F82A
:1029B0000CA034F815B06FF0030303EA0A08C0F85E
:1029C0000C80D0F8009003EA090A46EA0B0C4AEAA8
:1029D000020324F815C003602BE7704EFDB20024FB
:1029E00041FA04F85FEAC8772FD54FEA440C032771
:1029F000D0F80CB036F8159007FA0CFA6FEA0A070F
:102A000007EA0B08C0F80C80D0F800B002FA0CFA04
:102A100007EA0B0848EA0A0BC0F800B0D0F804A097
:102A20004FF0010808FA04FB2AEA0B0AC0F804A0D8
:102A3000D0F8088003FA0CFC07EA08074BEA0909FA
:102A400047EA0C0726F815908760013441FA04FB29
:102A50005FEACB772FD54FEA440C0327D0F80C80E0
:102A600036F8159007FA0CFA6FEA0A0707EA080B1E
:102A7000C0F80CB0D0F8008002FA0CFA07EA080B94
:102A80004BEA0A08C0F80080D0F804A04FF0010B10
:102A90000BFA04F82AEA080AC0F804A0D0F808B033
:102AA00003FA0CFC07EA0B0748EA090947EA0C0796
:102AB00026F815908760671C41FA07F818F0010F97
:102AC00030D04FEA47084FF0030A0AFA08FBD0F863
:102AD0000CA036F815906FEA0B0C0CEA0A0BC0F844
:102AE0000CB0D0F800A002FA08FB0CEA0A0A4AEA85
:102AF0000B0BC0F800B0D0F804A04FF0010B0BFA9C
:102B000007F72AEA070AC0F804A0D0F808B047EA95
:102B1000090903FA08F80CEA0B0C4CEA080726F836
:102B200015908760A71C41FA07FA1AF0010F30D000
:102B30004FEA47084FF0030BD0F80CA036F8159079
:102B40000BFA08FC6FEA0C0C0CEA0A0BC0F80CB08C
:102B5000D0F800A002FA08FB0CEA0A0A4AEA0B0BBA
:102B6000C0F800B0D0F804A04FF0010B0BFA07F743
:102B70002AEA070AC0F804A0D0F808B047EA090911
:102B800003FA08F80CEA0B0C4CEA080726F8159033
:102B900087600334102C7FF423AF05E7E0070020A3
:102BA000F0B400F13F43614C03F57E05C5F38F2778
:102BB0000126256B06FA07FC4CEA05032363002374
:102BC0000F2441FA03F7FE070FD5DE0800EB860558
:102BD00003F0070C2F6A4FEA8C0604FA06FC27EA7A
:102BE0000C0702FA06F637432F62013341FA03F568
:102BF000ED070FD5DE0800EB860503F0070C2F6A02
:102C00004FEA8C0604FA06FC27EA0C0702FA06F6DD
:102C100037432F625D1C41FA05FC5FEACC770ED585
:102C2000EE0800EB860605F00707BD00376A04FAD8
:102C300005FC27EA0C0702FA05F52F43376203F17A
:102C4000020C41FA0CF6F6070FD54FEADC0500EB53
:102C500085060CF00707BD00376A04FA05FC27EA71
:102C60000C0702FA05F52F43376203F1030C41FA12
:102C70000CF6F7070FD54FEADC0500EB85060CF0E4
:102C80000707BD00376A04FA05FC27EA0C0702FAB9
:102C900005F52F43376203F1040C41FA0CF6F607F1
:102CA0000FD54FEADC0500EB85060CF00707BD00E9
:102CB000376A04FA05FC27EA0C0702FA05F52F43E8
:102CC000376203F1050C41FA0CF6F7070FD54FEA0E
:102CD000DC0500EB85060CF00707BD00376A04FA37
:102CE00005FC27EA0C0702FA05F52F43376203F1CA
:102CF000060C41FA0CF6F6070FD54FEADC0500EB9F
:102D000085060CF00707BD00376A04FA05FC27EAC0
:102D10000C0702FA05F52F4337620733102B7FF4B7
:102D200050AF02220323F0BC6EE500BF0038024022
:102D30002C4B984210B5044624D02B4884422FD007
:102D40002A498C4240D0208820F040024FEA024CB1
:102D50004FEA1C432380218801F4415040F4617202
:102D60002280B4F81CC02CF400631904080C07225C
:102D7000A0832282B4F800C01FFA8CF343F0400114
:102D8000218010BD03F5843C1948DCF8443043F43D
:102D90008051CCF844100522E021FFF701FFD2E773
:102DA00000F5003E1348DEF8401041F48042CEF8B2
:102DB00040204FF480610522FFF7F2FE0E480C21FF
:102DC0000522FFF7EDFEBEE701F5FE3C0948DCF801
:102DD000402042F40043CCF8403038210622FFF76F
:102DE000DFFEB0E70030014000380040003C00400A
:102DF00000000240000402400008024010B41449E0
:102E000083B00024CA22532301944A624B628C6827
:102E1000C8B924F48060886000E04AB9CA68019BA0
:102E20005C1C01940198B0F5803F02F00402F4D1DB
:102E30000749CB68C3F380000549FF224A6203B00B
:102E40005DF8044B704744F480648C600120F3E724
:102E5000002800400F4982B00020CA22532301906D
:102E60004A624B62C86820F0A002CA6000E048B91C
:102E7000C868019B5A1C0192019BB3F5003F00F00A
:102E80002000F4D10349CB68FF22C3F340104A620B
:102E900002B070470028004070B5134B134901225F
:102EA00082B01A60486F114A8307FBD5166F104C29
:102EB0001048CA21532346F40076012516670560A1
:102EC00061626362FFF7C6FF0B4EFF200022606263
:102ED00001920196019C04F14C050195019941F282
:102EE00034230B6002B070BD800E474200380240B0
:102EF000002800403C0E47425028004082B000238A
:102F00000D490193C868430614D44FF0FF32CA60DC
:102F100000E048B9C868019B5A1C0192019BB3F5B7
:102F2000803F00F04000F4D10349CA68C2F380102A
:102F300002B070470120FBE70028004010B41E4B90
:102F40000268196821EA02041C605968026821EAD3
:102F500002045C6090F804C001680CF1804202F544
:102F60009E3CDCF800402143CCF800109C680268CD
:102F700024EA02019960DC68026824EA0201D9604F
:102F80004479102C0DD004F1804303F59E3C006879
:102F9000DCF8002042EA0001CCF800105DF8044B98
:102FA000704702689C6844EA020199600068DC6826
:102FB00044EA0002DA60F1E7003C0140F0B4134A51
:102FC0004778D1688578124BCC43C4F3022CCCF1FE
:102FD0000406F2B20F2607FA02F446FA0CF701785B
:102FE000E6B23D4046EA050C19444FEA0C12D4B251
:102FF00081F800430778012007F01F017E0900FADD
:1030000001F543F82650F0BC704700BF00ED00E02A
:1030100000E100E0234B984293BF234B234B244A0B
:10302000244A03441821B3FBF1F3032B10B588BFE6
:10303000043B044620481B4910F803C088BF0432F3
:103040003D2303FA0CF08C4282B0106020D9174B5C
:103050001A4923441822B3FBF2FE01EB0E0C9CF834
:1030600008104FF0010C68468DF800108DF802E052
:103070008DF801C08DF803C0FFF7A0FF216841F073
:103080001E002060636943F08002626102B010BDDF
:1030900005480A4B20441822B0FBF2FE13F80E102C
:1030A000DFE700BF0F640240F09FFDBFF09BFDBF54
:1030B0000864024008600240C0800008CC7F00081D
:1030C0002DE9F04F954A964B11684FEA91184FF44D
:1030D000746018F0200F83B0186004D0DC6FE40631
:1030E00003F17C0322D418F0100F03D08D4B196824
:1030F000090740D418F0080F03D08A4B186842071C
:103100000CD418F0040F1CBF864B1B6818F0010F7D
:103110001CBF844B5B6903B0BDE8F08F824C6568CF
:103120009D42EED1814803F055FFEAE77E4D6E687F
:103130009E42D8D1DFF80CA2DAF80030D80722D5A9
:10314000DFF8EC91D9F80430794C002B00F0E280E4
:10315000012BC8D1774D784840234FF0080A2B83C4
:103160006B83A5F818A0A5F81AA003F033FF626DD1
:10317000531C6365B7E76C4E77689F42BAD16F48BE
:1031800003F028FFB6E79AF80070DFF8A491002F4B
:10319000D8D14FF0FF31482209F1080040F6FF7402
:1031A0000025C9F8047001974FF07F4604F0BCFE7B
:1031B0000F27019BC9F854304FF0010E09F1C800E8
:1031C0004FF0FF31482289F858E0C9E9186789F8BB
:1031D0005930C9F88030C9F88430C9F88830C9F846
:1031E0008C30C9E91A4589F85930C9E91C45C9E943
:1031F0001E4504F099FEDFF848B109F5D07709F5CE
:103200008876BE4204D030460021BA1B04F08CFE02
:1032100007F1900506F19004AC4204D0BA1B204699
:10322000002104F081FE05F1900204F1900090422B
:1032300003D000212A1B04F077FE05F5907104F5F8
:103240009070884203D000212A1B04F06DFE05F522
:10325000D87604F5D870B04203D000212A1B04F0C0
:1032600063FE05F5107704F51070B84203D0002115
:103270002A1B04F059FE04F534765E4505F53477D3
:10328000BFD12F4E06F1900706F5874BBE4204D002
:1032900030460021BA1B04F047FE06F1900407F106
:1032A0009005AC4204D0BA1B2046002104F03CFE3D
:1032B00004F1900005F1900C604503D000212A1B19
:1032C00004F032FE04F5907005F59073984203D037
:1032D00000212A1B04F028FE04F5D87005F5D872E9
:1032E000904203D000212A1B04F01EFE04F510704A
:1032F00005F51071884203D000212A1B04F014FE4A
:1033000004F534765E4505F53477BFD101208AF89F
:10331000000017E7FFF76AFAE5E600BF0460024025
:103320000C60024088600240640600204080000873
:10333000B84B002000000240FC7F00081C80000801
:1033400048900020B04B00202DE9F04F944A954B57
:10335000D2F800803D2018F0200F83B0186004D010
:10336000596ECC0603F1640322D418F0100F03D079
:103370008D4B1968090740D418F0080F03D08A4B09
:10338000186842070CD418F0040F1CBF864B1B684A
:1033900018F0010F1CBF844B5B6903B0BDE8F08FD0
:1033A000824C65689D42EED1814803F013FEEAE746
:1033B0007E4C65689D42D8D1DFF80CA2DAF8003067
:1033C000D80722D5DFF8EC91D9F80430794C002BDE
:1033D00000F0E280012BC8D1774D784840234FF0B0
:1033E000080A2B836B83A5F818A0A5F81AA003F090
:1033F000F1FD626D531C6365B7E76C4E77689F42C1
:10340000BAD16F4803F0E6FDB6E79AF80060DFF83E
:10341000A491002ED8D14FF0FF31482209F10800C5
:1034200040F6FF740025C9F8046001960F2704F0E8
:103430007BFD4FF07F46019BC9F854304FF0010EE1
:1034400009F1C8004FF0FF31482289F858E0C9E976
:10345000186789F85930C9F88030C9F88430C9F83C
:103460008830C9F88C30C9E91A4589F85930C9E95A
:103470001C45C9E91E4504F057FDDFF848B109F5C0
:10348000D07709F58876BE4204D030460021BA1BB9
:1034900004F04AFD07F1900506F19004AC4204D017
:1034A000BA1B2046002104F03FFD05F1900704F10E
:1034B0009000B84203D000212A1B04F035FD05F529
:1034C000907204F59070904203D000212A1B04F002
:1034D0002BFD05F5D87104F5D870884203D0002182
:1034E0002A1B04F021FD05F5107604F51070B0429A
:1034F00003D000212A1B04F017FD04F534765E4545
:1035000005F53477BFD12F4E06F1900706F5874BAE
:10351000BE4204D030460021BA1B04F005FD06F17E
:10352000900407F19005AC4204D0BA1B204600215C
:1035300004F0FAFC04F1900005F1900C604503D012
:1035400000212A1B04F0F0FC04F5907005F590733F
:10355000984203D000212A1B04F0E6FC04F5D87041
:1035600005F5D872904203D000212A1B04F0DCFC40
:1035700004F5107005F51071884203D000212A1B54
:1035800004F0D2FC04F534765E4505F53477BFD1FE
:1035900001208AF8000017E7FFF728F9E5E600BFE9
:1035A000046002400C60024070600240640600202B
:1035B00040800008B84B002000000240FC7F00085B
:1035C0001C80000848900020B04B00202DE9F04FEF
:1035D000994A9A4B11684FEA91584FF0746018F06D
:1035E000200F83B0186004D01C6DE40603F1500373
:1035F00022D418F0100F03D0914B1968090740D45A
:1036000018F0080F03D08E4B1D686A070CD418F011
:10361000040F1CBF8A4B1B6818F0010F1CBF884B9E
:103620005B6903B0BDE8F08F864A56689E42EED1D2
:10363000854803F0CFFCEAE7824D6E689E42D8D100
:10364000DFF820A2DAF80030D80722D5DFF8FC91A5
:10365000D9F804307D4C002B00F0E280012BC8D15A
:103660007B4D7C4840234FF0080A2B836B83A5F8E1
:1036700018A0A5F81AA003F0ADFC626D531C636599
:10368000B7E7704844689C42BAD1734803F0A2FC83
:10369000B6E79AF80070DFF8B491002FD8D14FF058
:1036A000FF31482209F1080040F6FF740025C9F8EF
:1036B000047001974FF07F4604F036FC0F27019B02
:1036C000C9F854304FF0010E09F1C8004FF0FF3136
:1036D000482289F858E0C9E9186789F85930C9F8CB
:1036E0008030C9F88430C9F88830C9F88C30C9E90D
:1036F0001A4589F85930C9E91C45C9E91E4504F045
:1037000013FCDFF858B109F5887609F5D077BE4289
:1037100004D030460021BA1B04F006FC06F19004E8
:1037200007F19005AC4204D0BA1B2046002104F0FA
:10373000FBFB04F1900005F19002904203D00021C0
:103740002A1B04F0F1FB04F5907005F59071884296
:1037500003D000212A1B04F0E7FB04F5D87005F51F
:10376000D876B04203D000212A1B04F0DDFB04F51B
:10377000107005F51077B84203D000212A1B04F021
:10378000D3FB04F534765E4505F53477BFD1334E6F
:1037900006F1900706F5874BBE4204D03046002163
:1037A000BA1B04F0C1FB06F1900407F19005AC428E
:1037B00004D0BA1B2046002104F0B6FB04F19000AF
:1037C00005F1900C604503D000212A1B04F0ACFBEE
:1037D00004F5907005F59073984203D000212A1BE0
:1037E00004F0A2FB04F5D87005F5D872904203D01E
:1037F00000212A1B04F098FB04F5107005F51071E8
:10380000884203D000212A1B04F08EFB04F5347695
:103810005E4505F53477BFD101208AF8000017E72F
:103820000B4E0F4840274FF0180E37837783A6F8CA
:103830001AE003F0CFFBDCE60060024008600240C3
:10384000586002406406002040800008B84B002009
:1038500000000240FC7F00081C8000084890002007
:10386000DC7F0008B04B00202DE9F04F954A964BC5
:1038700011684FEA11484FF4741018F0200F83B00C
:10388000186004D09C6BE40603F1380322D418F0CE
:10389000100F03D08D4B1968090740D418F0080F9A
:1038A00003D08A4B186842070CD418F0040F1CBFD1
:1038B000864B1B6818F0010F1CBF844B5B6903B07B
:1038C000BDE8F08F824C65689D42EED1814803F0DF
:1038D00081FBEAE77E4D6E689E42D8D1DFF80CA2EC
:1038E000DAF80030D80722D5DFF8EC91D9F80430A7
:1038F000794C002B00F0E280012BC8D1774D78483D
:1039000040234FF0080A2B836B83A5F818A0A5F875
:103910001AA003F05FFB626D531C6365B7E76C4E42
:1039200077689F42BAD16F4803F054FBB6E79AF824
:103930000070DFF8A491002FD8D14FF0FF3148225A
:1039400009F1080040F6FF740025C9F804700197DA
:103950004FF07F4604F0E8FA0F27019BC9F8543076
:103960004FF0010E09F1C8004FF0FF31482289F8ED
:1039700058E0C9E9186789F85930C9F88030C9F8A2
:103980008430C9F88830C9F88C30C9E91A4589F8FB
:103990005930C9E91C45C9E91E4504F0C5FADFF8EC
:1039A00048B109F5887609F5D077BE4204D0304693
:1039B0000021BA1B04F0B8FA06F1900407F1900553
:1039C000AC4204D0BA1B2046002104F0ADFA04F149
:1039D000900005F19002904203D000212A1B04F0D0
:1039E000A3FA04F5907005F59071884203D0002188
:1039F0002A1B04F099FA04F5D87005F5D876B04280
:103A000003D000212A1B04F08FFA04F5107005F58D
:103A10001077B84203D000212A1B04F085FA04F580
:103A200034765E4505F53477BFD12F4E06F1900709
:103A300006F5874BBE4204D030460021BA1B04F085
:103A400073FA06F1900407F19005AC4204D0BA1B5A
:103A50002046002104F068FA04F1900005F1900C72
:103A6000604503D000212A1B04F05EFA04F5907033
:103A700005F59073984203D000212A1B04F054FAF4
:103A800004F5D87005F5D872904203D000212A1BA6
:103A900004F04AFA04F5107005F51071884203D05D
:103AA00000212A1B04F040FA04F534765E4505F542
:103AB0003477BFD101208AF8000017E7FEF796FEA1
:103AC000E5E600BF0060024008600240406002403E
:103AD0006406002040800008B84B0020000002402F
:103AE000FC7F00081C80000848900020B04B00209C
:103AF0002DE9F04F954A964B11684FEA91184FF413
:103B0000746018F0200F83B0186004D01C6AE406BB
:103B100003F1200322D418F0100F03D08D4B196845
:103B2000090740D418F0080F03D08A4B18684207E1
:103B30000CD418F0040F1CBF864B1B6818F0010F43
:103B40001CBF844B5B6903B0BDE8F08F824C656895
:103B50009D42EED1814803F03DFAEAE77E4D6E6862
:103B60009E42D8D1DFF80CA2DAF80030D80722D56F
:103B7000DFF8EC91D9F80430794C002B00F0E280AA
:103B8000012BC8D1774D784840234FF0080A2B838A
:103B90006B83A5F818A0A5F81AA003F01BFA626DB4
:103BA000531C6365B7E76C4E77689F42BAD16F4884
:103BB00003F010FAB6E79AF80070DFF8A491002F2E
:103BC000D8D14FF0FF31482209F1080040F6FF74C8
:103BD0000025C9F8047001974FF07F4604F0A4F95E
:103BE0000F27019BC9F854304FF0010E09F1C800AE
:103BF0004FF0FF31482289F858E0C9E9186789F881
:103C00005930C9F88030C9F88430C9F88830C9F80B
:103C10008C30C9E91A4589F85930C9E91C45C9E908
:103C20001E4504F081F9DFF848B109F5887609F5F9
:103C3000D077BE4204D030460021BA1B04F074F99C
:103C400006F1900407F19005AC4204D0BA1B20465F
:103C5000002104F069F904F1900005F1900290420E
:103C600003D000212A1B04F05FF904F5907005F5DC
:103C70009071884203D000212A1B04F055F904F505
:103C8000D87005F5D876B04203D000212A1B04F085
:103C90004BF904F5107005F51077B84203D00021F8
:103CA0002A1B04F041F904F534765E4505F53477B6
:103CB000BFD12F4E06F1900706F5874BBE4204D0C8
:103CC00030460021BA1B04F02FF906F1900407F1E9
:103CD0009005AC4204D0BA1B2046002104F024F920
:103CE00004F1900005F1900C604503D000212A1BDF
:103CF00004F01AF904F5907005F59073984203D01A
:103D000000212A1B04F010F904F5D87005F5D872CB
:103D1000904203D000212A1B04F006F904F510702C
:103D200005F51071884203D000212A1B04F0FCF82D
:103D300004F534765E4505F53477BFD101208AF865
:103D4000000017E7FEF752FDE5E600BF0064024001
:103D50000864024028640240640600204080000895
:103D6000B84B002000000240FC7F00081C800008C7
:103D700048900020B04B00202DE9F04F944A954B1D
:103D8000D2F800803D2018F0200F83B0186004D0D6
:103D90009968CC0603F1080322D418F0100F03D061
:103DA0008D4B1968090740D418F0080F03D08A4BCF
:103DB000186842070CD418F0040F1CBF864B1B6810
:103DC00018F0010F1CBF844B5B6903B0BDE8F08F96
:103DD000824C65689D42EED1814803F0FBF8EAE72A
:103DE0007E4C65689D42D8D1DFF80CA2DAF800302D
:103DF000D80722D5DFF8EC91D9F80430794C002BA4
:103E000000F0E280012BC8D1774D784840234FF075
:103E1000080A2B836B83A5F818A0A5F81AA003F055
:103E2000D9F8626D531C6365B7E76C4E77689F42A3
:103E3000BAD16F4803F0CEF8B6E79AF80060DFF821
:103E4000A491002ED8D14FF0FF31482209F108008B
:103E500040F6FF740025C9F8046001960F2704F0AE
:103E600063F84FF07F46019BC9F854304FF0010EC4
:103E700009F1C8004FF0FF31482289F858E0C9E93C
:103E8000186789F85930C9F88030C9F88430C9F802
:103E90008830C9F88C30C9E91A4589F85930C9E920
:103EA0001C45C9E91E4504F03FF8DFF848B109F5A3
:103EB000887609F5D077BE4204D030460021BA1B7F
:103EC00004F032F806F1900407F19005AC4204D0FA
:103ED000BA1B2046002104F027F804F1900005F1F8
:103EE0009007B84203D000212A1B04F01DF804F506
:103EF000907005F59072904203D000212A1B04F0C7
:103F000013F804F5D87005F5D871884203D0002164
:103F10002A1B04F009F804F5107005F51076B0427C
:103F200003D000212A1B03F0FFFF04F534765E4521
:103F300005F53477BFD12F4E06F1900706F5874B74
:103F4000BE4204D030460021BA1B03F0EDFF06F15B
:103F5000900407F19005AC4204D0BA1B2046002122
:103F600003F0E2FF04F1900005F1900C604503D0EE
:103F700000212A1B03F0D8FF04F5907005F590731B
:103F8000984203D000212A1B03F0CEFF04F5D8701D
:103F900005F5D872904203D000212A1B03F0C4FF1C
:103FA00004F5107005F51071884203D000212A1B1A
:103FB00003F0BAFF04F534765E4505F53477BFD1DA
:103FC00001208AF8000017E7FEF710FCE5E600BFC5
:103FD000006402400864024010640240640600204D
:103FE00040800008B84B002000000240FC7F000821
:103FF0001C80000848900020B04B00202DE9F04FB5
:10400000954A964B11684FEA91584FF0746018F03A
:10401000200F83B0186005D0D3F8AC40E40603F15C
:10402000AC0322D418F0100F03D08D4B1968090788
:1040300040D418F0080F03D0894B186842070CD4FD
:1040400018F0040F1CBF864B1B6818F0010F1CBF33
:10405000834B5B6903B0BDE8F08F824C65689D427D
:10406000EED1814802F0B6FFEAE77E4D6E689E42CF
:10407000D8D1DFF80CA2DAF80030D80722D5DFF863
:10408000EC91D9F80430794C002B00F0E280012B40
:10409000C8D1774D774840234FF0080A2B836B83B4
:1040A000A5F818A0A5F81AA002F094FF626D531CA1
:1040B0006365B7E76B4E77689F42BAD16E4802F0EE
:1040C00089FFB6E79AF80070DFF8A091002FD8D1E9
:1040D0004FF0FF31482209F1080040F6FF74002537
:1040E000C9F8047001974FF07F4603F01DFF0F27BA
:1040F000019BC9F854304FF0010E09F1C8004FF090
:10410000FF31482289F858E0C9E9186789F8593021
:10411000C9F88030C9F88430C9F88830C9F88C30C3
:10412000C9E91A4589F85930C9E91C45C9E91E454C
:1041300003F0FAFEDFF844B109F5D07709F5887687
:10414000BE4204D030460021BA1B03F0EDFE07F159
:10415000900506F19004AC4204D0BA1B2046002121
:1041600003F0E2FE05F1900204F19000904203D0CA
:1041700000212A1B03F0D8FE05F5907104F590701C
:10418000884203D000212A1B03F0CEFE05F5D87625
:1041900004F5D870B04203D000212A1B03F0C4FEFE
:1041A00005F5107704F51070B84203D000212A1BE2
:1041B00003F0BAFE04F534765E4505F53477BFD1D9
:1041C0002E4E06F1900706F5874BBE4204D03046CE
:1041D0000021BA1B03F0A8FE06F1900407F1900538
:1041E000AC4204D0BA1B2046002103F09DFE04F12E
:1041F000900005F1900C604503D000212A1B03F0CC
:1042000093FE04F5907005F59073984203D0002159
:104210002A1B03F089FE04F5D87005F5D872904288
:1042200003D000212A1B03F07FFE04F5107005F572
:104230001071884203D000212A1B03F075FE04F59B
:1042400034765E4505F53477BFD101208AF8000049
:1042500017E7FEF7CBFAE5E6046002400C60024087
:10426000B86002406406002040800008B84B00207F
:1042700000000240FC7F00081C80000848900020DD
:10428000B04B00202DE9F04F954A964B11684FEA4C
:1042900011484FF4741018F0200F83B0186005D047
:1042A000D3F89440E40603F1940322D418F0100FDD
:1042B00003D08D4B1968090740D418F0080F03D0BC
:1042C000894B186842070CD418F0040F1CBF864BAA
:1042D0001B6818F0010F1CBF834B5B6903B0BDE87E
:1042E000F08F824C65689D42EED1814802F072FEEB
:1042F000EAE77E4D6E689E42D8D1DFF80CA2DAF86C
:104300000030D80722D5DFF8EC91D9F80430794C89
:10431000002B00F0E280012BC8D1774D7748402375
:104320004FF0080A2B836B83A5F818A0A5F81AA0F4
:1043300002F050FE626D531C6365B7E76B4E776801
:104340009F42BAD16E4802F045FEB6E79AF8007077
:10435000DFF8A091002FD8D14FF0FF31482209F1AA
:10436000080040F6FF740025C9F8047001974FF06B
:104370007F4603F0D9FD0F27019BC9F854304FF059
:10438000010E09F1C8004FF0FF31482289F858E0CA
:10439000C9E9186789F85930C9F88030C9F88430FC
:1043A000C9F88830C9F88C30C9E91A4589F85930FC
:1043B000C9E91C45C9E91E4503F0B6FDDFF844B163
:1043C00009F5D07709F58876BE4204D03046002141
:1043D000BA1B03F0A9FD07F1900506F19004AC4269
:1043E00004D0BA1B2046002103F09EFD05F1900287
:1043F00004F19000904203D000212A1B03F094FDA9
:1044000005F5907104F59070884203D000212A1BB5
:1044100003F08AFD05F5D87604F5D870B04203D0D4
:1044200000212A1B03F080FD05F5107704F51070BC
:10443000B84203D000212A1B03F076FD04F5347640
:104440005E4505F53477BFD12E4E06F1900706F58F
:10445000874BBE4204D030460021BA1B03F064FDF6
:1044600006F1900407F19005AC4204D0BA1B204637
:10447000002103F059FD04F1900005F1900C604516
:1044800003D000212A1B03F04FFD04F5907005F5C1
:104490009073984203D000212A1B03F045FD04F5D8
:1044A000D87005F5D872904203D000212A1B03F082
:1044B0003BFD04F5107005F51071884203D0002112
:1044C0002A1B03F031FD04F534765E4505F534779B
:1044D000BFD101208AF8000017E7FEF787F9E5E66B
:1044E000046002400C600240A060024064060020AC
:1044F00040800008B84B002000000240FC7F00080C
:104500001C80000848900020B04B00202DE9F04F9F
:10451000954A964B11684FEA91184FF4746018F061
:10452000200F83B0186004D0DC6FE40603F17C0335
:1045300022D418F0100F03D08D4B1968090740D40E
:1045400018F0080F03D08A4B186842070CD418F0F3
:10455000040F1CBF864B1B6818F0010F1CBF844B57
:104560005B6903B0BDE8F08F824C65689D42EED177
:10457000814802F02FFDEAE77E4D6E689E42D8D159
:10458000DFF80CA2DAF80030D80722D5DFF8EC917A
:10459000D9F80430794C002B00F0E280012BC8D10F
:1045A000774D784840234FF0080A2B836B83A5F89A
:1045B00018A0A5F81AA002F00DFD626D531C6365EA
:1045C000B7E76C4E77689F42BAD16F4802F002FDA0
:1045D000B6E79AF80070DFF8A491002FD8D14FF019
:1045E000FF31482209F1080040F6FF740025C9F8A0
:1045F000047001974FF07F4603F096FC0F27019B54
:10460000C9F854304FF0010E09F1C8004FF0FF31E6
:10461000482289F858E0C9E9186789F85930C9F87B
:104620008030C9F88430C9F88830C9F88C30C9E9BD
:104630001A4589F85930C9E91C45C9E91E4503F0F6
:1046400073FCDFF848B109F5D07709F58876BE42EA
:1046500004D030460021BA1B03F066FC07F1900538
:1046600006F19004AC4204D0BA1B2046002103F0AE
:104670005BFC05F1900204F19000904203D0002110
:104680002A1B03F051FC05F5907104F590708842E7
:1046900003D000212A1B03F047FC05F5D87604F56A
:1046A000D870B04203D000212A1B03F03DFC05F571
:1046B000107704F51070B84203D000212A1B03F0D4
:1046C00033FC04F534765E4505F53477BFD12F4EC3
:1046D00006F1900706F5874BBE4204D03046002114
:1046E000BA1B03F021FC06F1900407F19005AC42DF
:1046F00004D0BA1B2046002103F016FC04F1900000
:1047000005F1900C604503D000212A1B03F00CFC3E
:1047100004F5907005F59073984203D000212A1B90
:1047200003F002FC04F5D87005F5D872904203D06E
:1047300000212A1B03F0F8FB04F5107005F5107139
:10474000884203D000212A1B03F0EEFB04F53476E7
:104750005E4505F53477BFD101208AF8000017E7E0
:10476000FEF744F8E5E600BF046402400C64024032
:10477000886402406406002040800008B84B002096
:1047800000000240FC7F00081C80000848900020C8
:10479000B04B00202DE9F04F944A954BD2F80080A1
:1047A0003D2018F0200F83B0186004D0596ECC065D
:1047B00003F1640322D418F0100F03D08D4B196855
:1047C000090740D418F0080F03D08A4B1868420735
:1047D0000CD418F0040F1CBF864B1B6818F0010F97
:1047E0001CBF844B5B6903B0BDE8F08F824C6568E9
:1047F0009D42EED1814802F0EDFBEAE77E4C656810
:104800009D42D8D1DFF80CA2DAF80030D80722D5C3
:10481000DFF8EC91D9F80430794C002B00F0E280FD
:10482000012BC8D1774D784840234FF0080A2B83DD
:104830006B83A5F818A0A5F81AA002F0CBFB626D57
:10484000531C6365B7E76C4E77689F42BAD16F48D7
:1048500002F0C0FBB6E79AF80060DFF8A491002EE2
:10486000D8D14FF0FF31482209F1080040F6FF741B
:104870000025C9F8046001960F2703F055FB4FF09F
:104880007F46019BC9F854304FF0010E09F1C80072
:104890004FF0FF31482289F858E0C9E9186789F8D4
:1048A0005930C9F88030C9F88430C9F88830C9F85F
:1048B0008C30C9E91A4589F85930C9E91C45C9E95C
:1048C0001E4503F031FBDFF848B109F5D07709F553
:1048D0008876BE4204D030460021BA1B03F024FB88
:1048E00007F1900506F19004AC4204D0BA1B2046B3
:1048F000002103F019FB05F1900704F19000B84284
:1049000003D000212A1B03F00FFB05F5907204F57C
:104910009070904203D000212A1B03F005FB05F59F
:10492000D87104F5D870884203D000212A1B03F007
:10493000FBFA05F5107604F51070B04203D00021A3
:104940002A1B03F0F1FA04F534765E4505F5347759
:10495000BFD12F4E06F1900706F5874BBE4204D01B
:1049600030460021BA1B03F0DFFA06F1900407F18C
:104970009005AC4204D0BA1B2046002103F0D4FAC3
:1049800004F1900005F1900C604503D000212A1B32
:1049900003F0CAFA04F5907005F59073984203D0BD
:1049A00000212A1B03F0C0FA04F5D87005F5D8726F
:1049B000904203D000212A1B03F0B6FA04F51070D0
:1049C00005F51071884203D000212A1B03F0ACFAD0
:1049D00004F534765E4505F53477BFD101208AF8B9
:1049E000000017E7FDF702FFE5E600BF04640240A0
:1049F0000C6402407064024064060020408000089D
:104A0000B84B002000000240FC7F00081C8000081A
:104A100048900020B04B00202DE9F04F954A964B6E
:104A200011684FEA91584FF0746018F0200F83B06E
:104A3000186004D01C6DE40603F1500322D418F072
:104A4000100F03D08D4B1968090740D418F0080FD8
:104A500003D08A4B186842070CD418F0040F1CBF0F
:104A6000864B1B6818F0010F1CBF844B5B6903B0B9
:104A7000BDE8F08F824C65689D42EED1814802F01E
:104A8000A9FAEAE77E4D6E689E42D8D1DFF80CA203
:104A9000DAF80030D80722D5DFF8EC91D9F80430E5
:104AA000794C002B00F0E280012BC8D1774D78487B
:104AB00040234FF0080A2B836B83A5F818A0A5F8B4
:104AC0001AA002F087FA626D531C6365B7E76C4E5B
:104AD00077689F42BAD16F4802F07CFAB6E79AF83D
:104AE0000070DFF8A491002FD8D14FF0FF31482299
:104AF00009F1080040F6FF740025C9F80470019719
:104B00004FF07F4603F010FA0F27019BC9F854308D
:104B10004FF0010E09F1C8004FF0FF31482289F82B
:104B200058E0C9E9186789F85930C9F88030C9F8E0
:104B30008430C9F88830C9F88C30C9E91A4589F839
:104B40005930C9E91C45C9E91E4503F0EDF9DFF804
:104B500048B109F5887609F5D077BE4204D03046D1
:104B60000021BA1B03F0E0F906F1900407F190056B
:104B7000AC4204D0BA1B2046002103F0D5F904F161
:104B8000900005F19002904203D000212A1B03F00F
:104B9000CBF904F5907005F59071884203D000219F
:104BA0002A1B03F0C1F904F5D87005F5D876B04298
:104BB00003D000212A1B03F0B7F904F5107005F5A6
:104BC0001077B84203D000212A1B03F0ADF904F599
:104BD00034765E4505F53477BFD12F4E06F1900748
:104BE00006F5874BBE4204D030460021BA1B03F0C5
:104BF0009BF906F1900407F19005AC4204D0BA1B72
:104C00002046002103F090F904F1900005F1900C8A
:104C1000604503D000212A1B03F086F904F590704B
:104C200005F59073984203D000212A1B03F07CF90C
:104C300004F5D87005F5D872904203D000212A1BE4
:104C400003F072F904F5107005F51071884203D075
:104C500000212A1B03F068F904F534765E4505F55A
:104C60003477BFD101208AF8000017E7FDF7BEFDB9
:104C7000E5E600BF00640240086402405864024058
:104C80006406002040800008B84B0020000002406D
:104C9000FC7F00081C80000848900020B04B0020DA
:104CA0002DE9F04F954A964B11684FEA11484FF4A1
:104CB000741018F0200F83B0186004D09C6BE406C9
:104CC00003F1380322D418F0100F03D08D4B19686C
:104CD000090740D418F0080F03D08A4B1868420720
:104CE0000CD418F0040F1CBF864B1B6818F0010F82
:104CF0001CBF844B5B6903B0BDE8F08F824C6568D4
:104D00009D42EED1814802F065F9EAE77E4D6E687A
:104D10009E42D8D1DFF80CA2DAF80030D80722D5AD
:104D2000DFF8EC91D9F80430794C002B00F0E280E8
:104D3000012BC8D1774D784840234FF0080A2B83C8
:104D40006B83A5F818A0A5F81AA002F043F9626DCC
:104D5000531C6365B7E76C4E77689F42BAD16F48C2
:104D600002F038F9B6E79AF80070DFF8A491002F46
:104D7000D8D14FF0FF31482209F1080040F6FF7406
:104D80000025C9F8047001974FF07F4603F0CCF876
:104D90000F27019BC9F854304FF0010E09F1C800EC
:104DA0004FF0FF31482289F858E0C9E9186789F8BF
:104DB0005930C9F88030C9F88430C9F88830C9F84A
:104DC0008C30C9E91A4589F85930C9E91C45C9E947
:104DD0001E4503F0A9F8DFF848B109F5887609F512
:104DE000D077BE4204D030460021BA1B03F09CF8B5
:104DF00006F1900407F19005AC4204D0BA1B20469E
:104E0000002103F091F804F1900005F19002904226
:104E100003D000212A1B03F087F804F5907005F5F4
:104E20009071884203D000212A1B03F07DF804F51D
:104E3000D87005F5D876B04203D000212A1B03F0C4
:104E400073F804F5107005F51077B84203D000210F
:104E50002A1B03F069F804F534765E4505F53477CE
:104E6000BFD12F4E06F1900706F5874BBE4204D006
:104E700030460021BA1B03F057F806F1900407F101
:104E80009005AC4204D0BA1B2046002103F04CF838
:104E900004F1900005F1900C604503D000212A1B1D
:104EA00003F042F804F5907005F59073984203D032
:104EB00000212A1B03F038F804F5D87005F5D872E4
:104EC000904203D000212A1B03F02EF804F5107045
:104ED00005F51071884203D000212A1B03F024F845
:104EE00004F534765E4505F53477BFD101208AF8A4
:104EF000000017E7FDF77AFCE5E600BF006402401A
:104F000008640240406402406406002040800008BB
:104F1000B84B002000000240FC7F00081C80000805
:104F200048900020B04B00203A4A3B4BD2F8881002
:104F30003A4841F47001C2F888101968002241F023
:104F4000010119609A60196821F0847C2CF4803189
:104F500019605860186882B020F480211960DA6006
:104F6000009201921A6842F4803018609C4603E077
:104F70000099B1F5C06F0AD0DCF8003003F40031BD
:104F80000191009A501C0090019B002BF0D0224A06
:104F9000106810F4003318BF01230193019901290F
:104FA00005D01C4B4FF000629A6002B070471A4B5C
:104FB0001B4A186C1B4940F080501864106840F47C
:104FC000804010609A689A60986840F400429A6045
:104FD000986840F4A0529A605960196841F0807056
:104FE00018609C46DCF800300B4A9B01FAD50E484D
:104FF00040F205710160936823F0030090609168AE
:1050000041F002039360906800F00C010829FAD186
:10501000C7E700BF00ED00E0003802401030002478
:1050200000700040193C4005003C02402DE9F04F63
:10503000A24B19685A69D20483B001D5CF0402D4B7
:1050400003B0BDE8F08FDFF894A24FF480505861B0
:10505000DAF80040E307D14664D5DFF8648298F8B7
:105060005920974FFAB197F85840E4B9DAF8005050
:1050700015F0010300F0F98107F5887B0123D8F8CA
:105080005010904E8E4F594514BF5A463246C8F8BC
:105090005020002B00F02481D8F80040DFF8209247
:1050A000002C00F0A982D8F85420D8F89030A2F152
:1050B0007704A342A2F1780705DDC7F57F4A0AF11C
:1050C000FF05AB4205DB804ED81BC8F890000346B5
:1050D000F0627D497D484B6201F07CFF0022D8F8E8
:1050E0005000C8F854209021FDF7E0F8002800F0A7
:1050F000E080774C774FE66860687568002DFCD1DA
:105100004368002BF9D139898D07F6D03A89140606
:10511000F3D46D4C2788BEB246F00100208003B066
:10512000BDE8F08F9AF80050DFF89481002D96D1F9
:105130004FF0FF31482208F1080040F6FF74C8F82C
:10514000045001954FF07F4602F0EEFE0025019BD2
:10515000C8F854304FF0010E0F2708F1C8004FF087
:10516000FF31482288F858E0C8E9186788F85930B4
:10517000C8F88030C8F88430C8F88830C8F88C3057
:10518000C8E91A4588F85930C8E91C45C8E91E45E0
:1051900002F0CAFEDFF82CB108F5D07708F5887662
:1051A000BE4204D030460021BA1B02F0BDFE07F11A
:1051B000900506F19004AC4204D0BA1B20460021B1
:1051C00002F0B2FE05F1900604F19000B04203D067
:1051D00000212A1B02F0A8FE05F5907704F59070D7
:1051E000B84203D000212A1B02F09EFE05F5D871BB
:1051F00004F5D870884203D000212A1B02F094FEE7
:1052000005F5107204F51070904203D000212A1B9E
:1052100002F08AFE04F534765E4505F53477BFD199
:10522000284E06F1900706F5874BBE4204D0304663
:105230000021BA1B02F078FE06F1900407F19005F8
:10524000AC4204D0BA1B2046002102F06DFE04F1EE
:10525000900005F1900C604503D000212A1B02F05C
:1052600063FE04F5907005F5907E704503D0002133
:105270002A1B02F059FE04F5D87005F5D873984240
:1052800003D000212A1B02F04FFE04F5107005F533
:105290001071884203D000212A1B02F045FE04F55C
:1052A00034765E4505F53477BFD1012089F80000DA
:1052B000D5E6094801F08EFE1BE700BF003C014027
:1052C000B84B002048900020000C00405C80000893
:1052D000640600200030014080800008B04B0020B0
:1052E0009AF8000000287FF4D7AE7B6007F1080031
:1052F0004FF0FF314822012401930F2502F014FEE4
:10530000019B87F858404FF07F44C7E9184540F6A5
:10531000FF74002587F8593007F1C8007B65C7F88E
:105320008030C7F88430C7F88830C7F88C3087F8E9
:105330005930C7E91A45C7E91C45C7E91E454FF072
:10534000FF31482202F0F0FD37460BF190095E462E
:105350004E4505D030460021C6EB090202F0E4FDBF
:1053600006F1900409F19005AC4205D0C6EB0902A4
:105370002046002102F0D8FD04F1900005F19001D3
:10538000884203D000212A1B02F0CEFD04F5907064
:1053900005F59076B04203D000212A1B02F0C4FD2F
:1053A00004F5D87005F5D872904203D000212A1B6D
:1053B00002F0BAFD04F5107005F5107C604503D0CD
:1053C00000212A1B02F0B0FD04F53476BE4205F53B
:1053D0003479BDD18D4E06F1900906F587474E45CB
:1053E00005D030460021C6EB090202F09DFD06F112
:1053F000900409F19005AC4205D0C6EB09022046A5
:10540000002102F091FD04F1900005F1900E70452D
:1054100003D000212A1B02F087FD04F5907005F5EA
:105420009073984203D000212A1B02F07DFD04F501
:10543000D87005F5D871884203D000212A1B02F0EC
:1054400073FD04F5107005F51072904203D0002131
:105450002A1B02F069FD04F53476BE4205F5347965
:10546000BDD16B4F0120387016E669490E7816B130
:1054700007F5887B03E67E6007F108004FF0FF31F7
:105480004822012402F050FD0F2587F858404FF0C4
:105490007F44C7E9184540F6FF74002587F8596036
:1054A0007E65C7F88060C7F88460C7F88860C7F871
:1054B0008C6087F8596007F1C800C7E91A45C7E949
:1054C0001C45C7E91E454FF0FF31482202F02CFD74
:1054D00007F5887B07F5D0760BF587495F46B7421D
:1054E00004D038460021F21B02F01EFD07F19004A3
:1054F00006F19005AC4204D0F21B2046002102F0D8
:1055000013FD04F1900005F19002904203D00021B8
:105510002A1B02F009FD04F5907005F59077B8425A
:1055200003D000212A1B02F0FFFC04F5D87005F51A
:10553000D87C604503D000212A1B02F0F5FC04F55D
:10554000107005F5107E704503D000212A1B02F073
:10555000EBFC04F534774F4505F53476BFD12B4F7E
:1055600007F1900607F58749B74204D03846002175
:10557000F21B02F0D9FC07F1900406F19005AC4251
:1055800004D0F21B2046002102F0CEFC04F1900072
:1055900005F19003984203D000212A1B02F0C4FCBD
:1055A00004F5907005F59071884203D000212A1B04
:1055B00002F0BAFC04F5D87005F5D872904203D019
:1055C00000212A1B02F0B0FC04F5107005F51077DD
:1055D000B84203D000212A1B02F0A6FC04F5347760
:1055E0004F4505F53476BFD1094C01202070DAF81B
:1055F000005005F0010342E5DAF80050DFF810A092
:10560000EE0707D5002188F859104CE54890002096
:10561000B04B00209AF80030002BF3D1C9F80430C9
:105620004FF0FF31482209F1080040F6FF740025D1
:1056300001934FF07F4602F077FC0F27019BC9F8DA
:1056400054304FF0010C89F858C0C9E9186789F83F
:10565000593009F1C8004FF0FF314822C9F88030B5
:10566000C9F88430C9F88830C9F88C30C9E91A45BE
:1056700089F85930C9E91C45C9E91E4502F054FCB6
:105680000BF190060BF58747B34505D0584600212E
:10569000CBEB060202F048FC0BF1900406F19009F6
:1056A0004C4505D0CBEB06022046002102F03CFC25
:1056B00004F1900009F19001884204D00021C4EB6C
:1056C000090202F031FC04F5907009F590729042E5
:1056D00004D00021C4EB090202F026FC04F5D870C6
:1056E00009F5D876B04204D00021C4EB090202F0DB
:1056F0001BFC04F5107009F51075A84204D00021B8
:10570000C4EB090202F010FC04F5347BBB4509F53B
:105710003476B9D1264D05F1900605F5874BB54293
:1057200004D028460021721B02F0FEFB05F1900414
:1057300006F190094C4504D0721B2046002102F06E
:10574000F3FB04F1900009F1900E704504D00021A4
:10575000C4EB090202F0E8FB04F5907009F5907CB7
:10576000604504D00021C4EB090202F0DDFB04F522
:10577000D87009F5D873984204D00021C4EB09020F
:1057800002F0D2FB04F5107009F51077B84204D08E
:105790000021C4EB090202F0C7FB04F534755D4536
:1057A00009F53476BBD101208AF800002AE700BF52
:1057B000489000202DE9F84F844B1A8A9989D70721
:1057C00088B201D5C60701D4BDE8F88F4FF6FE7444
:1057D000DFF810921C82D9F80050EB070DD5DFF8E6
:1057E000F081D8F854307A4D772B40F2D080812B5D
:1057F000EAD85C1C6C65BDE8F88F99F800B0DFF85A
:10580000D081BBF1000FECD1C8F804B04FF0FF31EC
:10581000482208F1080002F087FB40F6FF740025DB
:105820004FF0010C4FF07F460F2788F858C0C8F89A
:1058300054B088F859B0C8F880B0C8F884B0C8F837
:1058400088B0C8F88CB0C8E9186788F859B008F172
:10585000C8004FF0FF314822C8E91A45C8E91C4585
:10586000C8E91E4502F060FBDFF87CA108F5D076A0
:1058700008F5887BB34505D058460021CBEB0602DE
:1058800002F052FB06F190050BF19004AC4205D0FA
:10589000CBEB06022046002102F046FB05F1900604
:1058A00004F19000B04203D000212A1B02F03CFB1F
:1058B00005F5907704F59070B84203D000212A1BBB
:1058C00002F032FB05F5D87E04F5D870704503D0A0
:1058D00000212A1B02F028FB05F5107304F5107057
:1058E000984203D000212A1B02F01EFB04F5347BF2
:1058F000D34505F53476BDD1364EDFF8F0A0A6F1DC
:10590000900BB34505D058460021CBEB060202F0C0
:105910000BFB06F190050BF19004AC4205D0CBEBEC
:1059200006022046002102F0FFFA05F1900204F180
:105930009000904203D000212A1B02F0F5FA05F5F1
:10594000907104F59070884203D000212A1B02F068
:10595000EBFA05F5D87704F5D870B84203D00021EA
:105960002A1B02F0E1FA05F5107C04F51070604581
:1059700003D000212A1B02F0D7FA04F5347BD3456B
:1059800005F53476BDD1012089F8000029E72A6D9C
:1059900003EBC30102EB01109021FCF787FC88B1F7
:1059A0000D4F0E4EF8687A684368002BFCD155689D
:1059B000002DF9D13489A507F6D031890C06F3D42E
:1059C000BDE8F88F064801F005FBE9E7000C004050
:1059D000B84B0020D8900020640600200030014021
:1059E00080800008B04B002048900020C8D30020E1
:1059F00008B54FF08042074B4FF6FE7111821868D0
:105A0000421C1A60596811B15868421E5A60AFF3BF
:105A1000008008BD000800202DE9F04F437AC179CD
:105A2000027A45790679077890F806C0632B85B02D
:105A300000F23581541E0B2C00F23181002900F058
:105A40002E8113F0030F03F5FA6A07D164249AFB41
:105A5000F4F904FB19A4002C40F025814FF4C8741C
:105A60009AFBF4F804FB18A4D4F1010B38BF4FF0F3
:105A7000000B8E4C4FF00C0A0AFB0B49914419F8AD
:105A8000018C8845C0F00B81172D00F208813B2E58
:105A900000F205813B2F00F202810CF1FF37062F47
:105AA00000F2FD80824C834F25726672CA254FF04A
:105AB000530B90F800E07D620026C7F824B01F2544
:105AC00040F2FF3084F80AE0A1736273E37384F854
:105AD0000CC026616561A061FDF710FA98B1BE683F
