:020000040800F2
:10000000C808002085020008DD0200084309000836
:10001000DD020008DD020008DD020008000000002B
:10002000000000000000000000000000DD020008E9
:10003000DD02000800000000DD020008F5060008EF
:10004000DD020008DD020008DD020008DD02000814
:10005000DD020008DD020008DD020008DD02000804
:10006000DD020008DD020008DD020008DD020008F4
:10007000DD020008DD020008DD020008DD020008E4
:10008000DD020008DD020008DD020008DD020008D4
:10009000DD020008DD020008DD020008DD020008C4
:1000A000DD020008DD020008DD020008DD020008B4
:1000B000DD020008DD020008DD020008DD020008A4
:1000C000DD020008DD020008DD020008DD02000894
:1000D000DD020008DD020008DD020008DD02000884
:1000E000DD020008DD020008DD020008DD02000874
:1000F000DD020008DD020008DD020008DD02000864
:10010000DD020008DD020008DD020008DD02000853
:10011000DD020008DD020008DD020008DD02000843
:10012000DD020008DD020008DD020008DD02000833
:10013000DD020008DD020008DD020008DD02000823
:10014000DD020008DD020008DD020008DD02000813
:10015000DD020008DD020008DD0200081D110008B4
:10016000DD020008DD020008DD020008DD020008F3
:10017000DD020008DD020008DD020008DD020008E3
:10018000DD020008DD02000880B483B000AF7860B3
:100190000B467B807B88C3F308039AB27B689A8006
:1001A0000C37BD465DF8047B704700BF80B483B058
:1001B00000AF78607B689B889BB2C3F308039BB257
:1001C00018460C37BD465DF8047B704780B487B095
:1001D00000AF78600B467B800023FB6000237B61CF
:1001E0000023BB600023FB747B88DBB25B09DBB2BE
:1001F000BB607B8803F01F037B617B69012202FAED
:1002000003F37B61BB68012B07D17B689B899BB2A1
:100210001A467B6913407B6111E0BB68022B07D152
:100220007B681B8A9BB21A467B6913407B6106E0A0
:100230007B689B8A9BB21A467B6913407B617B88F3
:100240001B0A9BB2FB60FB68012202FA03F3FB600E
:100250007B681B889BB21A46FB681340FB607B6976
:10026000002B05D0FB68002B02D00123FB7401E0BA
:100270000023FB74FB7C18461C37BD465DF8047BED
:10028000704700BF80B582B000AF0F4B7B600F4B53
:100290003B6007E03B681A1D3A607A68111D79607F
:1002A00012681A603B680A4A9342F3D309480A4924
:1002B0004FF000028842B8BF40F8042BFADB00F090
:1002C000B7F80837BD4680BD502800080000002060
:1002D0001800002018000020C800002080B400AFE3
:1002E000FEE700BFB0B592B002AF0346FB71494BC9
:1002F00007F11C041D460FCD0FC42B682360464B2D
:1003000007F108041D460FCD0FC42B68236002239C
:10031000FB63FB799B0007F14002134453F8243C34
:100320005B00BB6308237B63FB799B0007F1400202
:10033000134453F8383C3B6300F084F8012000F08C
:10034000A9F800F0B9F80346002B0CBF01230023E5
:10035000DBB2002B5AD13B6B00934FF48000796BDA
:10036000BA6BFB6B00F0D0F8012000F0EBF800BF97
:100370002A4B1B6803F00073002B0CBF01230023E2
:10038000DBB2002BF4D1022000F0ECF8002000F0EA
:1003900005F9FB79042B37D801A252F823F000BFEE
:1003A000B5030008C3030008D3030008E5030008F1
:1003B000F7030008002000F00DF9002000F026F9F6
:1003C00022E04FF4805000F005F9002000F01EF903
:1003D0001AE04FF4A05000F0FDF84FF4805000F008
:1003E00015F911E04FF4A05000F0F4F84FF48050EC
:1003F00000F00CF908E04FF4A05000F0EBF84FF4D7
:10040000805000F003F900BF00F0D2FA4037BD463B
:10041000B0BD00BF882600089C26000800380240B6
:1004200080B500AF00F098FA0120FFF75BFF80BDB8
:1004300080B500AFFFF7F4FF00F0C6FD00231846BB
:1004400080BD00BF80B400AF104A104B1B6843F062
:10045000010313600D4B00229A600C4A0B4B1B6882
:1004600023F0847323F480331360084B084A5A60E6
:10047000064A064B1B6823F480231360034B0022BB
:10048000DA60BD465DF8047B704700BF003802406B
:100490001030002480B483B000AF0346FB71054BDD
:1004A00000221A70034AFB7913700C37BD465DF8C1
:1004B000047B70470238024080B582B000AF002351
:1004C0003B600023FB710023BB71312000F0D8F8A2
:1004D0000346BB713B6801333B603B68B3F5A06FDB
:1004E00002D0BB79002BF0D0312000F0C9F80346D0
:1004F000002B02D00123FB7101E00023FB71FB798B
:1005000018460837BD4680BD80B485B000AFF8609E
:10051000B9607A603B600A497B689A01BB681A43FC
:100520003B685B08013B1B041A43FB681A43BB6929
:100530001B0613434B601437BD465DF8047B7047C0
:100540000038024080B483B000AF0346FB71044A18
:10055000FB7913600C37BD465DF8047B704700BF24
:100560006000474280B485B000AF78600023FB6034
:10057000094B9B68FB60FB6823F00303FB60FA6890
:100580007B681343FB60044AFB6893601437BD46E5
:100590005DF8047B704700BF0038024080B485B02E
:1005A00000AF78600023FB60094B9B68FB60FB6831
:1005B00023F0F003FB60FA687B681343FB60044A96
:1005C000FB6893601437BD465DF8047B704700BF3D
:1005D0000038024080B485B000AF78600023FB6033
:1005E000094B9B68FB60FB6823F4E053FB60FA68EF
:1005F0007B681343FB60044AFB6893601437BD4675
:100600005DF8047B704700BF0038024080B485B0BD
:1006100000AF78600023FB60094B9B68FB60FB68C0
:1006200023F46043FB607B68DB00FA681343FB60E4
:10063000034AFB6893601437BD465DF8047B70473E
:100640000038024080B483B000AF78600B46FB7086
:10065000FB78002B06D00949084B1A6B7B681343C3
:100660000B6306E00549054B1A6B7B68DB431340BF
:100670000B630C37BD465DF8047B704700380240C1
:1006800080B487B000AF0346FB710023FB600023FA
:100690007B610023FB74FB795B09DBB2FB60FB68C9
:1006A000012B03D1124B1B687B6109E0FB68022B15
:1006B00003D10F4B1B6F7B6102E00D4B5B6F7B61C6
:1006C000FB7903F01F03FB60FB687A6922FA03F3EE
:1006D00003F00103002B02D00123FB7401E000238F
:1006E000FB74FB7C18461C37BD465DF8047B7047E5
:1006F0000038024080B582B000AF374B1B68013331
:10070000354A1360354B1B68002B04D0334B1B68F4
:10071000013B324A1360AFF300800023FB7152E0CB
:10072000FB792F4A9B0013445B68002B48D0FB7970
:100730002B4A9B0013445B681B7B002B40D0FB794A
:10074000274A9B0013445B689B68002B38D0FB79D9
:10075000234A9B0013445B689A68013A9A60FB79CC
:100760001F4A9B0013445B689B68002B28D1FB79D0
:100770001B4A9B0013445B681A69FB7918499B006C
:100780000B445B685B6918469047FB79144A9B00F1
:1007900013445A68FB7912499B000B445B681B6841
:1007A0009360FB790E4A9B0013445B685B68002BE7
:1007B00006D1FB790A4A9B0013445B6800221A7336
:1007C000FB790133FB71064B1B78FA799A42A7D368
:1007D0000837BD4680BD00BF1C000020200000205F
:1007E0002800002080B487B000AF78603960002313
:1007F0007B6100233B610023FB6000237B6176E08B
:100800007B69012202FA03F33B613B681A683B698A
:100810001340FB60FA683B699A4265D17B681A68AD
:100820007B695B00194603238B40DB431A407B68DE
:100830001A607B681A683B681B7919467B695B0004
:1008400001FA03F31A437B681A603B681B79012B9A
:1008500003D03B681B79022B2ED17B689A687B6999
:100860005B00194603238B40DB431A407B689A6088
:100870007B689A683B685B7919467B695B0001FA83
:1008800003F31A437B689A607B685A687B699BB262
:10089000194601238B40DB431A407B685A607B6812
:1008A0005B683A68927911467A6992B201FA02F26B
:1008B00092B21A437B685A607B68DA687B699BB2A4
:1008C0005B00032101FA03F3DB431A407B68DA6023
:1008D0007B68DA683B68DB7919467B695B0001FA63
:1008E00003F31A437B68DA607B6901337B617B69C0
:1008F0000F2B85D91C37BD465DF8047B704700BFC0
:1009000080B483B000AF78600B467B8013467B7069
:100910007B78002B03D07B687A881A8302E07B689F
:100920007A885A830C37BD465DF8047B704700BF58
:10093000ABBE01E000207047002A00D0106001200B
:10094000704706980188034A914202D1043006900C
:100950007047FEE7ABBE000080B500AF114A114BF7
:100960001B6843F0010313600E4B00229A600D4A8E
:100970000C4B1B6823F0847323F480331360094B02
:10098000094A5A60074A074B1B6823F48023136007
:10099000044B0022DA6000F087F8044B4FF000624D
:1009A0009A6080BD003802401030002400ED00E065
:1009B00080B487B000AF00233B6100237B6102233A
:1009C000FB600023BB6002237B60324B9B6803F01B
:1009D0000C033B613B69042B07D0082B09D0002B8B
:1009E0003FD12D4B2D4A1A603FE02B4B2C4A1A6009
:1009F0003BE0284B5B6803F480039B0DBB60254BF9
:100A00005B6803F03F037B60BB68002B0DD0244A7A
:100A10007B68B2FBF3F21F4B596847F6C0730B407B
:100A20009B0903FB02F37B610CE01C4A7B68B2FB71
:100A3000F3F2184B596847F6C0730B409B0903FB50
:100A400002F37B61134B5B6803F440331B0C0133EF
:100A50005B00FB607A69FB68B2FBF3F30E4A13603C
:100A600003E00D4B0D4A1A6000BF0A4B9B6803F070
:100A7000F0031B090B4AD35CDBB23B61064B1A68DF
:100A80003B6922FA03F3044A13601C37BD465DF844
:100A9000047B704700380240000000200024F4006E
:100AA00000127A000400002080B483B000AF00235D
:100AB0007B6000233B60354A344B1B6843F4803332
:100AC0001360324B1B6803F400333B607B680133D7
:100AD0007B603B68002B03D17B68B3F5A06FF0D13E
:100AE0002A4B1B6803F40033002B02D001233B6028
:100AF00001E000233B603B68012B42D1234A234B9A
:100B00001B6C43F080531364214A214B1B6843F450
:100B1000804313601D4A1D4B9B6893601B4A1B4B0F
:100B20009B6843F400439360184A184B9B6843F456
:100B3000A0539360154B174A5A60144A134B1B6815
:100B400043F08073136000BF104B1B6803F0007309
:100B5000002BF9D0104B40F205621A600B4A0B4B88
:100B60009B6823F003039360084A084B9B6843F09B
:100B70000203936000BF054B9B6803F00C03082B36
:100B8000F9D10C37BD465DF8047B70470038024050
:100B90000070004008484006003C024080B400AFAE
:100BA000FEE700BF80B588B000AFF8607A603B60B8
:100BB0000B46FB727B68BB6101233B770023BB774D
:100BC0000223FB7703237B773B683B6100233B7564
:100BD0000023BB750223FB7503237B75FB7A082B6F
:100BE00042D801A252F823F00D0C0008170C00089F
:100BF000210C00082B0C0008350C00083F0C0008E5
:100C0000490C0008530C00085D0C0008012001216C
:100C1000FFF718FD28E002200121FFF713FD23E074
:100C200004200121FFF70EFD1EE008200121FFF73F
:100C300009FD19E010200121FFF704FD14E0202038
:100C40000121FFF7FFFC0FE040200121FFF7FAFC34
:100C50000AE080200121FFF7F5FC05E04FF48070E9
:100C60000121FFF7EFFC00BF7B68002B05D007F1E7
:100C70001803F8681946FFF7B5FD3B68002B05D04F
:100C800007F11003F8681946FFF7ACFD2037BD46A1
:100C900080BD00BF80B483B000AF78607B68184629
:100CA0000C37BD465DF8047B704700BF80B582B04D
:100CB00000AF7860144B1B68002B22D11348002131
:100CC000F8220423FFF76EFF104B00225A610F48F1
:100CD00010210122FFF714FE0C4808210122FFF722
:100CE0000FFE0B480321102201F080FC094800216F
:100CF000102201F07BFC786800F024F8024A7B683F
:100D000013600837BD4680BD40000020000002404F
:100D1000440000205400002080B483B000AF78600D
:100D20000B46FB7013463B80FB78C3F10F0304496D
:100D30003A8821F813200C37BD465DF8047B7047D4
:100D40005400002080B584B000AF78600023FB73AE
:100D50000523BB81244810210122FFF7D1FD002388
:100D6000FB7230E0FB7B214AD35C1946B7F90C30AB
:100D7000012202FA03F301EA0302B7F90C3042FA46
:100D800003F3BB72BB89013B9BB2BB81BB89DB0B0D
:100D9000DBB2002B04D00523BB81FB7B0133FB734B
:100DA000BB7A114880211A46FFF7AAFD0E48202180
:100DB0000122FFF7A5FD0C4820210022FFF7A0FD2E
:100DC000FB7A0133FB72FB7A5F2BCBD906484021BB
:100DD0000122FFF795FD044840210022FFF790FD16
:100DE0001037BD4680BD00BF000002404400002017
:100DF00080B584B000AF78600023FB730B23BB8108
:100E00002E4810210022FFF77BFD00237B8131E07B
:100E1000FB7B2B4A32F813301946B7F90C3001220C
:100E200002FA03F301EA0302B7F90C3042FA03F3C2
:100E30007B72BB89013B9BB2BB81BB89DB0BDBB205
:100E4000002B04D00B23BB81FB7B0133FB737B7A2C
:100E50001A4880211A46FFF753FD18482021012225
:100E6000FFF74EFD154820210022FFF749FD7B8941
:100E700001337B817B89BF2BCAD91048082101220D
:100E8000FFF73EFD0D4808210022FFF739FD0B4812
:100E900040210122FFF734FD084840210022FFF7DE
:100EA0002FFD064820210122FFF72AFD03482021BB
:100EB0000022FFF725FD1037BD4680BD000002402F
:100EC0005400002080B500AF024B1B681846FFF7A6
:100ED0008FFF80BD4000002080B582B000AF7860F9
:100EE00039607B683A68DA607B68DB68DBB21A4697
:100EF00052001344DAB27B681A740348FFF7D6FE37
:100F00000837BD4680BD00BF7400002080B483B0A8
:100F100000AF78607B684FF000021A607B684FF08A
:100F200000025A607B684FF000029A607B681846A6
:100F30000C37BD465DF8047B704700BF80B582B0BA
:100F400000AF78607B681846FFF7E0FF7B681846C3
:100F50000837BD4680BD00BF90B583B000AF786054
:100F60007B681C7C7B681B68184600F0C9FA034646
:100F70009BB2144821461A46FFF7CEFE7B681B7CC5
:100F80000133DCB27B685B68184600F0B9FA0346AF
:100F90009BB20C4821461A46FFF7BEFE7B681B7CBD
:100FA0000233DCB27B689B68184600F0A9FA03465E
:100FB0009BB2044821461A46FFF7AEFE0C37BD46E9
:100FC00090BD00BF74000020B0B592B000AF3B1DD3
:100FD00002241D4604E02846FFF7B0FF1435013C0B
:100FE000B4F1FF3FF7D100237B640DE0391D7A6C2B
:100FF00013469B0013449B000B441846796CFFF783
:101000006BFF7B6C01337B647B6C022BEEDD7B68BA
:1010100018462F4900F0F6F803467B607B680122F2
:10102000144618462B4900F057FA0346002B01D10D
:1010300000231C46E3B2002B02D04FF000037B607C
:10104000FB691846244900F0DDF80346FB61FB69A3
:101050000122144618461F4900F03EFA0346002BB1
:1010600001D100231C46E3B2002B02D04FF0000355
:10107000FB617B6B1846194900F0C4F803467B639B
:101080007B6B012214461846124900F025FA0346EC
:10109000002B01D100231C46E3B2002B02D04FF0FD
:1010A00000037B6300233B640CE0391D3A6C13465C
:1010B0009B0013449B000B441846FFF74DFF3B6C0D
:1010C00001333B643B6C022BEFDDFFF7FBFE9EE739
:1010D000CDCCCC3D00007F43CDCC4C3ECDCCCC3EE6
:1010E00080B582B000AF786039607B68012B07D192
:1010F0003B684FF6FF72934202D10348FFF7CAFDE7
:101100000837BD4680BD00BF7400002080B500AF29
:1011100001204FF6FF71FFF7E3FF80BD98B500AFE8
:10112000244840F22551FFF751F80346002B40D0E8
:10113000214B1B781C461F48FFF738F80346DAB2EC
:101140001E4B1A551C4B1B781A461C4B9B5C0D2BD7
:1011500002D10A2000F038F8174B1B781A46174BBB
:101160009B5C9BB2184600F02FF8134B1B78272B83
:1011700006D0114B1B781A46104B9B5C0A2B12D1E0
:101180000D4B1B780E480D491A4601F095F90B4896
:101190000021282201F02AFA074B00221A70094B7D
:1011A00001221A7005E0044B1B780133DAB2024BBE
:1011B0001A7098BD001401407500002078000020CE
:1011C000A00000207600002080B582B000AF03466A
:1011D000FB80FB8807481946FEF7D6FF00BF054B8A
:1011E0001B889BB203F04003002BF8D00837BD46A4
:1011F00080BD00BF0014014080F0004002E000BF4D
:1012000081F0004142001FBF5FEA410392EA030FF1
:101210007FEA226C7FEA236C6AD04FEA1262D2EB3B
:101220001363C1BFD218414048404140B8BF5B4240
:10123000192B88BF704710F0004F40F4000020F0D9
:101240007F4018BF404211F0004F41F4000121F0EF
:101250007F4118BF494292EA030F3FD0A2F1010239
:1012600041FA03FC10EB0C00C3F1200301FA03F177
:1012700000F0004302D5494260EB4000B0F5000F9A
:1012800013D3B0F1807F06D340084FEA310102F159
:101290000102FE2A51D2B1F1004F40EBC25008BF0B
:1012A00020F0010040EA03007047490040EB0000D5
:1012B00010F4000FA2F10102EDD1B0FA80FCACF104
:1012C000080CB2EB0C0200FA0CF0AABF00EBC25003
:1012D00052421843BCBFD0401843704792F0000FF1
:1012E00081F4000106BF80F400000132013BB5E744
:1012F0004FEA41037FEA226C18BF7FEA236C21D0BA
:1013000092EA030F04D092F0000F08BF084670471E
:1013100090EA010F1CBF0020704712F07F4F04D1EC
:10132000400028BF40F00040704712F100723CBFFF
:1013300000F50000704700F0004343F0FE4040F429
:10134000000070477FEA226216BF08467FEA2363E7
:101350000146420206BF5FEA412390EA010F40F4D2
:10136000800070474FF0000304E000BF10F000431E
:1013700048BF40425FEA000C08BF704743F0964305
:1013800001464FF000001CE050EA010208BF704720
:101390004FF000030AE000BF50EA010208BF7047A7
:1013A00011F0004302D5404261EB41015FEA010CBC
:1013B00002BF84460146002043F0B64308BFA3F1B4
:1013C0008053A3F50003BCFA8CF2083AA3EBC25396
:1013D00010DB01FA02FC634400FA02FCC2F12002B5
:1013E000BCF1004F20FA02F243EB020008BF20F0EC
:1013F0000100704702F1200201FA02FCC2F1200252
:1014000050EA4C0021FA02F243EB020008BF20EA46
:10141000DC7070474FF0FF3C06E000BF4FF0010C5E
:1014200002E000BF4FF0010C4DF804CD4FEA40023E
:101430004FEA41037FEA226C18BF7FEA236C11D088
:1014400001B052EA530C18BF90EA010F58BFB2EB3B
:10145000030088BFC81738BF6FEAE17018BF40F0BB
:10146000010070477FEA226C02D15FEA402C05D16F
:101470007FEA236CE4D15FEA412CE1D05DF8040BF4
:10148000704700BF844608466146FFE70FB5FFF787
:10149000C9FF002848BF10F1000F0FBD4DF808ED3F
:1014A000FFF7F4FF0CBF012000205DF808FB00BF30
:1014B0004DF808EDFFF7EAFF34BF012000205DF88A
:1014C00008FB00BF4DF808EDFFF7E0FF94BF0120D7
:1014D00000205DF808FB00BF4DF808EDFFF7D2FFD4
:1014E00094BF012000205DF808FB00BF4DF808ED17
:1014F000FFF7C8FF34BF012000205DF808FB00BFE4
:1015000042000ED2B2F1FE4F0BD34FF09E03B3EB6D
:10151000126209D44FEA002343F0004323FA02F099
:1015200070474FF00000704712F1610F01D1420285
:1015300002D14FF0FF3070474FF00000704700BFFE
:1015400003685A004CBF43F0004323F000431844A3
:10155000704700BF2DE9F04F83B099B34B1E17467B
:10156000054601939846002606EB080404EBD47464
:1015700064104FEAC40A05EB0A0B5846FFF7E0FF78
:10158000019B8146A3420AF1080028440ED0FFF7D0
:10159000D7FFB94500F1FF3004D9B4420CD004F1B3
:1015A000FF38E1E7B84203D2661CDDE7B945F4D85D
:1015B000584603B0BDE8F08F4FF0000B584603B01B
:1015C000BDE8F08F8B46584603B0BDE8F08F00BFF2
:1015D000012807D0022807D0044B00280CBF18466A
:1015E000002070470248704702487047DD1C000821
:1015F000E11C0008E51C000830B5244B83B004460C
:101600008D1E7BB3284601A9AFF3008020B301995A
:101610002A46FFF79FFF0546F0B1FFF791FF6B6881
:10162000A064012B12D0002B05F1040020DBFFF792
:1016300087FF0023E06423650368002B1CDBFFF7B2
:101640007FFF00232061184603B030BD00232361D3
:101650000523184603B030BD002323610923184633
:1016600003B030BD0A490B48091AC9100191CFE7F0
:101670000123E0642365DFE7C3F30360FFF7A8FFFE
:10168000002820610CBF09230023DCE700000000D4
:1016900050280008282700080368DA0710B5044618
:1016A00006D49B0700F1480009D500F085FC2368AB
:1016B000590709D51A070ED5DB0613D510BD00F062
:1016C00073FC23685907F5D404F1D00000F07CFCCA
:1016D00023681A07F0D404F5A87000F07DFC236895
:1016E000DB06EBD404F5E870BDE8104000F0B8BCB0
:1016F00003680BB1184470471846704709207047BB
:10170000704700BF70B504460D4608E02B6C63615E
:101710000120236921462A469847082808D12046F7
:10172000296CFFF769FF06460028EFD0FFF736FA6D
:101730000728FBD13046296CFFF7E2FF281D00F097
:1017400027FC00BF2DE9F0470C1D064617460FCCBD
:10175000ADF5727D03AD0FC50FCC0FC50FCC0FC516
:1017600094E80F0002AC4FF0000ED6F80C80D6F8CB
:10177000189085E80F003046216CC4F800E0FFF7B0
:101780003BFF002F05460CBF09270A277DB1A36B3D
:1017900047F010018DE810020120636432463346A1
:1017A000C04778BB28460DF5727DBDE8F087236CF5
:1017B000736121464FF4F0727AA800F07DFE336920
:1017C00031467AAA38469847889B82468DE81002AF
:1017D00039466364012032463346C04790B92046FB
:1017E0007AA94FF4F07200F067FEBAF1080F06D143
:1017F0003046216CFFF700FF09270546C6E7BAF11E
:10180000070F04D009200DF5727DBDE8F08728464A
:10181000216CFFF775FF03A800F0BAFB406C70471E
:10182000F0B5CB6B0B640E1D0F4604460FCEF9B01E
:1018300001AD0FC50FCE0FC50FCE0FC596E80F0037
:101840004FF0FF3685E80F00009606E02369214639
:101850006A4698470828054608D120461099FFF7A0
:10186000CBFE0028F2D0092079B0F0BD6846FFF722
:1018700013FF062DF7D120463946FFF743FF00BF7F
:1018800030B4DD6BC160826119461D64002230BC3A
:1018900058E700BF70B5C66843690B6404460D463F
:1018A00026B10122FFF74EFFFFF778F903692146C1
:1018B00002202A469847072807D0082803D1204647
:1018C0002946FFF71FFFFFF769F93046296CFFF73C
:1018D00017FF281D00F05CFBC2681AB1CA6B0A64CE
:1018E00000222FE79CE700BF704700BF836813B159
:1018F000014601201847704700B5042907D8DFE8E2
:1019000001F00309060909000BB90F2A05D90220C5
:101910005DF804FB01205DF804FB00EB8202184631
:101920005368019A13605DF804FB00BF00B585B0F1
:101930000A4603AB002100930B46FFF7DDFF039837
:1019400005B05DF804FB00BF00B5042907D8DFE847
:1019500001F00309060909000BB90F2A05D9022075
:101960005DF804FB01205DF804FB019900EB8202A5
:101970000968516018465DF804FB00BF10B584B0DB
:1019800004AB0C4643F8042D0021009322460B467D
:10199000FFF7DAFF04B010BDF0B5D36B1364151D6B
:1019A00007460E460FCDADF50F7D17AC0FC40FCD1A
:1019B0000FC40FCD0FC495E80F004FF0FF3584E83A
:1019C0000F00169510E016A8FFF7D8FF314616A8AD
:1019D000B847694616AA78B9049B08209847052895
:1019E00004460AD0092807D026996846FFF704FE66
:1019F0006A460C210028E6D0092416A8FFF74CFE01
:101A000020460DF50F7DF0BD2DE9F04F0D46C96C58
:101A10008BB00C1D096807919046089400F00309EB
:101A20001E46002B64D10902032307918DF825601F
:101A30008DF824302B6DB9F1020F08BFAC6B13F099
:101A4000010343D100F00800C2B20392019327685A
:101A5000002F3DD0022E47D02788B4F802A00434CE
:101A6000AB6C2AF0010B40460F219B44FFF75EFF51
:101A7000834537D827F001039B4458452CBF0020ED
:101A800001200AF0010A07F0010747EA4A0ABAF101
:101A9000010F43D03AD3BAF1020F1FD1236823F0CC
:101AA00000420292B9F1000F7BD138B1039A002AAB
:101AB00000F08380029A002A00F0A680002B7ADBD7
:101AC000029B03F1010A04EB8A04C0E7002301939F
:101AD000022E40DDFFF712FE002842D009200BB095
:101AE000BDE8F08F0020CCE7D4F804A00834B7E7B5
:101AF000022B9FDC0B0CDFB2090402228DF825308B
:101B000004EB870407918DF8242093E7B9F1000FC7
:101B100002D0002840F0AD80043498E7B9F1000FFE
:101B200026D1B0B194E80C00D70F9A1CD6D005F19D
:101B300058020133069200F09280201DFFF7D8FD75
:101B40003A46014606AB2846AFF30080002840F035
:101B5000B58008347BE7404607A900F01BFB00284E
:101B6000BCD1019B002B59D108200BB0BDE8F08FF0
:101B700040460D212F6AFFF7D9FE8742E9D1AB6AB3
:101B80009C42E6D12046FFF7DBFC0F21024640468F
:101B9000FFF7F4FE40462A460021FFF7EFFE07203C
:101BA0009DE740460D212F6AFFF7C0FE874245D0D2
:101BB0002368002B84DA043482E7029B23B305F107
:101BC0005803059604F1040A039FDDF808B0CDF828
:101BD00010901E4602E0D9454F4615D05046069655
:101BE000FFF786FD0022014606AB2846AFF30080D2
:101BF00007F101090AF1040A0028ECD0029BDDF884
:101C00001090059E9F42D3D140460D21FFF78EFED6
:101C1000069B2862AC626B62062060E70F2140469B
:101C2000FFF784FE0E2102464046FFF7A7FE40461E
:101C30000F21294AFFF7A2FE072050E7AB6A9C421A
:101C4000B6D104220027A3180299A962EF622A6381
:101C50006B632368BB421FDB0123019330E74046DF
:101C60000D21FFF763FE2862069B6B62AC620620C3
:101C700035E72046FFF764FC04340646AC6328468B
:101C8000AFF3008000283FF429AF404632460F21D1
:101C9000FFF774FE072022E70846013004EB8000BE
:101CA000FFF74EFC0F2102464046FFF767FE404615
:101CB00039462A46FFF762FE072010E707460D2146
:101CC0004046FFF733FE022F2862CDD12B46069AFD
:101CD00043F82C2F6B62C9E700000000002393E655
:101CE000012391E602238FE6F0B50546C5B004292D
:101CF0000CD8DFE801F056030B300E00012B4FEA41
:101D0000124496B265D0052B00F08480022045B0C5
:101D1000F0BD002BFAD1102AF8D82B68DC0600F1B0
:101D2000EB8022AE3046019200F0A4F9A86B019A34
:101D30000023012404FA03F1114203D0016846F89C
:101D4000231004300133042BF4D1A863304600F093
:101D500087F90020DBE7032BD8D1140C97B23B198D
:101D6000102BD3D82B681E0700F1E68022AE304638
:101D70007F0000F053F906EBC4027B1EAC6B57B139
:101D8000043A214651F8040B42F8040F013B581C59
:101D9000F8D104EB87043046AC6300F01DF9002055
:101DA000B5E7002BB2D1AC6B97B2281D012606FA1D
:101DB00003F1394203F1010302D0216801600434C8
:101DC000102B00F10400F2D112F4005020D1AC63CA
:101DD0009DE73219102A99D80F2C97D82968C8077F
:101DE0004FF0000755D422A8019300F0E1F8019BC1
:101DF00019E008463746012B00F098800F2CA863A5
:101E000002D822A800F0D8F817B102A800F0DCF838
:101E100000207CE73719202F3FF678AF0F2C30D900
:101E20003746002E45D1A96B3246002EE1D000275F
:101E300044A84FEA420C00EBC4000CF1FF328C388E
:101E40008E465EF8046B40F8046F013A561CF8D1D8
:101E500001EB8C00002FCED0102C224644A938BFB5
:101E6000102201EBC202A2F5C47201467800043AC6
:101E700001EB800051F8046B42F8046F8142F9D104
:101E8000B9E7102F42D92A68D007A7F110071146E9
:101E900010D521F00102052B2A60019328465BD062
:101EA00021F0030140F8481B00F082F8019B002F4D
:101EB0004AD02A6851075BD4012B63D00F2C04D879
:101EC00022A8019300F07CF8019B002FABD002A860
:101ED000019300F07DF8019BA96BC4F11002002A68
:101EE000A6DC102C224644A838BF102200EBC20208
:101EF000A2F5C4727800BAE723F010032B6005F551
:101F0000E870019200F0B6F8019A0AE72968C8075C
:101F10001DD521F00102284642F0020240F8482B6C
:101F20000193002700F04CF8019BC9E70430A86337
:101F300022A800F039F86BE723F008032B6005F5C1
:101F4000A87000F06BF811E7012B3FF44CAF0F2C99
:101F500098BF0027B4D966E742F0020240F8482B48
:101F600000F02EF8019B002FAAD02A685107A5D5B2
:101F7000284622F0040240F8D02B019300F028F804
:101F8000019B99E722A8019300F012F8019BA3E7B7
:101F900000F1340191E838009C46A6464CF8045DF7
:101FA00090E8FF0FE54600BD90EC210B704700BFA5
:101FB00080EC210B704700BF90EC200B704700BFF6
:101FC00080EC200B704700BFD0EC200B704700BFA7
:101FD000C0EC200B704700BFF0EC0201F0EC0211E6
:101FE000F0EC0221F0EC0231F0EC0241F0EC025195
:101FF000F0EC0261F0EC0271F0EC0281F0EC029185
:10200000F0EC02A1F0EC02B1F0EC02C1F0EC02D174
:10201000F0EC02E1F0EC02F1704700BFE0EC0201ED
:10202000E0EC0211E0EC0221E0EC0231E0EC0241D4
:10203000E0EC0251E0EC0261E0EC0271E0EC0281C4
:10204000E0EC0291E0EC02A1E0EC02B1E0EC02C1B4
:10205000E0EC02D1E0EC02E1E0EC02F1704700BFFD
:10206000B0FC0181B0FC0191B0FC01A1B0FC01B158
:10207000704700BFA0FC0181A0FC0191A0FC01A160
:10208000A0FC01B1704700BFEC4600B52DE900503F
:102090002DE9FF1F4FF000032DE90C0001A9FFF708
:1020A000BFFBDDF840E012B0704700BFEC4600B562
:1020B0002DE900502DE9FF1F4FF000032DE90C0022
:1020C00001A9FFF7E7FBDDF840E012B0704700BF61
:1020D000EC4600B52DE900502DE9FF1F4FF000033D
:1020E0002DE90C0001A9FFF7F7FBDDF840E012B085
:1020F000704700BFEC4600B52DE900502DE9FF1FE9
:102100004FF000032DE90C0001ABFFF7B9FBDDF840
:1021100040E012B0704700BFEC4600B52DE900501A
:102120002DE9FF1F4FF000032DE90C0001AAFFF776
:1021300033FCDDF840E012B0704700BF037A1BB9F2
:10214000437A43B9B02070475A1E036802721A02DC
:102150000260180E70474268013B10B44372136866
:102160000321141D01721A02446002605DF8044BE1
:10217000180E704700B585B003AB002100930C2208
:102180000B46FFF7B9FB039805B05DF804FB00BFF1
:10219000F0E700BF2DE9F043064685B00D464FF04D
:1021A00000082846FFF7CAFFB028044600F0B580B3
:1021B00020F07F0111F0FF0120D000F0F003802B10
:1021C0007AD0902B36D0A02B49D0B02B5CD0C02B2E
:1021D00000F0898000F0F803D02B0BD100F007024B
:1021E000013242F40022304601210523FFF77CFD35
:1021F0000028D6D0092005B0BDE8F0830DF10C0908
:102200000B468700CDF8009030460D22FFF774FB97
:10221000FFB2039BCDF80090043760064FF0000139
:102220004CBFDF1BFF1830460B460D220397FFF70C
:102230008BFBB6E700F00D030D2BDBD003AF0021C5
:1022400000F00F020B4600973046FFF755FB0021C8
:1022500000970B4630460D22FFF776FBA1E7C343FC
:1022600003F007034FF47F621A41010702F47F6213
:102270004FF0000148BF42F480420B463046FFF762
:1022800033FD0028B6D18CE7B1284CD0B2285DD000
:10229000B32800F08A8000F0FC03B42BAAD000F031
:1022A00007020132012142F400220B463046FFF7BB
:1022B0001BFD00289ED174E72846FFF73FFF24024C
:1022C0002043B0F5004F95D004010021A2B20B4687
:1022D0003046FFF709FD00288CD114F4004F18BFD9
:1022E0004FF001085DE7C62872D0C7287AD000F009
:1022F000F803C02B00F08980C82800F0A580C92809
:102300007FF478AF2846FFF719FF00F00F02013283
:1023100000F0F00042EA003265E7B8F1000F00F08B
:102320008280002067E72846FFF708FF0246002862
:102330003FF460AF10F0F0017FF45CAF30460B4625
:10234000FFF7D2FC00287FF455AF2AE700210DF1FA
:102350000C090D220B46CDF800903046FFF7CCFA61
:102360002846FFF7EBFE02064FF002040CD5039B54
:1023700000F07F00A040034428460393FFF7DEFEF1
:10238000030604F10704F2D4039BCDF8009000F09B
:102390007F00A04003F5017300211C180D220B469D
:1023A00030460394FFF7D0FAFBE62846FFF7C6FE57
:1023B00000F00F02013200F0F000012142EA003289
:1023C0000B463046FFF790FC00287FF413AFE8E699
:1023D0002846FFF7B3FE00F00F02013200F0F000D4
:1023E0000321EBE72846FFF7A9FE024600283FF449
:1023F00001AF10F0F0037FF4FDAE30460421FFF78B
:1024000073FC00287FF4F6AECBE600F00F02013239
:10241000032142F420220B463046FFF765FC0028DA
:102420007FF4E8AEBDE603AC41460E22434600947D
:102430003046FFF761FA0094304641460F2243468A
:10244000FFF782FA4046D6E62846FFF777FE00F00F
:10245000F00200F00F031032013343EA0232C2E609
:1024600010B5C36C84B05A6803208DF80C00DC7979
:102470008DF80D4012020833084601A9019202931B
:10248000FFF788FE04B010BD08B5FFF781FE806C31
:1024900008BD00BF08B5FFF77BFEC36CD87903EB1E
:1024A0008000083008BD00BF08B5FEF777FB00BF0D
:1024B00008B5FEF773FB00BF844641EA000313F042
:1024C00003036DD1403A41D351F8043B40F8043B3B
:1024D00051F8043B40F8043B51F8043B40F8043BFE
:1024E00051F8043B40F8043B51F8043B40F8043BEE
:1024F00051F8043B40F8043B51F8043B40F8043BDE
:1025000051F8043B40F8043B51F8043B40F8043BCD
:1025100051F8043B40F8043B51F8043B40F8043BBD
:1025200051F8043B40F8043B51F8043B40F8043BAD
:1025300051F8043B40F8043B51F8043B40F8043B9D
:1025400051F8043B40F8043B403ABDD2303211D33D
:1025500051F8043B40F8043B51F8043B40F8043B7D
:1025600051F8043B40F8043B51F8043B40F8043B6D
:10257000103AEDD20C3205D351F8043B40F8043B3D
:10258000043AF9D2043208D0D2071CBF11F8013B3B
:1025900000F8013B01D30B8803806046704700BF01
:1025A000082A13D38B078DD010F003038AD0C3F110
:1025B0000403D21ADB071CBF11F8013B00F8013BF2
:1025C00080D331F8023B20F8023B7BE7043AD9D3B1
:1025D000013A11F8013B00F8013BF9D20B78037086
:1025E0004B7843708B7883706046704770B4840773
:1025F00046D0541E002A41D0CDB2034602E0621EEE
:10260000E4B3144603F8015B9A07F8D1032C2ED9E2
:10261000CDB245EA05250F2C45EA054519D903F148
:1026200010022646103E0F2E42F8105C42F80C5C59
:1026300042F8085C42F8045C02F11002F2D8A4F1FE
:10264000100222F00F0204F00F041032032C134486
:102650000DD91E462246043A032A46F8045BFAD8EE
:10266000221F22F003020432134404F003042CB1AD
:10267000C9B21C4403F8011BA342FBD170BC7047D4
:1026800014460346C2E700BF2A00000054000000C1
:10269000A8000000C8000000F000000002000000D8
:1026A00004000000070000000A0000000A0000000B
:1026B0000F970181B0B00B840000000007970181E3
:1026C000B0B008840000000001970181B0B0088418
:1026D0000000000003970181B0B0088400000000F2
:1026E00003970181B0B008840000000001970181C8
:1026F000B0B008840000000002970181B0B00984E6
:102700000000000011970181B0B00B8400000000B0
:1027100008B10181B0B000840000000008B101815F
:08272000B0B0008400000000CD
:10272800BCDBFF7F84FFFF7FF0DCFF7F088497809E
:102738000CDDFF7F0100000064E4FF7F78FFFF7F6E
:102748004CE5FF7F010000005CE5FF7F74FFFF7F21
:10275800C0E5FF7F01000000E4E5FF7F70FFFF7F19
:1027680088E6FF7F74FFFF7F54E7FF7F0884978028
:1027780060E7FF7F70FFFF7F8CE7FF7F01000000AD
:10278800D0E7FF7F6CFFFF7F38E8FF7F70FFFF7F98
:1027980048E9FF7F0100000058EEFF7FB0A90280E2
:1027A800F0EEFF7FB0B0A88040EFFF7F010000008F
:1027B8004CEFFF7FB0B0AA8084EFFF7FAE71B2808C
:1027C80054F0FF7F0100000050F0FF7FAB3F3880DE
:1027D800A8F0FF7F01000000B4F0FF7FB0B0AA802E
:1027E800F0F0FF7F01000000A8F1FF7FAB0EB28080
:1027F80010F2FF7FB0AF0A80DCF4FF7F0100000019
:10280800E0F4FF7FAB3F048080F7FF7F010000000A
:102818005CF9FF7F0084048070F9FF7F01000000ED
:102828006CF9FF7FB0AD048030FCFF7FB0A8038057
:1028380050FCFF7FD4FEFF7F54FCFF7FD8FEFF7F54
:0828480060FCFF7F01000000AD
:10285000007A030A000000000000000001020304E7
:08286000060708090D1100082C
:0400000508000000EF
:00000001FF
